{
  "abi": [
    {
      "inputs": [
        {
          "internalType": "address",
          "name": "_profusionBank",
          "type": "address"
        },
        {
          "internalType": "address",
          "name": "_weth",
          "type": "address"
        },
        {
          "internalType": "address",
          "name": "_factory",
          "type": "address"
        },
        {
          "internalType": "bytes32",
          "name": "_codeHash",
          "type": "bytes32"
        }
      ],
      "stateMutability": "nonpayable",
      "type": "constructor"
    },
    {
      "anonymous": false,
      "inputs": [
        {
          "indexed": true,
          "internalType": "address",
          "name": "previousOwner",
          "type": "address"
        },
        {
          "indexed": true,
          "internalType": "address",
          "name": "newOwner",
          "type": "address"
        }
      ],
      "name": "OwnershipTransferred",
      "type": "event"
    },
    {
      "inputs": [
        {
          "components": [
            {
              "internalType": "uint256",
              "name": "pid",
              "type": "uint256"
            },
            {
              "internalType": "uint256",
              "name": "amountRepay",
              "type": "uint256"
            },
            {
              "internalType": "uint256",
              "name": "amountTake",
              "type": "uint256"
            },
            {
              "internalType": "bytes",
              "name": "path",
              "type": "bytes"
            },
            {
              "internalType": "uint256",
              "name": "amountInMax",
              "type": "uint256"
            }
          ],
          "internalType": "struct ProfusionRunnerUniswapV3.CloseData",
          "name": "_data",
          "type": "tuple"
        }
      ],
      "name": "close",
      "outputs": [],
      "stateMutability": "payable",
      "type": "function"
    },
    {
      "inputs": [],
      "name": "codeHash",
      "outputs": [
        {
          "internalType": "bytes32",
          "name": "",
          "type": "bytes32"
        }
      ],
      "stateMutability": "view",
      "type": "function"
    },
    {
      "inputs": [],
      "name": "factory",
      "outputs": [
        {
          "internalType": "address",
          "name": "",
          "type": "address"
        }
      ],
      "stateMutability": "view",
      "type": "function"
    },
    {
      "inputs": [],
      "name": "owner",
      "outputs": [
        {
          "internalType": "address",
          "name": "",
          "type": "address"
        }
      ],
      "stateMutability": "view",
      "type": "function"
    },
    {
      "inputs": [],
      "name": "profusionBank",
      "outputs": [
        {
          "internalType": "address",
          "name": "",
          "type": "address"
        }
      ],
      "stateMutability": "view",
      "type": "function"
    },
    {
      "inputs": [
        {
          "internalType": "address",
          "name": "_token",
          "type": "address"
        },
        {
          "internalType": "uint256",
          "name": "_amount",
          "type": "uint256"
        }
      ],
      "name": "recover",
      "outputs": [],
      "stateMutability": "nonpayable",
      "type": "function"
    },
    {
      "inputs": [
        {
          "internalType": "uint256",
          "name": "_amount",
          "type": "uint256"
        }
      ],
      "name": "recoverETH",
      "outputs": [],
      "stateMutability": "nonpayable",
      "type": "function"
    },
    {
      "inputs": [],
      "name": "renounceOwnership",
      "outputs": [],
      "stateMutability": "nonpayable",
      "type": "function"
    },
    {
      "inputs": [
        {
          "components": [
            {
              "internalType": "uint256",
              "name": "pid",
              "type": "uint256"
            },
            {
              "internalType": "uint256",
              "name": "amountBorrow",
              "type": "uint256"
            },
            {
              "internalType": "uint256",
              "name": "amountPutExtra",
              "type": "uint256"
            },
            {
              "internalType": "bytes",
              "name": "path",
              "type": "bytes"
            },
            {
              "internalType": "uint256",
              "name": "amountOutMin",
              "type": "uint256"
            }
          ],
          "internalType": "struct ProfusionRunnerUniswapV3.ShortData",
          "name": "_data",
          "type": "tuple"
        }
      ],
      "name": "short",
      "outputs": [],
      "stateMutability": "payable",
      "type": "function"
    },
    {
      "inputs": [
        {
          "internalType": "address",
          "name": "newOwner",
          "type": "address"
        }
      ],
      "name": "transferOwnership",
      "outputs": [],
      "stateMutability": "nonpayable",
      "type": "function"
    },
    {
      "inputs": [
        {
          "internalType": "int256",
          "name": "_amount0Delta",
          "type": "int256"
        },
        {
          "internalType": "int256",
          "name": "_amount1Delta",
          "type": "int256"
        },
        {
          "internalType": "bytes",
          "name": "_data",
          "type": "bytes"
        }
      ],
      "name": "uniswapV3SwapCallback",
      "outputs": [],
      "stateMutability": "nonpayable",
      "type": "function"
    },
    {
      "inputs": [],
      "name": "weth",
      "outputs": [
        {
          "internalType": "address",
          "name": "",
          "type": "address"
        }
      ],
      "stateMutability": "view",
      "type": "function"
    },
    {
      "stateMutability": "payable",
      "type": "receive"
    }
  ],
  "bytecode": {
    "object": "0x610100604052600180546001600160a01b031916602a1790553480156200002557600080fd5b5060405162003281380380620032818339810160408190526200004891620005ac565b838362000055336200017b565b60405163190676f760e31b81526001600160a01b0382811660048301526000919084169063c833b7b890602401602060405180830381865afa158015620000a0573d6000803e3d6000fd5b505050506040513d601f19601f82011682018060405250810190620000c69190620005fe565b90506001600160a01b038116620001245760405162461bcd60e51b815260206004820152601c60248201527f50726f667573696f6e52756e6e6572426173652f6e6f2d62776574680000000060448201526064015b60405180910390fd5b6200013c6001600160a01b03831684600019620001cb565b620001546001600160a01b03831682600019620001cb565b506001600160a01b03918216608052811660a0529190911660c05260e05250620006da9050565b600080546001600160a01b038381166001600160a01b0319831681178455604051919092169283917f8be0079c531659141344cd1fd0a4f28419497f9722a3daafe3b4186f6b6457e09190a35050565b801580620002495750604051636eb1769f60e11b81523060048201526001600160a01b03838116602483015284169063dd62ed3e90604401602060405180830381865afa15801562000221573d6000803e3d6000fd5b505050506040513d601f19601f8201168201806040525081019062000247919062000623565b155b620002bd5760405162461bcd60e51b815260206004820152603660248201527f5361666545524332303a20617070726f76652066726f6d206e6f6e2d7a65726f60448201527f20746f206e6f6e2d7a65726f20616c6c6f77616e63650000000000000000000060648201526084016200011b565b604080516001600160a01b038416602482015260448082018490528251808303909101815260649091019091526020810180516001600160e01b0390811663095ea7b360e01b17909152620003159185916200031a16565b505050565b6040805180820190915260208082527f5361666545524332303a206c6f772d6c6576656c2063616c6c206661696c65649082015260009062000369906001600160a01b038516908490620003eb565b8051909150156200031557808060200190518101906200038a91906200063d565b620003155760405162461bcd60e51b815260206004820152602a60248201527f5361666545524332303a204552433230206f7065726174696f6e20646964206e6044820152691bdd081cdd58d8d9595960b21b60648201526084016200011b565b6060620003fc848460008562000404565b949350505050565b606082471015620004675760405162461bcd60e51b815260206004820152602660248201527f416464726573733a20696e73756666696369656e742062616c616e636520666f6044820152651c8818d85b1b60d21b60648201526084016200011b565b600080866001600160a01b0316858760405162000485919062000687565b60006040518083038185875af1925050503d8060008114620004c4576040519150601f19603f3d011682016040523d82523d6000602084013e620004c9565b606091505b509092509050620004dd87838387620004e8565b979650505050505050565b606083156200055c57825160000362000554576001600160a01b0385163b620005545760405162461bcd60e51b815260206004820152601d60248201527f416464726573733a2063616c6c20746f206e6f6e2d636f6e747261637400000060448201526064016200011b565b5081620003fc565b620003fc8383815115620005735781518083602001fd5b8060405162461bcd60e51b81526004016200011b9190620006a5565b80516001600160a01b0381168114620005a757600080fd5b919050565b60008060008060808587031215620005c357600080fd5b620005ce856200058f565b9350620005de602086016200058f565b9250620005ee604086016200058f565b6060959095015193969295505050565b6000602082840312156200061157600080fd5b6200061c826200058f565b9392505050565b6000602082840312156200063657600080fd5b5051919050565b6000602082840312156200065057600080fd5b815180151581146200061c57600080fd5b60005b838110156200067e57818101518382015260200162000664565b50506000910152565b600082516200069b81846020870162000661565b9190910192915050565b6020815260008251806020840152620006c681604085016020870162000661565b601f01601f19169190910160400192915050565b60805160a05160c05160e051612af062000791600039600081816101390152610eef0152600081816102790152610eb201526000818160bb015281816101a601528181610ba401528181610c9101528181611f250152611f7201526000818161022701528181610f680152818161188e0152818161192d01528181611a2601528181611af301528181611b2f01528181611baf01528181611c4f01528181611d4701528181611e2c0152611eac0152612af06000f3fe6080604052600436106100ab5760003560e01c806373535cbc1161006457806373535cbc146102155780638da5cb5b14610249578063c45a015514610267578063d33355531461029b578063f2fde38b146102bb578063fa461e33146102db57600080fd5b806318edaaf21461012757806333cbf0e81461016e5780633667bde7146101815780633fc8cef3146101945780635705ae43146101e0578063715018a61461020057600080fd5b3661012257336001600160a01b037f000000000000000000000000000000000000000000000000000000000000000016146101205760405162461bcd60e51b815260206004820152601060248201526f0e4cac6cad2ecca5edcdee85aeecae8d60831b60448201526064015b60405180910390fd5b005b600080fd5b34801561013357600080fd5b5061015b7f000000000000000000000000000000000000000000000000000000000000000081565b6040519081526020015b60405180910390f35b61012061017c366004612561565b6102fb565b61012061018f366004612561565b610634565b3480156101a057600080fd5b506101c87f000000000000000000000000000000000000000000000000000000000000000081565b6040516001600160a01b039091168152602001610165565b3480156101ec57600080fd5b506101206101fb3660046125ab565b6108c8565b34801561020c57600080fd5b5061012061095c565b34801561022157600080fd5b506101c87f000000000000000000000000000000000000000000000000000000000000000081565b34801561025557600080fd5b506000546001600160a01b03166101c8565b34801561027357600080fd5b506101c87f000000000000000000000000000000000000000000000000000000000000000081565b3480156102a757600080fd5b506101206102b63660046125d7565b610970565b3480156102c757600080fd5b506101206102d63660046125f0565b610a38565b3480156102e757600080fd5b506101206102f636600461260d565b610ab1565b33321461034a5760405162461bcd60e51b815260206004820152601b60248201527f50726f667573696f6e52756e6e6572426173652f6e6f742d656f6100000000006044820152606401610117565b6001546001600160a01b0316602a1461036257600080fd5b600180546001600160a01b0319163317905560006103c0610386606084018461268d565b8080601f016020809104026020016040519081016040528093929190818152602001838380828437600092019190915250610b3192505050565b509150506103d381338460400135610ba2565b600080806104216103e7606087018761268d565b8080601f016020809104026020016040519081016040528093929190818152602001838380828437600092019190915250610de992505050565b9250925092506000826001600160a01b0316846001600160a01b031610905060006040518060a0016040528088600001358152602001866001600160a01b031681526020018860200135815260200161047d8960400135610e1e565b815260200161048f60608a018a61268d565b8080601f0160208091040260200160405190810160405280939291908181526020018383808284376000920182905250939094525092935091508190506104d7878787610e34565b6001600160a01b031663128acb0830866104f48d60200135610e1e565b8861051d57610518600173fffd8963efd1fc6a506488495d951d5263988d266126f1565b61052d565b61052d6401000276a36001612718565b8860405160200161053e9190612788565b6040516020818303038152906040526040518663ffffffff1660e01b815260040161056d9594939291906127d3565b60408051808303816000875af115801561058b573d6000803e3d6000fd5b505050506040513d601f19601f820116820180604052508101906105af919061280e565b9150915060008083136105ca576105c583612832565b6105d3565b6105d382612832565b905089608001358110156106155760405162461bcd60e51b815260206004820152600960248201526821736c69707061676560b81b6044820152606401610117565b5050600180546001600160a01b031916602a1790555050505050505050565b3332146106835760405162461bcd60e51b815260206004820152601b60248201527f50726f667573696f6e52756e6e6572426173652f6e6f742d656f6100000000006044820152606401610117565b6001546001600160a01b0316602a1461069b57600080fd5b600180546001600160a01b031916339081179091556000906106c39083356020850135610f3a565b9050600080806106d96103e7606087018761268d565b9250925092506000836001600160a01b0316836001600160a01b031610905060006040518060a0016040528088600001358152602001866001600160a01b031681526020018781526020016107318960400135610e1e565b61073a90612832565b815260200161074c60608a018a61268d565b8080601f016020809104026020016040519081016040528093929190818152602001838380828437600092018290525093909452509293509150819050610794868887610e34565b6001600160a01b031663128acb0830866107ad8c610e1e565b6107b690612832565b886107df576107da600173fffd8963efd1fc6a506488495d951d5263988d266126f1565b6107ef565b6107ef6401000276a36001612718565b886040516020016108009190612788565b6040516020818303038152906040526040518663ffffffff1660e01b815260040161082f9594939291906127d3565b60408051808303816000875af115801561084d573d6000803e3d6000fd5b505050506040513d601f19601f82011682018060405250810190610871919061280e565b9150915060008083136108845781610886565b825b905089608001358111156106155760405162461bcd60e51b815260206004820152600960248201526821736c69707061676560b81b6044820152606401610117565b6108d0610fe3565b6000198103610944576040516370a0823160e01b81523060048201526001600160a01b038316906370a0823190602401602060405180830381865afa15801561091d573d6000803e3d6000fd5b505050506040513d601f19601f82011682018060405250810190610941919061284e565b90505b6109586001600160a01b038316338361103d565b5050565b610964610fe3565b61096e60006110a0565b565b610978610fe3565b60001981036109845750475b60408051600080825260208201909252339083906040516109a5919061287d565b60006040518083038185875af1925050503d80600081146109e2576040519150601f19603f3d011682016040523d82523d6000602084013e6109e7565b606091505b50509050806109585760405162461bcd60e51b815260206004820152601e60248201527f7265636f7665724554482f6574682d7472616e736665722d6661696c656400006044820152606401610117565b610a40610fe3565b6001600160a01b038116610aa55760405162461bcd60e51b815260206004820152602660248201527f4f776e61626c653a206e6577206f776e657220697320746865207a65726f206160448201526564647265737360d01b6064820152608401610117565b610aae816110a0565b50565b6001546001600160a01b03163214610ac857600080fd5b6000610ad6828401846128f3565b905060008060008713610af25785610aed88612832565b610afc565b86610afc87612832565b91509150600083606001511315610b1d57610b188282856110f0565b610b28565b610b288282856112f1565b50505050505050565b6000806000610b4e60148551610b4791906129e7565b8590611564565b9150610b72610b5f600360146129fa565b8551610b6b91906129e7565b859061161e565b9050610b9a6014610b846003826129fa565b610b8e91906129fa565b8551610b4791906129e7565b949193509150565b7f00000000000000000000000000000000000000000000000000000000000000006001600160a01b0316836001600160a01b031603610dd4576001600160a01b0382163314610c335760405162461bcd60e51b815260206004820152601b60248201527f5f7472616e73666572496e2f6e6f742d66726f6d2d73656e64657200000000006044820152606401610117565b34811115610c8f5760405162461bcd60e51b815260206004820152602360248201527f5f7472616e73666572496e2f696e73756666696369656e742d6574682d616d6f6044820152621d5b9d60ea1b6064820152608401610117565b7f00000000000000000000000000000000000000000000000000000000000000006001600160a01b031663d0e30db0826040518263ffffffff1660e01b81526004016000604051808303818588803b158015610cea57600080fd5b505af1158015610cfe573d6000803e3d6000fd5b505050505080341115610dcf5760006001600160a01b038316610d2183346129e7565b60408051600081526020810191829052610d3a9161287d565b60006040518083038185875af1925050503d8060008114610d77576040519150601f19603f3d011682016040523d82523d6000602084013e610d7c565b606091505b5050905080610dcd5760405162461bcd60e51b815260206004820152601f60248201527f5f7472616e73666572496e2f6574682d7472616e736665722d6661696c6564006044820152606401610117565b505b505050565b610dcf6001600160a01b0384168330846116c9565b60008080610df78482611564565b9250610e0484601461161e565b9050610e15610b47600360146129fa565b91509193909250565b6000600160ff1b8210610e3057600080fd5b5090565b6000806000846001600160a01b0316866001600160a01b031610610e59578486610e5c565b85855b604080516001600160a01b03938416602080830191909152929093168382015262ffffff969096166060808401919091528651808403820181526080840188528051908301206001600160f81b031960a08501527f000000000000000000000000000000000000000000000000000000000000000090911b6bffffffffffffffffffffffff191660a184015260b58301527f000000000000000000000000000000000000000000000000000000000000000060d5808401919091528651808403909101815260f5909201909552805194019390932095945050505050565b604051620c3a4160e11b81526001600160a01b03848116600483015260248201849052600091610fdb9184917f00000000000000000000000000000000000000000000000000000000000000009091169062187482906044016020604051808303816000875af1158015610fb2573d6000803e3d6000fd5b505050506040513d601f19601f82011682018060405250810190610fd6919061284e565b611701565b949350505050565b6000546001600160a01b0316331461096e5760405162461bcd60e51b815260206004820181905260248201527f4f776e61626c653a2063616c6c6572206973206e6f7420746865206f776e65726044820152606401610117565b6040516001600160a01b038316602482015260448101829052610dcf90849063a9059cbb60e01b906064015b60408051601f198184030181529190526020810180516001600160e01b03166001600160e01b031990931692909217909152611719565b600080546001600160a01b038381166001600160a01b0319831681178455604051919092169283917f8be0079c531659141344cd1fd0a4f28419497f9722a3daafe3b4186f6b6457e09190a35050565b60008060006111028460800151610de9565b925092509250611113838383610e34565b6001600160a01b0316336001600160a01b0316146111735760405162461bcd60e51b815260206004820152601960248201527f5f73686f727443616c6c6261636b2f6261642d63616c6c6572000000000000006044820152606401610117565b61118084608001516117eb565b156112a5576111928460800151611825565b6080850181905260009081906111a790610de9565b9093509150506001600160a01b03808316908516106111c7858484610e34565b6001600160a01b031663128acb0830836111e08c610e1e565b8561120957611204600173fffd8963efd1fc6a506488495d951d5263988d266126f1565b611219565b6112196401000276a36001612718565b8c60405160200161122a9190612788565b6040516020818303038152906040526040518663ffffffff1660e01b81526004016112599594939291906127d3565b60408051808303816000875af1158015611277573d6000803e3d6000fd5b505050506040513d601f19601f8201168201806040525081019061129b919061280e565b50505050506112d5565b60008460600151866112b791906129fa565b90506112d3328660000151876020015186896040015186611856565b505b6112e96001600160a01b038416338861103d565b505050505050565b60008060006113038460800151610de9565b925092509250611314828483610e34565b6001600160a01b0316336001600160a01b0316146113745760405162461bcd60e51b815260206004820152601960248201527f5f636c6f736543616c6c6261636b2f6261642d63616c6c6572000000000000006044820152606401610117565b61138184608001516117eb565b156114af576113938460800151611825565b6080850181905260009081906113a890610de9565b9093509150506001600160a01b03808516908316106113c8858484610e34565b6001600160a01b031663128acb0833836113e18d610e1e565b6113ea90612832565b856114135761140e600173fffd8963efd1fc6a506488495d951d5263988d266126f1565b611423565b6114236401000276a36001612718565b8c6040516020016114349190612788565b6040516020818303038152906040526040518663ffffffff1660e01b81526004016114639594939291906127d3565b60408051808303816000875af1158015611481573d6000803e3d6000fd5b505050506040513d601f19601f820116820180604052508101906114a5919061280e565b50505050506112e9565b600084606001516114bf90612832565b90506114db328660000151876020015186896040015186611c24565b6114ef6001600160a01b038416338961103d565b6040516370a0823160e01b8152306004820152610b2890849032906001600160a01b038316906370a0823190602401602060405180830381865afa15801561153b573d6000803e3d6000fd5b505050506040513d601f19601f8201168201806040525081019061155f919061284e565b611f23565b6000816115728160146129fa565b10156115b55760405162461bcd60e51b8152602060048201526012602482015271746f416464726573735f6f766572666c6f7760701b6044820152606401610117565b6115c08260146129fa565b835110156116085760405162461bcd60e51b8152602060048201526015602482015274746f416464726573735f6f75744f66426f756e647360581b6044820152606401610117565b5081810160200151600160601b90045b92915050565b60008161162c8160036129fa565b101561166e5760405162461bcd60e51b8152602060048201526011602482015270746f55696e7432345f6f766572666c6f7760781b6044820152606401610117565b6116798260036129fa565b835110156116c05760405162461bcd60e51b8152602060048201526014602482015273746f55696e7432345f6f75744f66426f756e647360601b6044820152606401610117565b50016003015190565b6040516001600160a01b0380851660248301528316604482015260648101829052610dcd9085906323b872dd60e01b90608401611069565b60008183106117105781611712565b825b9392505050565b600061176e826040518060400160405280602081526020017f5361666545524332303a206c6f772d6c6576656c2063616c6c206661696c6564815250856001600160a01b03166120a69092919063ffffffff16565b805190915015610dcf578080602001905181019061178c9190612a0d565b610dcf5760405162461bcd60e51b815260206004820152602a60248201527f5361666545524332303a204552433230206f7065726174696f6e20646964206e6044820152691bdd081cdd58d8d9595960b21b6064820152608401610117565b60006117f9600360146129fa565b60146118066003826129fa565b61181091906129fa565b61181a91906129fa565b825110159050919050565b6060611618611836600360146129fa565b611842600360146129fa565b845161184e91906129e7565b8491906120b5565b600019850361190257604051637b8feacb60e11b81526001600160a01b038781166004830152858116602483015284811660448301527f0000000000000000000000000000000000000000000000000000000000000000169063f71fd596906064016020604051808303816000875af11580156118d7573d6000803e3d6000fd5b505050506040513d601f19601f820116820180604052508101906118fb919061284e565b9450611aed565b60405163e507470960e01b81526001600160a01b0387811660048301526024820187905260009182917f0000000000000000000000000000000000000000000000000000000000000000169063e5074709906044016040805180830381865afa158015611973573d6000803e3d6000fd5b505050506040513d601f19601f820116820180604052508101906119979190612a2f565b91509150816001600160a01b0316856001600160a01b031614611a075760405162461bcd60e51b815260206004820152602260248201527f5f626f72726f772f636f6c6c61746572616c2d6e6f742d5f636f6c6c61746572604482015261185b60f21b6064820152608401610117565b604051630cf351b560e31b81526001600160a01b0382811660048301527f0000000000000000000000000000000000000000000000000000000000000000169063679a8da890602401602060405180830381865afa158015611a6d573d6000803e3d6000fd5b505050506040513d601f19601f82011682018060405250810190611a919190612a69565b6001600160a01b0316866001600160a01b031614611aea5760405162461bcd60e51b81526020600482015260166024820152755f626f72726f772f6261642d756e6465726c79696e6760501b6044820152606401610117565b50505b611b18837f00000000000000000000000000000000000000000000000000000000000000008361220c565b6040516315d21c8d60e11b81526001600160a01b037f00000000000000000000000000000000000000000000000000000000000000001690632ba4391a90611b6890899089908690600401612a86565b600060405180830381600087803b158015611b8257600080fd5b505af1158015611b96573d6000803e3d6000fd5b505060405163c1bce0b760e01b81526001600160a01b037f000000000000000000000000000000000000000000000000000000000000000016925063c1bce0b79150611bea90899089908790600401612a86565b600060405180830381600087803b158015611c0457600080fd5b505af1158015611c18573d6000803e3d6000fd5b50505050505050505050565b60405163e507470960e01b81526001600160a01b0387811660048301526024820187905260009182917f0000000000000000000000000000000000000000000000000000000000000000169063e5074709906044016040805180830381865afa158015611c95573d6000803e3d6000fd5b505050506040513d601f19601f82011682018060405250810190611cb99190612a2f565b91509150816001600160a01b0316856001600160a01b031614611d285760405162461bcd60e51b815260206004820152602160248201527f5f72657061792f636f6c6c61746572616c2d6e6f742d5f636f6c6c61746572616044820152601b60fa1b6064820152608401610117565b604051630cf351b560e31b81526001600160a01b0382811660048301527f0000000000000000000000000000000000000000000000000000000000000000169063679a8da890602401602060405180830381865afa158015611d8e573d6000803e3d6000fd5b505050506040513d601f19601f82011682018060405250810190611db29190612a69565b6001600160a01b0316866001600160a01b031614611e0a5760405162461bcd60e51b81526020600482015260156024820152745f72657061792f6261642d756e6465726c79696e6760581b6044820152606401610117565b611e1586828661220c565b604051638cd2e0c760e01b81526001600160a01b037f00000000000000000000000000000000000000000000000000000000000000001690638cd2e0c790611e65908b908b908990600401612a86565b600060405180830381600087803b158015611e7f57600080fd5b505af1158015611e93573d6000803e3d6000fd5b505060405163c640e9bf60e01b81526001600160a01b037f000000000000000000000000000000000000000000000000000000000000000016925063c640e9bf9150611ee7908b908b908890600401612a86565b600060405180830381600087803b158015611f0157600080fd5b505af1158015611f15573d6000803e3d6000fd5b505050505050505050505050565b7f00000000000000000000000000000000000000000000000000000000000000006001600160a01b0316836001600160a01b03160361209257604051632e1a7d4d60e01b8152600481018290527f00000000000000000000000000000000000000000000000000000000000000006001600160a01b031690632e1a7d4d90602401600060405180830381600087803b158015611fbe57600080fd5b505af1158015611fd2573d6000803e3d6000fd5b5050604080516000808252602082019283905293506001600160a01b03861692508491611fff919061287d565b60006040518083038185875af1925050503d806000811461203c576040519150601f19603f3d011682016040523d82523d6000602084013e612041565b606091505b5050905080610dcd5760405162461bcd60e51b815260206004820181905260248201527f5f7472616e736665724f75742f6574682d7472616e736665722d6661696c65646044820152606401610117565b610dcf6001600160a01b038416838361103d565b6060610fdb84846000856122bb565b6060816120c381601f6129fa565b10156121025760405162461bcd60e51b815260206004820152600e60248201526d736c6963655f6f766572666c6f7760901b6044820152606401610117565b8261210d83826129fa565b101561214c5760405162461bcd60e51b815260206004820152600e60248201526d736c6963655f6f766572666c6f7760901b6044820152606401610117565b61215682846129fa565b8451101561219a5760405162461bcd60e51b8152602060048201526011602482015270736c6963655f6f75744f66426f756e647360781b6044820152606401610117565b6060821580156121b95760405191506000825260208201604052612203565b6040519150601f8416801560200281840101858101878315602002848b0101015b818310156121f25780518352602092830192016121da565b5050858452601f01601f1916604052505b50949350505050565b604051636eb1769f60e11b81523060048201526001600160a01b0383811660248301526000919085169063dd62ed3e90604401602060405180830381865afa15801561225c573d6000803e3d6000fd5b505050506040513d601f19601f82011682018060405250810190612280919061284e565b905081811015610dcd5780156122a5576122a56001600160a01b038516846000612396565b610dcd6001600160a01b03851684600019612396565b60608247101561231c5760405162461bcd60e51b815260206004820152602660248201527f416464726573733a20696e73756666696369656e742062616c616e636520666f6044820152651c8818d85b1b60d21b6064820152608401610117565b600080866001600160a01b03168587604051612338919061287d565b60006040518083038185875af1925050503d8060008114612375576040519150601f19603f3d011682016040523d82523d6000602084013e61237a565b606091505b509150915061238b878383876124ab565b979650505050505050565b8015806124105750604051636eb1769f60e11b81523060048201526001600160a01b03838116602483015284169063dd62ed3e90604401602060405180830381865afa1580156123ea573d6000803e3d6000fd5b505050506040513d601f19601f8201168201806040525081019061240e919061284e565b155b61247b5760405162461bcd60e51b815260206004820152603660248201527f5361666545524332303a20617070726f76652066726f6d206e6f6e2d7a65726f60448201527520746f206e6f6e2d7a65726f20616c6c6f77616e636560501b6064820152608401610117565b6040516001600160a01b038316602482015260448101829052610dcf90849063095ea7b360e01b90606401611069565b6060831561251a578251600003612513576001600160a01b0385163b6125135760405162461bcd60e51b815260206004820152601d60248201527f416464726573733a2063616c6c20746f206e6f6e2d636f6e74726163740000006044820152606401610117565b5081610fdb565b610fdb838381511561252f5781518083602001fd5b8060405162461bcd60e51b81526004016101179190612aa7565b600060a0828403121561255b57600080fd5b50919050565b60006020828403121561257357600080fd5b813567ffffffffffffffff81111561258a57600080fd5b610fdb84828501612549565b6001600160a01b0381168114610aae57600080fd5b600080604083850312156125be57600080fd5b82356125c981612596565b946020939093013593505050565b6000602082840312156125e957600080fd5b5035919050565b60006020828403121561260257600080fd5b813561171281612596565b6000806000806060858703121561262357600080fd5b8435935060208501359250604085013567ffffffffffffffff8082111561264957600080fd5b818701915087601f83011261265d57600080fd5b81358181111561266c57600080fd5b88602082850101111561267e57600080fd5b95989497505060200194505050565b6000808335601e198436030181126126a457600080fd5b83018035915067ffffffffffffffff8211156126bf57600080fd5b6020019150368190038213156126d457600080fd5b9250929050565b634e487b7160e01b600052601160045260246000fd5b6001600160a01b03828116828216039080821115612711576127116126db565b5092915050565b6001600160a01b03818116838216019080821115612711576127116126db565b60005b8381101561275357818101518382015260200161273b565b50506000910152565b60008151808452612774816020860160208601612738565b601f01601f19169290920160200192915050565b602081528151602082015260018060a01b03602083015116604082015260408201516060820152606082015160808201526000608083015160a080840152610fdb60c084018261275c565b6001600160a01b0386811682528515156020830152604082018590528316606082015260a06080820181905260009061238b9083018461275c565b6000806040838503121561282157600080fd5b505080516020909101519092909150565b6000600160ff1b8201612847576128476126db565b5060000390565b60006020828403121561286057600080fd5b5051919050565b634e487b7160e01b600052604160045260246000fd5b6000825161288f818460208701612738565b9190910192915050565b60405160a0810167ffffffffffffffff811182821017156128bc576128bc612867565b60405290565b604051601f8201601f1916810167ffffffffffffffff811182821017156128eb576128eb612867565b604052919050565b6000602080838503121561290657600080fd5b823567ffffffffffffffff8082111561291e57600080fd5b9084019060a0828703121561293257600080fd5b61293a612899565b823581528383013561294b81612596565b808583015250604083013560408201526060830135606082015260808301358281111561297757600080fd5b80840193505086601f84011261298c57600080fd5b82358281111561299e5761299e612867565b6129b0601f8201601f191686016128c2565b925080835287858286010111156129c657600080fd5b80858501868501376000908301909401939093526080830152509392505050565b81810381811115611618576116186126db565b80820180821115611618576116186126db565b600060208284031215612a1f57600080fd5b8151801515811461171257600080fd5b60008060408385031215612a4257600080fd5b8251612a4d81612596565b6020840151909250612a5e81612596565b809150509250929050565b600060208284031215612a7b57600080fd5b815161171281612596565b6001600160a01b039390931683526020830191909152604082015260600190565b602081526000611712602083018461275c56fea26469706673582212205f30900051891ca32aea6cf5e6d21aba97d37c0c25f16b560b758bc9732700ce64736f6c63430008130033",
    "linkReferences": {}
  },
  "methodIdentifiers": {
    "close((uint256,uint256,uint256,bytes,uint256))": "3667bde7",
    "codeHash()": "18edaaf2",
    "factory()": "c45a0155",
    "owner()": "8da5cb5b",
    "profusionBank()": "73535cbc",
    "recover(address,uint256)": "5705ae43",
    "recoverETH(uint256)": "d3335553",
    "renounceOwnership()": "715018a6",
    "short((uint256,uint256,uint256,bytes,uint256))": "33cbf0e8",
    "transferOwnership(address)": "f2fde38b",
    "uniswapV3SwapCallback(int256,int256,bytes)": "fa461e33",
    "weth()": "3fc8cef3"
  },
  "id": 44
}