{
  "abi": [
    {
      "inputs": [
        {
          "internalType": "address",
          "name": "_betaBank",
          "type": "address"
        },
        {
          "internalType": "address",
          "name": "_underlying",
          "type": "address"
        }
      ],
      "name": "bTokenFor",
      "outputs": [
        {
          "internalType": "address",
          "name": "",
          "type": "address"
        }
      ],
      "stateMutability": "view",
      "type": "function"
    },
    {
      "inputs": [
        {
          "internalType": "address",
          "name": "_underlying",
          "type": "address"
        }
      ],
      "name": "deploy",
      "outputs": [
        {
          "internalType": "address",
          "name": "",
          "type": "address"
        }
      ],
      "stateMutability": "nonpayable",
      "type": "function"
    }
  ],
  "bytecode": {
    "object": "0x608060405234801561001057600080fd5b50613119806100206000396000f3fe608060405234801561001057600080fd5b50600436106100365760003560e01c80634c96a3891461003b578063aea443db1461006a575b600080fd5b61004e610049366004610216565b61007d565b6040516001600160a01b03909116815260200160405180910390f35b61004e610078366004610238565b610106565b604080513360208201526001600160a01b0383169181019190915260009081906060016040516020818303038152906040528051906020012090508033846040516100c7906101ed565b6001600160a01b039283168152911660208201526040018190604051809103906000f59050801580156100fe573d6000803e3d6000fd5b509392505050565b60008083836040516020016101319291906001600160a01b0392831681529116602082015260400190565b6040516020818303038152906040529050600060405180602001610154906101ed565b601f1982820381018352601f9091011660408190526101789190849060200161029b565b60408051601f1981840301815282825280516020918201208551958201959095206001600160f81b0319828501523060601b6bffffffffffffffffffffffff19166021850152603584015260558084019590955281518084039095018552607590920190528251920191909120949350505050565b612e2b806102b983390190565b80356001600160a01b038116811461021157600080fd5b919050565b60006020828403121561022857600080fd5b610231826101fa565b9392505050565b6000806040838503121561024b57600080fd5b610254836101fa565b9150610262602084016101fa565b90509250929050565b6000815160005b8181101561028c5760208185018101518683015201610272565b50600093019283525090919050565b60006102b06102aa838661026b565b8461026b565b94935050505056fe6101806040523480156200001257600080fd5b5060405162002e2b38038062002e2b833981016040819052620000359162000345565b604051806040016040528060088152602001672823102a37b5b2b760c11b81525080604051806040016040528060018152602001603160f81b815250604051806040016040528060088152602001672823102a37b5b2b760c11b8152506040518060400160405280600781526020016638332a27a5a2a760c91b8152508160039081620000c3919062000422565b506004620000d2828262000422565b5050825160208085019190912083518483012060e08290526101008190524660a0818152604080517f8b73c3c69bb8fe3d512ecc4cf759cc79239f7b179b0ffacaa9a75d522b39400f81880181905281830187905260608201869052608082019490945230818401528151808203909301835260c0019052805194019390932091935091906080523060c05261012052505060016007555050506001600160a01b038216620001d75760405162461bcd60e51b815260206004820152602660248201527f636f6e7374727563746f722f70726f667573696f6e62616e6b2d7a65726f2d6160448201526564647265737360d01b60648201526084015b60405180910390fd5b6001600160a01b0381166200023b5760405162461bcd60e51b815260206004820152602360248201527f636f6e7374727563746f722f756e6465726c79696e672d7a65726f2d6164647260448201526265737360e81b6064820152608401620001ce565b6001600160a01b03808316610140819052908216610160526040805163560b2ebd60e11b8152905163ac165d7a916004808201926020929091908290030181865afa1580156200028f573d6000803e3d6000fd5b505050506040513d601f19601f82011682018060405250810190620002b59190620004ee565b6001600160a01b0316639e51051f6040518163ffffffff1660e01b8152600401602060405180830381865afa158015620002f3573d6000803e3d6000fd5b505050506040513d601f19601f8201168201806040525081019062000319919062000513565b6008555050426009556200052d565b80516001600160a01b03811681146200034057600080fd5b919050565b600080604083850312156200035957600080fd5b620003648362000328565b9150620003746020840162000328565b90509250929050565b634e487b7160e01b600052604160045260246000fd5b600181811c90821680620003a857607f821691505b602082108103620003c957634e487b7160e01b600052602260045260246000fd5b50919050565b601f8211156200041d57600081815260208120601f850160051c81016020861015620003f85750805b601f850160051c820191505b81811015620004195782815560010162000404565b5050505b505050565b81516001600160401b038111156200043e576200043e6200037d565b62000456816200044f845462000393565b84620003cf565b602080601f8311600181146200048e5760008415620004755750858301515b600019600386901b1c1916600185901b17855562000419565b600085815260208120601f198616915b82811015620004bf578886015182559484019460019091019084016200049e565b5085821015620004de5787850151600019600388901b60f8161c191681555b5050505050600190811b01905550565b6000602082840312156200050157600080fd5b6200050c8262000328565b9392505050565b6000602082840312156200052657600080fd5b5051919050565b60805160a05160c05160e051610100516101205161014051610160516128216200060a600039600081816102e70152818161041c015281816106e30152818161075d0152818161079d0152818161095701528181610a7401528181610aee01528181610b2e01528181610db101528181610e9b015261102a01526000818161034f0152818161052e0152818161064c01528181610d2f015281816112e0015281816113ca015261144001526000611c4b01526000611c9a01526000611c7501526000611bce01526000611bf801526000611c2201526128216000f3fe608060405234801561001057600080fd5b50600436106101cf5760003560e01c80636f307dc3116101045780639ffe7973116100a2578063d505accf11610071578063d505accf146103e1578063d8a0ac26146103f4578063dd62ed3e146103fd578063f8ba4cff1461041057600080fd5b80639ffe7973146103a8578063a457c2d7146103b1578063a9059cbb146103c4578063ba9a7a56146103d757600080fd5b80637c3a00fd116100de5780637c3a00fd146103715780637ecebe001461037a57806395d89b411461038d5780639dc29fac1461039557600080fd5b80636f307dc3146102e257806370a082311461032157806373535cbc1461034a57600080fd5b80633644e51511610171578063453b1a8b1161014b578063453b1a8b146102aa5780634b8a3529146102b35780635dd92585146102c6578063684b51d4146102d957600080fd5b80633644e5151461027c578063395093511461028457806340c10f191461029757600080fd5b80631ec82cb8116101ad5780631ec82cb81461022757806322867d781461023c57806323b872dd1461024f578063313ce5671461026257600080fd5b806306fdde03146101d4578063095ea7b3146101f257806318160ddd14610215575b600080fd5b6101dc610418565b6040516101e991906123ea565b60405180910390f35b610205610200366004612432565b610501565b60405190151581526020016101e9565b6002545b6040519081526020016101e9565b61023a61023536600461245e565b61051b565b005b61021961024a366004612432565b610637565b61020561025d36600461245e565b61092f565b61026a610953565b60405160ff90911681526020016101e9565b610219610a0f565b610205610292366004612432565b610a1e565b6102196102a5366004612432565b610a40565b610219600b5481565b6102196102c1366004612432565b610d1a565b6102196102d436600461249f565b610e46565b610219600c5481565b6103097f000000000000000000000000000000000000000000000000000000000000000081565b6040516001600160a01b0390911681526020016101e9565b61021961032f3660046124b8565b6001600160a01b031660009081526020819052604090205490565b6103097f000000000000000000000000000000000000000000000000000000000000000081565b61021960085481565b6102196103883660046124b8565b610e79565b6101dc610e97565b6102196103a3366004612432565b610f65565b61021960095481565b6102056103bf366004612432565b6110a2565b6102056103d2366004612432565b61111d565b610219620f424081565b61023a6103ef3660046124e4565b61112b565b610219600a5481565b61021961040b366004612555565b61128f565b61023a6112ba565b60607f00000000000000000000000000000000000000000000000000000000000000006001600160a01b03166306fdde036040518163ffffffff1660e01b8152600401600060405180830381865afa92505050801561049957506040513d6000823e601f3d908101601f1916820160405261049691908101906125a4565b60015b6104db573d8080156104c7576040519150601f19603f3d011682016040523d82523d6000602084013e6104cc565b606091505b506104d56116f9565b91505090565b806040516020016104ec9190612646565b60405160208183030381529060405291505090565b60003361050f81858561178b565b60019150505b92915050565b6105236118af565b336001600160a01b037f000000000000000000000000000000000000000000000000000000000000000016146105a05760405162461bcd60e51b815260206004820152601960248201527f7265636f7665722f6e6f742d50726f667573696f6e42616e6b0000000000000060448201526064015b60405180910390fd5b6000198103610614576040516370a0823160e01b81523060048201526001600160a01b038416906370a0823190602401602060405180830381865afa1580156105ed573d6000803e3d6000fd5b505050506040513d601f19601f820116820180604052508101906106119190612671565b90505b6106286001600160a01b0384168383611908565b6106326001600755565b505050565b60006106416118af565b336001600160a01b037f000000000000000000000000000000000000000000000000000000000000000016146106b95760405162461bcd60e51b815260206004820152601760248201527f72657061792f6e6f742d50726f667573696f6e42616e6b0000000000000000006044820152606401610597565b6106c16112ba565b6040516370a0823160e01b815230600482015260009081906001600160a01b037f000000000000000000000000000000000000000000000000000000000000000016906370a0823190602401602060405180830381865afa15801561072a573d6000803e3d6000fd5b505050506040513d601f19601f8201168201806040525081019061074e9190612671565b90506107856001600160a01b037f00000000000000000000000000000000000000000000000000000000000000001686308761196b565b6040516370a0823160e01b81523060048201526000907f00000000000000000000000000000000000000000000000000000000000000006001600160a01b0316906370a0823190602401602060405180830381865afa1580156107ec573d6000803e3d6000fd5b505050506040513d601f19601f820116820180604052508101906108109190612671565b905061081c82826126a0565b92505050600b5481111561086a5760405162461bcd60e51b81526020600482015260156024820152740e4cae0c2f25ec2dadeeadce85ae8dede5ad0d2ced605b1b6044820152606401610597565b600b54600c5461087a90836126b3565b61088491906126ca565b915080600a600082825461089891906126ec565b9250508190555080600b60008282546108b191906126a0565b9250508190555081600c60008282546108ca91906126a0565b9091555050600c54620f424011156109245760405162461bcd60e51b815260206004820152601c60248201527f72657061792f746f6f2d6c6f772d73756d2d646562742d7368617265000000006044820152606401610597565b506105156001600755565b60003361093d8582856119a9565b610948858585611a1d565b506001949350505050565b60007f00000000000000000000000000000000000000000000000000000000000000006001600160a01b031663313ce5676040518163ffffffff1660e01b8152600401602060405180830381865afa9250505080156109cf575060408051601f3d908101601f191682019092526109cc918101906126ff565b60015b610a0a573d8080156109fd576040519150601f19603f3d011682016040523d82523d6000602084013e610a02565b606091505b5060126104d5565b919050565b6000610a19611bc1565b905090565b60003361050f818585610a31838361128f565b610a3b91906126ec565b61178b565b6000610a4a6118af565b610a526112ba565b6040516370a0823160e01b815230600482015260009081906001600160a01b037f000000000000000000000000000000000000000000000000000000000000000016906370a0823190602401602060405180830381865afa158015610abb573d6000803e3d6000fd5b505050506040513d601f19601f82011682018060405250810190610adf9190612671565b9050610b166001600160a01b037f00000000000000000000000000000000000000000000000000000000000000001633308761196b565b6040516370a0823160e01b81523060048201526000907f00000000000000000000000000000000000000000000000000000000000000006001600160a01b0316906370a0823190602401602060405180830381865afa158015610b7d573d6000803e3d6000fd5b505050506040513d601f19601f82011682018060405250810190610ba19190612671565b9050610bad82826126a0565b925050506000610bbc60025490565b905080600003610c3857610bd3620f4240836126a0565b925082600a6000828254610be791906126ec565b92505081905550620f4240600b6000828254610c0391906126ec565b92505081905550620f4240600c6000828254610c1f91906126ec565b90915550610c3390506001620f4240611ce8565b610c76565b600b54600a54610c4891906126ec565b610c5282846126b3565b610c5c91906126ca565b925081600a6000828254610c7091906126ec565b90915550505b60008311610cbe5760405162461bcd60e51b81526020600482015260156024820152741b5a5b9d0bdb9bcb58dc99591a5d0b5b5a5b9d1959605a1b6044820152606401610597565b610cc88584611ce8565b60408051858152602081018590526001600160a01b0387169133917f2f00e3cdd69a77be7ed215ec7b2a36784dd158f921fca79ac29deffa353fe6ee910160405180910390a350506105156001600755565b6000610d246118af565b336001600160a01b037f00000000000000000000000000000000000000000000000000000000000000001614610d9c5760405162461bcd60e51b815260206004820152601860248201527f626f72726f772f6e6f742d50726f667573696f6e42616e6b00000000000000006044820152606401610597565b610da46112ba565b610dd86001600160a01b037f0000000000000000000000000000000000000000000000000000000000000000168484611908565b610df1600c5483610de991906126b3565b600b54611da7565b905081600a6000828254610e0591906126a0565b9250508190555081600b6000828254610e1e91906126ec565b9250508190555080600c6000828254610e3791906126ec565b90915550506001600755610515565b6000610e506112ba565b81600003610e6057506000919050565b610515600b5483610e7191906126b3565b600c54611da7565b6001600160a01b038116600090815260056020526040812054610515565b60607f00000000000000000000000000000000000000000000000000000000000000006001600160a01b03166395d89b416040518163ffffffff1660e01b8152600401600060405180830381865afa925050508015610f1857506040513d6000823e601f3d908101601f19168201604052610f1591908101906125a4565b60015b610f54573d808015610f46576040519150601f19603f3d011682016040523d82523d6000602084013e610f4b565b606091505b506104d5611ddf565b806040516020016104ec919061271c565b6000610f6f6118af565b610f776112ba565b6000610f8260025490565b905080600b54600a54610f9591906126ec565b610f9f90856126b3565b610fa991906126ca565b915060008211610ffb5760405162461bcd60e51b815260206004820152601760248201527f6275726e2f6e6f2d616d6f756e742d72657475726e65640000000000000000006044820152606401610597565b81600a600082825461100d91906126a0565b9091555061101d90503384611dee565b6110516001600160a01b037f0000000000000000000000000000000000000000000000000000000000000000168584611908565b60408051838152602081018590526001600160a01b0386169133917f5d624aa9c148153ab3446c1b154f660ee7701e549fe9b62dab7171b1c80e6fa2910160405180910390a3506105156001600755565b600033816110b0828661128f565b9050838110156111105760405162461bcd60e51b815260206004820152602560248201527f45524332303a2064656372656173656420616c6c6f77616e63652062656c6f77604482015264207a65726f60d81b6064820152608401610597565b610948828686840361178b565b60003361050f818585611a1d565b8342111561117b5760405162461bcd60e51b815260206004820152601d60248201527f45524332305065726d69743a206578706972656420646561646c696e650000006044820152606401610597565b60007f6e71edae12b1b97f4d1f60370fef10105fa2faae0126114a169c64845d6126c98888886111aa8c611f20565b6040805160208101969096526001600160a01b0394851690860152929091166060840152608083015260a082015260c0810186905260e001604051602081830303815290604052805190602001209050600061120582611f48565b9050600061121582878787611f96565b9050896001600160a01b0316816001600160a01b0316146112785760405162461bcd60e51b815260206004820152601e60248201527f45524332305065726d69743a20696e76616c6964207369676e617475726500006044820152606401610597565b6112838a8a8a61178b565b50505050505050505050565b6001600160a01b03918216600090815260016020908152604080832093909416825291909152205490565b6000600954426112ca91906126a0565b9050806000036112d75750565b426009819055507f00000000000000000000000000000000000000000000000000000000000000006001600160a01b0316635c975abb6040518163ffffffff1660e01b8152600401602060405180830381865afa15801561133c573d6000803e3d6000fd5b505050506040513d601f19601f820116820180604052508101906113609190612746565b156113a45760405162461bcd60e51b8152602060048201526014602482015273141c9bd99d5cda5bdb90985b9acbdc185d5cd95960621b6044820152606401610597565b600b54600a54600854604080516379502c5560e01b815290516000916001600160a01b037f000000000000000000000000000000000000000000000000000000000000000016916379502c55916004808201926020929091908290030181865afa158015611416573d6000803e3d6000fd5b505050506040513d601f19601f8201168201806040525081019061143a9190612768565b905060007f00000000000000000000000000000000000000000000000000000000000000006001600160a01b031663ac165d7a6040518163ffffffff1660e01b8152600401602060405180830381865afa15801561149c573d6000803e3d6000fd5b505050506040513d601f19601f820116820180604052508101906114c09190612768565b90506000670de0b6b3a76400006301e13380886114dd89886126b3565b6114e791906126b3565b6114f191906126ca565b6114fb91906126ca565b905061150781876126ec565b600b81905560405163fae7f00d60e01b8152600481018690526024810187905260448101829052606481018990529096506001600160a01b0383169063fae7f00d90608401602060405180830381865afa158015611569573d6000803e3d6000fd5b505050506040513d601f19601f8201168201806040525081019061158d9190612671565b60085580156116f0576000836001600160a01b03166358d7bf806040518163ffffffff1660e01b8152600401602060405180830381865afa1580156115d6573d6000803e3d6000fd5b505050506040513d601f19601f820116820180604052508101906115fa9190612671565b905080156116bb576000670de0b6b3a764000061161783856126b3565b61162191906126ca565b90506116b9856001600160a01b031663914870eb6040518163ffffffff1660e01b8152600401602060405180830381865afa158015611664573d6000803e3d6000fd5b505050506040513d601f19601f820116820180604052508101906116889190612768565b826116938a8c6126ec565b61169d91906126a0565b6002546116aa90856126b3565b6116b491906126ca565b611ce8565b505b6040518281527f184f65042d0acee3fe9a2216428397968211b66a6f53244a44eb13ae62bc72359060200160405180910390a1505b50505050505050565b60606003805461170890612785565b80601f016020809104026020016040519081016040528092919081815260200182805461173490612785565b80156117815780601f1061175657610100808354040283529160200191611781565b820191906000526020600020905b81548152906001019060200180831161176457829003601f168201915b5050505050905090565b6001600160a01b0383166117ed5760405162461bcd60e51b8152602060048201526024808201527f45524332303a20617070726f76652066726f6d20746865207a65726f206164646044820152637265737360e01b6064820152608401610597565b6001600160a01b03821661184e5760405162461bcd60e51b815260206004820152602260248201527f45524332303a20617070726f766520746f20746865207a65726f206164647265604482015261737360f01b6064820152608401610597565b6001600160a01b0383811660008181526001602090815260408083209487168084529482529182902085905590518481527f8c5be1e5ebec7d5bd14f71427d1e84f3dd0314c0f7b2291e5b200ac8c7c3b925910160405180910390a3505050565b6002600754036119015760405162461bcd60e51b815260206004820152601f60248201527f5265656e7472616e637947756172643a207265656e7472616e742063616c6c006044820152606401610597565b6002600755565b6040516001600160a01b03831660248201526044810182905261063290849063a9059cbb60e01b906064015b60408051601f198184030181529190526020810180516001600160e01b03166001600160e01b031990931692909217909152611fc0565b6040516001600160a01b03808516602483015283166044820152606481018290526119a39085906323b872dd60e01b90608401611934565b50505050565b60006119b5848461128f565b905060001981146119a35781811015611a105760405162461bcd60e51b815260206004820152601d60248201527f45524332303a20696e73756666696369656e7420616c6c6f77616e63650000006044820152606401610597565b6119a3848484840361178b565b6001600160a01b038316611a815760405162461bcd60e51b815260206004820152602560248201527f45524332303a207472616e736665722066726f6d20746865207a65726f206164604482015264647265737360d81b6064820152608401610597565b6001600160a01b038216611ae35760405162461bcd60e51b815260206004820152602360248201527f45524332303a207472616e7366657220746f20746865207a65726f206164647260448201526265737360e81b6064820152608401610597565b6001600160a01b03831660009081526020819052604090205481811015611b5b5760405162461bcd60e51b815260206004820152602660248201527f45524332303a207472616e7366657220616d6f756e7420657863656564732062604482015265616c616e636560d01b6064820152608401610597565b6001600160a01b03848116600081815260208181526040808320878703905593871680835291849020805487019055925185815290927fddf252ad1be2c89b69c2b068fc378daa952ba7f163c4a11628f55a4df523b3ef910160405180910390a36119a3565b6000306001600160a01b037f000000000000000000000000000000000000000000000000000000000000000016148015611c1a57507f000000000000000000000000000000000000000000000000000000000000000046145b15611c4457507f000000000000000000000000000000000000000000000000000000000000000090565b50604080517f00000000000000000000000000000000000000000000000000000000000000006020808301919091527f0000000000000000000000000000000000000000000000000000000000000000828401527f000000000000000000000000000000000000000000000000000000000000000060608301524660808301523060a0808401919091528351808403909101815260c0909201909252805191012090565b6001600160a01b038216611d3e5760405162461bcd60e51b815260206004820152601f60248201527f45524332303a206d696e7420746f20746865207a65726f2061646472657373006044820152606401610597565b8060026000828254611d5091906126ec565b90915550506001600160a01b038216600081815260208181526040808320805486019055518481527fddf252ad1be2c89b69c2b068fc378daa952ba7f163c4a11628f55a4df523b3ef910160405180910390a35050565b60008215611dd55781611dbb6001856126a0565b611dc591906126ca565b611dd09060016126ec565b611dd8565b60005b9392505050565b60606004805461170890612785565b6001600160a01b038216611e4e5760405162461bcd60e51b815260206004820152602160248201527f45524332303a206275726e2066726f6d20746865207a65726f206164647265736044820152607360f81b6064820152608401610597565b6001600160a01b03821660009081526020819052604090205481811015611ec25760405162461bcd60e51b815260206004820152602260248201527f45524332303a206275726e20616d6f756e7420657863656564732062616c616e604482015261636560f01b6064820152608401610597565b6001600160a01b0383166000818152602081815260408083208686039055600280548790039055518581529192917fddf252ad1be2c89b69c2b068fc378daa952ba7f163c4a11628f55a4df523b3ef910160405180910390a3505050565b6001600160a01b03811660009081526005602052604090208054600181018255905b50919050565b6000610515611f55611bc1565b8360405161190160f01b6020820152602281018390526042810182905260009060620160405160208183030381529060405280519060200120905092915050565b6000806000611fa787878787612092565b91509150611fb481612156565b5090505b949350505050565b6000612015826040518060400160405280602081526020017f5361666545524332303a206c6f772d6c6576656c2063616c6c206661696c6564815250856001600160a01b03166122a39092919063ffffffff16565b80519091501561063257808060200190518101906120339190612746565b6106325760405162461bcd60e51b815260206004820152602a60248201527f5361666545524332303a204552433230206f7065726174696f6e20646964206e6044820152691bdd081cdd58d8d9595960b21b6064820152608401610597565b6000807f7fffffffffffffffffffffffffffffff5d576e7357a4501ddfe92f46681b20a08311156120c9575060009050600361214d565b6040805160008082526020820180845289905260ff881692820192909252606081018690526080810185905260019060a0016020604051602081039080840390855afa15801561211d573d6000803e3d6000fd5b5050604051601f1901519150506001600160a01b0381166121465760006001925092505061214d565b9150600090505b94509492505050565b600081600481111561216a5761216a6127b9565b036121725750565b6001816004811115612186576121866127b9565b036121d35760405162461bcd60e51b815260206004820152601860248201527f45434453413a20696e76616c6964207369676e617475726500000000000000006044820152606401610597565b60028160048111156121e7576121e76127b9565b036122345760405162461bcd60e51b815260206004820152601f60248201527f45434453413a20696e76616c6964207369676e6174757265206c656e677468006044820152606401610597565b6003816004811115612248576122486127b9565b036122a05760405162461bcd60e51b815260206004820152602260248201527f45434453413a20696e76616c6964207369676e6174757265202773272076616c604482015261756560f01b6064820152608401610597565b50565b6060611fb8848460008585600080866001600160a01b031685876040516122ca91906127cf565b60006040518083038185875af1925050503d8060008114612307576040519150601f19603f3d011682016040523d82523d6000602084013e61230c565b606091505b509150915061231d87838387612328565b979650505050505050565b60608315612397578251600003612390576001600160a01b0385163b6123905760405162461bcd60e51b815260206004820152601d60248201527f416464726573733a2063616c6c20746f206e6f6e2d636f6e74726163740000006044820152606401610597565b5081611fb8565b611fb883838151156123ac5781518083602001fd5b8060405162461bcd60e51b815260040161059791906123ea565b60005b838110156123e15781810151838201526020016123c9565b50506000910152565b60208152600082518060208401526124098160408501602087016123c6565b601f01601f19169190910160400192915050565b6001600160a01b03811681146122a057600080fd5b6000806040838503121561244557600080fd5b82356124508161241d565b946020939093013593505050565b60008060006060848603121561247357600080fd5b833561247e8161241d565b9250602084013561248e8161241d565b929592945050506040919091013590565b6000602082840312156124b157600080fd5b5035919050565b6000602082840312156124ca57600080fd5b8135611dd88161241d565b60ff811681146122a057600080fd5b600080600080600080600060e0888a0312156124ff57600080fd5b873561250a8161241d565b9650602088013561251a8161241d565b955060408801359450606088013593506080880135612538816124d5565b9699959850939692959460a0840135945060c09093013592915050565b6000806040838503121561256857600080fd5b82356125738161241d565b915060208301356125838161241d565b809150509250929050565b634e487b7160e01b600052604160045260246000fd5b6000602082840312156125b657600080fd5b815167ffffffffffffffff808211156125ce57600080fd5b818401915084601f8301126125e257600080fd5b8151818111156125f4576125f461258e565b604051601f8201601f19908116603f0116810190838211818310171561261c5761261c61258e565b8160405282815287602084870101111561263557600080fd5b61231d8360208301602088016123c6565b6202823160ed1b8152600082516126648160038501602087016123c6565b9190910160030192915050565b60006020828403121561268357600080fd5b5051919050565b634e487b7160e01b600052601160045260246000fd5b818103818111156105155761051561268a565b80820281158282048414176105155761051561268a565b6000826126e757634e487b7160e01b600052601260045260246000fd5b500490565b808201808211156105155761051561268a565b60006020828403121561271157600080fd5b8151611dd8816124d5565b61383360f11b8152600082516127398160028501602087016123c6565b9190910160020192915050565b60006020828403121561275857600080fd5b81518015158114611dd857600080fd5b60006020828403121561277a57600080fd5b8151611dd88161241d565b600181811c9082168061279957607f821691505b602082108103611f4257634e487b7160e01b600052602260045260246000fd5b634e487b7160e01b600052602160045260246000fd5b600082516127e18184602087016123c6565b919091019291505056fea2646970667358221220e0fd0b4571165ab48c80d83047c985e8c176bd24c80ff3803d48f9ebf9269d7564736f6c63430008130033a2646970667358221220b7dbdb22790d7cd6b04b5c0bf4c8cb5f761d8f4ac372c6b8a88df1b350ea912964736f6c63430008130033",
    "linkReferences": {}
  },
  "methodIdentifiers": {
    "bTokenFor(address,address)": "aea443db",
    "deploy(address)": "4c96a389"
  },
  "id": 36
}