{
  "abi": [
    {
      "inputs": [
        {
          "internalType": "uint256",
          "name": "_initialRate",
          "type": "uint256"
        },
        {
          "internalType": "uint256",
          "name": "_minRate",
          "type": "uint256"
        },
        {
          "internalType": "uint256",
          "name": "_maxRate",
          "type": "uint256"
        },
        {
          "internalType": "uint256",
          "name": "_adjustRate",
          "type": "uint256"
        }
      ],
      "stateMutability": "nonpayable",
      "type": "constructor"
    },
    {
      "inputs": [],
      "name": "adjustRate",
      "outputs": [
        {
          "internalType": "uint256",
          "name": "",
          "type": "uint256"
        }
      ],
      "stateMutability": "view",
      "type": "function"
    },
    {
      "inputs": [
        {
          "internalType": "uint256",
          "name": "prevRate",
          "type": "uint256"
        },
        {
          "internalType": "uint256",
          "name": "totalAvailable",
          "type": "uint256"
        },
        {
          "internalType": "uint256",
          "name": "totalLoan",
          "type": "uint256"
        },
        {
          "internalType": "uint256",
          "name": "timePassed",
          "type": "uint256"
        }
      ],
      "name": "getNextInterestRate",
      "outputs": [
        {
          "internalType": "uint256",
          "name": "",
          "type": "uint256"
        }
      ],
      "stateMutability": "view",
      "type": "function"
    },
    {
      "inputs": [],
      "name": "initialRate",
      "outputs": [
        {
          "internalType": "uint256",
          "name": "",
          "type": "uint256"
        }
      ],
      "stateMutability": "view",
      "type": "function"
    },
    {
      "inputs": [],
      "name": "maxRate",
      "outputs": [
        {
          "internalType": "uint256",
          "name": "",
          "type": "uint256"
        }
      ],
      "stateMutability": "view",
      "type": "function"
    },
    {
      "inputs": [],
      "name": "minRate",
      "outputs": [
        {
          "internalType": "uint256",
          "name": "",
          "type": "uint256"
        }
      ],
      "stateMutability": "view",
      "type": "function"
    }
  ],
  "bytecode": {
    "object": "0x61010060405234801561001157600080fd5b5060405161065f38038061065f833981016040819052610030916100f2565b8183106100845760405162461bcd60e51b815260206004820152601c60248201527f636f6e7374727563746f722f6261642d6d696e2d6d61782d726174650000000060448201526064015b60405180910390fd5b670de0b6b3a764000081106100db5760405162461bcd60e51b815260206004820152601b60248201527f636f6e7374727563746f722f6261642d61646a7573742d726174650000000000604482015260640161007b565b60809390935260a09190915260c05260e052610128565b6000806000806080858703121561010857600080fd5b505082516020840151604085015160609095015191969095509092509050565b60805160a05160c05160e0516104df6101806000396000818160e8015281816101860152818161021201526102be01526000818160c101526103a50152600081816061015261037f01526000609a01526104df6000f3fe608060405234801561001057600080fd5b50600436106100575760003560e01c80630cb604431461005c5780639e51051f14610095578063ece1d6e5146100bc578063f467d759146100e3578063fae7f00d1461010a575b600080fd5b6100837f000000000000000000000000000000000000000000000000000000000000000081565b60405190815260200160405180910390f35b6100837f000000000000000000000000000000000000000000000000000000000000000081565b6100837f000000000000000000000000000000000000000000000000000000000000000081565b6100837f000000000000000000000000000000000000000000000000000000000000000081565b610083610118366004610402565b600080610125848661044a565b90508060000361013857859150506103d1565b60008161014d86670de0b6b3a764000061045d565b6101579190610474565b9050600061016885620151806103d9565b905060006706f05b59d3b200008310156101cd57620151806101aa837f000000000000000000000000000000000000000000000000000000000000000061045d565b6101b49190610474565b6101c690670de0b6b3a7640000610496565b9050610355565b6709b6e64a8ec6000083101561026e5760006101f1846709b6e64a8ec60000610496565b6101fc90600561045d565b9050670de0b6b3a76400006201518084610236847f000000000000000000000000000000000000000000000000000000000000000061045d565b610240919061045d565b61024a9190610474565b6102549190610474565b61026690670de0b6b3a7640000610496565b915050610355565b670b1a2bc2ec50000083101561028d5750670de0b6b3a7640000610355565b60006102a1670b1a2bc2ec50000085610496565b6102ac90600561045d565b90506000670de0b6b3a76400006102e37f000000000000000000000000000000000000000000000000000000000000000082610496565b6102fc906ec097ce7bc90715b34b9f1000000000610474565b6103069190610496565b9050670de0b6b3a76400006201518085610320858561045d565b61032a919061045d565b6103349190610474565b61033e9190610474565b61035090670de0b6b3a764000061044a565b925050505b6000670de0b6b3a764000061036a838c61045d565b6103749190610474565b90506103c96103a3827f00000000000000000000000000000000000000000000000000000000000000006103f3565b7f00000000000000000000000000000000000000000000000000000000000000006103d9565b955050505050505b949350505050565b60008183106103e857816103ea565b825b90505b92915050565b60008183116103e857816103ea565b6000806000806080858703121561041857600080fd5b5050823594602084013594506040840135936060013592509050565b634e487b7160e01b600052601160045260246000fd5b808201808211156103ed576103ed610434565b80820281158282048414176103ed576103ed610434565b60008261049157634e487b7160e01b600052601260045260246000fd5b500490565b818103818111156103ed576103ed61043456fea2646970667358221220db3ee765bf106b68178af144fa871f1850634e6787123d6fba00875d9a84bb7e64736f6c63430008130033",
    "linkReferences": {}
  },
  "methodIdentifiers": {
    "adjustRate()": "f467d759",
    "getNextInterestRate(uint256,uint256,uint256,uint256)": "fae7f00d",
    "initialRate()": "9e51051f",
    "maxRate()": "ece1d6e5",
    "minRate()": "0cb60443"
  },
  "id": 39
}