{
  "abi": [
    {
      "inputs": [
        {
          "internalType": "address",
          "name": "_pfweth",
          "type": "address"
        }
      ],
      "stateMutability": "nonpayable",
      "type": "constructor"
    },
    {
      "inputs": [
        {
          "internalType": "address",
          "name": "_to",
          "type": "address"
        },
        {
          "internalType": "uint256",
          "name": "_credit",
          "type": "uint256"
        }
      ],
      "name": "burn",
      "outputs": [
        {
          "internalType": "uint256",
          "name": "amount",
          "type": "uint256"
        }
      ],
      "stateMutability": "nonpayable",
      "type": "function"
    },
    {
      "inputs": [
        {
          "internalType": "address",
          "name": "_to",
          "type": "address"
        },
        {
          "internalType": "uint256",
          "name": "_credit",
          "type": "uint256"
        },
        {
          "internalType": "uint256",
          "name": "_approve",
          "type": "uint256"
        },
        {
          "internalType": "uint256",
          "name": "_deadline",
          "type": "uint256"
        },
        {
          "internalType": "uint8",
          "name": "_v",
          "type": "uint8"
        },
        {
          "internalType": "bytes32",
          "name": "_r",
          "type": "bytes32"
        },
        {
          "internalType": "bytes32",
          "name": "_s",
          "type": "bytes32"
        }
      ],
      "name": "burnWithPermit",
      "outputs": [
        {
          "internalType": "uint256",
          "name": "amount",
          "type": "uint256"
        }
      ],
      "stateMutability": "nonpayable",
      "type": "function"
    },
    {
      "inputs": [
        {
          "internalType": "address",
          "name": "_to",
          "type": "address"
        }
      ],
      "name": "mint",
      "outputs": [
        {
          "internalType": "uint256",
          "name": "credit",
          "type": "uint256"
        }
      ],
      "stateMutability": "payable",
      "type": "function"
    },
    {
      "inputs": [],
      "name": "pfweth",
      "outputs": [
        {
          "internalType": "address",
          "name": "",
          "type": "address"
        }
      ],
      "stateMutability": "view",
      "type": "function"
    },
    {
      "inputs": [],
      "name": "weth",
      "outputs": [
        {
          "internalType": "address",
          "name": "",
          "type": "address"
        }
      ],
      "stateMutability": "view",
      "type": "function"
    },
    {
      "stateMutability": "payable",
      "type": "receive"
    }
  ],
  "bytecode": {
    "object": "0x60c06040523480156200001157600080fd5b5060405162000fcb38038062000fcb833981016040819052620000349162000495565b6000816001600160a01b0316636f307dc36040518163ffffffff1660e01b8152600401602060405180830381865afa15801562000075573d6000803e3d6000fd5b505050506040513d601f19601f820116820180604052508101906200009b919062000495565b9050620000b56001600160a01b03821683600019620000cd565b6001600160a01b039182166080521660a0526200057e565b8015806200014b5750604051636eb1769f60e11b81523060048201526001600160a01b03838116602483015284169063dd62ed3e90604401602060405180830381865afa15801562000123573d6000803e3d6000fd5b505050506040513d601f19601f82011682018060405250810190620001499190620004c7565b155b620001c35760405162461bcd60e51b815260206004820152603660248201527f5361666545524332303a20617070726f76652066726f6d206e6f6e2d7a65726f60448201527f20746f206e6f6e2d7a65726f20616c6c6f77616e63650000000000000000000060648201526084015b60405180910390fd5b604080516001600160a01b038416602482015260448082018490528251808303909101815260649091019091526020810180516001600160e01b0390811663095ea7b360e01b179091526200021b9185916200022016565b505050565b6040805180820190915260208082527f5361666545524332303a206c6f772d6c6576656c2063616c6c206661696c6564908201526000906200026f906001600160a01b038516908490620002f1565b8051909150156200021b5780806020019051810190620002909190620004e1565b6200021b5760405162461bcd60e51b815260206004820152602a60248201527f5361666545524332303a204552433230206f7065726174696f6e20646964206e6044820152691bdd081cdd58d8d9595960b21b6064820152608401620001ba565b60606200030284846000856200030a565b949350505050565b6060824710156200036d5760405162461bcd60e51b815260206004820152602660248201527f416464726573733a20696e73756666696369656e742062616c616e636520666f6044820152651c8818d85b1b60d21b6064820152608401620001ba565b600080866001600160a01b031685876040516200038b91906200052b565b60006040518083038185875af1925050503d8060008114620003ca576040519150601f19603f3d011682016040523d82523d6000602084013e620003cf565b606091505b509092509050620003e387838387620003ee565b979650505050505050565b60608315620004625782516000036200045a576001600160a01b0385163b6200045a5760405162461bcd60e51b815260206004820152601d60248201527f416464726573733a2063616c6c20746f206e6f6e2d636f6e74726163740000006044820152606401620001ba565b508162000302565b620003028383815115620004795781518083602001fd5b8060405162461bcd60e51b8152600401620001ba919062000549565b600060208284031215620004a857600080fd5b81516001600160a01b0381168114620004c057600080fd5b9392505050565b600060208284031215620004da57600080fd5b5051919050565b600060208284031215620004f457600080fd5b81518015158114620004c057600080fd5b60005b838110156200052257818101518382015260200162000508565b50506000910152565b600082516200053f81846020870162000505565b9190910192915050565b60208152600082518060208401526200056a81604085016020870162000505565b601f01601f19169190910160400192915050565b60805160a0516109f8620005d360003960008181605e0152818160d1015281816102660152610452015260008181610163015281816101e8015281816102fa0152818161038001526103c401526109f86000f3fe60806040526004361061004e5760003560e01c80633fc8cef3146100bf57806361359f69146101105780636a6278421461013e5780637e9cdb48146101515780639dc29fac1461018557600080fd5b366100ba57336001600160a01b037f000000000000000000000000000000000000000000000000000000000000000016146100b85760405162461bcd60e51b8152602060048201526005602482015264042eecae8d60db1b60448201526064015b60405180910390fd5b005b600080fd5b3480156100cb57600080fd5b506100f37f000000000000000000000000000000000000000000000000000000000000000081565b6040516001600160a01b0390911681526020015b60405180910390f35b34801561011c57600080fd5b5061013061012b36600461085c565b6101a5565b604051908152602001610107565b61013061014c3660046108c8565b610262565b34801561015d57600080fd5b506100f37f000000000000000000000000000000000000000000000000000000000000000081565b34801561019157600080fd5b506101306101a03660046108ea565b610371565b60405163d505accf60e01b8152336004820152306024820152604481018690526064810185905260ff8416608482015260a4810183905260c481018290526000907f00000000000000000000000000000000000000000000000000000000000000006001600160a01b03169063d505accf9060e401600060405180830381600087803b15801561023457600080fd5b505af1158015610248573d6000803e3d6000fd5b505050506102568888610371565b98975050505050505050565b60007f00000000000000000000000000000000000000000000000000000000000000006001600160a01b031663d0e30db0346040518263ffffffff1660e01b81526004016000604051808303818588803b1580156102bf57600080fd5b505af11580156102d3573d6000803e3d6000fd5b50506040516340c10f1960e01b81526001600160a01b0386811660048301523460248301527f00000000000000000000000000000000000000000000000000000000000000001693506340c10f19925060440190506020604051808303816000875af1158015610347573d6000803e3d6000fd5b505050506040513d601f19601f8201168201806040525081019061036b9190610914565b92915050565b60006103a86001600160a01b037f000000000000000000000000000000000000000000000000000000000000000016333085610579565b604051632770a7eb60e21b8152306004820152602481018390527f00000000000000000000000000000000000000000000000000000000000000006001600160a01b031690639dc29fac906044016020604051808303816000875af1158015610415573d6000803e3d6000fd5b505050506040513d601f19601f820116820180604052508101906104399190610914565b604051632e1a7d4d60e01b8152600481018290529091507f00000000000000000000000000000000000000000000000000000000000000006001600160a01b031690632e1a7d4d90602401600060405180830381600087803b15801561049e57600080fd5b505af11580156104b2573d6000803e3d6000fd5b5050604080516000808252602082019283905293506001600160a01b038716925084916104df9190610951565b60006040518083038185875af1925050503d806000811461051c576040519150601f19603f3d011682016040523d82523d6000602084013e610521565b606091505b50509050806105725760405162461bcd60e51b815260206004820152601860248201527f6275726e2f6574682d7472616e736665722d6661696c6564000000000000000060448201526064016100af565b5092915050565b604080516001600160a01b0385811660248301528416604482015260648082018490528251808303909101815260849091019091526020810180516001600160e01b03166323b872dd60e01b1790526105d39085906105d9565b50505050565b600061062e826040518060400160405280602081526020017f5361666545524332303a206c6f772d6c6576656c2063616c6c206661696c6564815250856001600160a01b03166106b09092919063ffffffff16565b8051909150156106ab578080602001905181019061064c919061096d565b6106ab5760405162461bcd60e51b815260206004820152602a60248201527f5361666545524332303a204552433230206f7065726174696f6e20646964206e6044820152691bdd081cdd58d8d9595960b21b60648201526084016100af565b505050565b60606106bf84846000856106c7565b949350505050565b6060824710156107285760405162461bcd60e51b815260206004820152602660248201527f416464726573733a20696e73756666696369656e742062616c616e636520666f6044820152651c8818d85b1b60d21b60648201526084016100af565b600080866001600160a01b031685876040516107449190610951565b60006040518083038185875af1925050503d8060008114610781576040519150601f19603f3d011682016040523d82523d6000602084013e610786565b606091505b5091509150610797878383876107a2565b979650505050505050565b6060831561081157825160000361080a576001600160a01b0385163b61080a5760405162461bcd60e51b815260206004820152601d60248201527f416464726573733a2063616c6c20746f206e6f6e2d636f6e747261637400000060448201526064016100af565b50816106bf565b6106bf83838151156108265781518083602001fd5b8060405162461bcd60e51b81526004016100af919061098f565b80356001600160a01b038116811461085757600080fd5b919050565b600080600080600080600060e0888a03121561087757600080fd5b61088088610840565b9650602088013595506040880135945060608801359350608088013560ff811681146108ab57600080fd5b9699959850939692959460a0840135945060c09093013592915050565b6000602082840312156108da57600080fd5b6108e382610840565b9392505050565b600080604083850312156108fd57600080fd5b61090683610840565b946020939093013593505050565b60006020828403121561092657600080fd5b5051919050565b60005b83811015610948578181015183820152602001610930565b50506000910152565b6000825161096381846020870161092d565b9190910192915050565b60006020828403121561097f57600080fd5b815180151581146108e357600080fd5b60208152600082518060208401526109ae81604085016020870161092d565b601f01601f1916919091016040019291505056fea26469706673582212207cf916b20a6fa987d73a65793135430fb0c98851dcd8a0f211e394fbda9a747064736f6c63430008130033",
    "linkReferences": {}
  },
  "methodIdentifiers": {
    "burn(address,uint256)": "9dc29fac",
    "burnWithPermit(address,uint256,uint256,uint256,uint8,bytes32,bytes32)": "61359f69",
    "mint(address)": "6a627842",
    "pfweth()": "7e9cdb48",
    "weth()": "3fc8cef3"
  },
  "id": 47
}