{
  "abi": [
    {
      "inputs": [
        {
          "internalType": "address",
          "name": "_profusionBank",
          "type": "address"
        },
        {
          "internalType": "address",
          "name": "_weth",
          "type": "address"
        },
        {
          "internalType": "address",
          "name": "_factory",
          "type": "address"
        },
        {
          "internalType": "bytes32",
          "name": "_codeHash",
          "type": "bytes32"
        }
      ],
      "stateMutability": "nonpayable",
      "type": "constructor"
    },
    {
      "anonymous": false,
      "inputs": [
        {
          "indexed": true,
          "internalType": "address",
          "name": "previousOwner",
          "type": "address"
        },
        {
          "indexed": true,
          "internalType": "address",
          "name": "newOwner",
          "type": "address"
        }
      ],
      "name": "OwnershipTransferred",
      "type": "event"
    },
    {
      "inputs": [
        {
          "internalType": "uint256",
          "name": "_pid",
          "type": "uint256"
        },
        {
          "internalType": "uint256",
          "name": "_amountRepay",
          "type": "uint256"
        },
        {
          "internalType": "uint256",
          "name": "_amountTake",
          "type": "uint256"
        },
        {
          "internalType": "address[]",
          "name": "_path",
          "type": "address[]"
        },
        {
          "internalType": "uint256",
          "name": "_amountInMax",
          "type": "uint256"
        }
      ],
      "name": "close",
      "outputs": [],
      "stateMutability": "payable",
      "type": "function"
    },
    {
      "inputs": [],
      "name": "codeHash",
      "outputs": [
        {
          "internalType": "bytes32",
          "name": "",
          "type": "bytes32"
        }
      ],
      "stateMutability": "view",
      "type": "function"
    },
    {
      "inputs": [],
      "name": "factory",
      "outputs": [
        {
          "internalType": "address",
          "name": "",
          "type": "address"
        }
      ],
      "stateMutability": "view",
      "type": "function"
    },
    {
      "inputs": [],
      "name": "owner",
      "outputs": [
        {
          "internalType": "address",
          "name": "",
          "type": "address"
        }
      ],
      "stateMutability": "view",
      "type": "function"
    },
    {
      "inputs": [
        {
          "internalType": "address",
          "name": "sender",
          "type": "address"
        },
        {
          "internalType": "uint256",
          "name": "",
          "type": "uint256"
        },
        {
          "internalType": "uint256",
          "name": "",
          "type": "uint256"
        },
        {
          "internalType": "bytes",
          "name": "data",
          "type": "bytes"
        }
      ],
      "name": "pancakeCall",
      "outputs": [],
      "stateMutability": "nonpayable",
      "type": "function"
    },
    {
      "inputs": [],
      "name": "profusionBank",
      "outputs": [
        {
          "internalType": "address",
          "name": "",
          "type": "address"
        }
      ],
      "stateMutability": "view",
      "type": "function"
    },
    {
      "inputs": [
        {
          "internalType": "address",
          "name": "_token",
          "type": "address"
        },
        {
          "internalType": "uint256",
          "name": "_amount",
          "type": "uint256"
        }
      ],
      "name": "recover",
      "outputs": [],
      "stateMutability": "nonpayable",
      "type": "function"
    },
    {
      "inputs": [
        {
          "internalType": "uint256",
          "name": "_amount",
          "type": "uint256"
        }
      ],
      "name": "recoverETH",
      "outputs": [],
      "stateMutability": "nonpayable",
      "type": "function"
    },
    {
      "inputs": [],
      "name": "renounceOwnership",
      "outputs": [],
      "stateMutability": "nonpayable",
      "type": "function"
    },
    {
      "inputs": [
        {
          "internalType": "uint256",
          "name": "_pid",
          "type": "uint256"
        },
        {
          "internalType": "uint256",
          "name": "_amountBorrow",
          "type": "uint256"
        },
        {
          "internalType": "uint256",
          "name": "_amountPutExtra",
          "type": "uint256"
        },
        {
          "internalType": "address[]",
          "name": "_path",
          "type": "address[]"
        },
        {
          "internalType": "uint256",
          "name": "_amountOutMin",
          "type": "uint256"
        }
      ],
      "name": "short",
      "outputs": [],
      "stateMutability": "payable",
      "type": "function"
    },
    {
      "inputs": [
        {
          "internalType": "address",
          "name": "newOwner",
          "type": "address"
        }
      ],
      "name": "transferOwnership",
      "outputs": [],
      "stateMutability": "nonpayable",
      "type": "function"
    },
    {
      "inputs": [
        {
          "internalType": "address",
          "name": "sender",
          "type": "address"
        },
        {
          "internalType": "uint256",
          "name": "",
          "type": "uint256"
        },
        {
          "internalType": "uint256",
          "name": "",
          "type": "uint256"
        },
        {
          "internalType": "bytes",
          "name": "data",
          "type": "bytes"
        }
      ],
      "name": "uniswapV2Call",
      "outputs": [],
      "stateMutability": "nonpayable",
      "type": "function"
    },
    {
      "inputs": [],
      "name": "weth",
      "outputs": [
        {
          "internalType": "address",
          "name": "",
          "type": "address"
        }
      ],
      "stateMutability": "view",
      "type": "function"
    },
    {
      "stateMutability": "payable",
      "type": "receive"
    }
  ],
  "bytecode": {
    "object": "0x610100604052600180546001600160a01b031916602a1790553480156200002557600080fd5b506040516200374e3803806200374e8339810160408190526200004891620005ac565b838362000055336200017b565b60405163190676f760e31b81526001600160a01b0382811660048301526000919084169063c833b7b890602401602060405180830381865afa158015620000a0573d6000803e3d6000fd5b505050506040513d601f19601f82011682018060405250810190620000c69190620005fe565b90506001600160a01b038116620001245760405162461bcd60e51b815260206004820152601c60248201527f50726f667573696f6e52756e6e6572426173652f6e6f2d62776574680000000060448201526064015b60405180910390fd5b6200013c6001600160a01b03831684600019620001cb565b620001546001600160a01b03831682600019620001cb565b506001600160a01b03918216608052811660a0529190911660c05260e05250620006da9050565b600080546001600160a01b038381166001600160a01b0319831681178455604051919092169283917f8be0079c531659141344cd1fd0a4f28419497f9722a3daafe3b4186f6b6457e09190a35050565b801580620002495750604051636eb1769f60e11b81523060048201526001600160a01b03838116602483015284169063dd62ed3e90604401602060405180830381865afa15801562000221573d6000803e3d6000fd5b505050506040513d601f19601f8201168201806040525081019062000247919062000623565b155b620002bd5760405162461bcd60e51b815260206004820152603660248201527f5361666545524332303a20617070726f76652066726f6d206e6f6e2d7a65726f60448201527f20746f206e6f6e2d7a65726f20616c6c6f77616e63650000000000000000000060648201526084016200011b565b604080516001600160a01b038416602482015260448082018490528251808303909101815260649091019091526020810180516001600160e01b0390811663095ea7b360e01b17909152620003159185916200031a16565b505050565b6040805180820190915260208082527f5361666545524332303a206c6f772d6c6576656c2063616c6c206661696c65649082015260009062000369906001600160a01b038516908490620003eb565b8051909150156200031557808060200190518101906200038a91906200063d565b620003155760405162461bcd60e51b815260206004820152602a60248201527f5361666545524332303a204552433230206f7065726174696f6e20646964206e6044820152691bdd081cdd58d8d9595960b21b60648201526084016200011b565b6060620003fc848460008562000404565b949350505050565b606082471015620004675760405162461bcd60e51b815260206004820152602660248201527f416464726573733a20696e73756666696369656e742062616c616e636520666f6044820152651c8818d85b1b60d21b60648201526084016200011b565b600080866001600160a01b0316858760405162000485919062000687565b60006040518083038185875af1925050503d8060008114620004c4576040519150601f19603f3d011682016040523d82523d6000602084013e620004c9565b606091505b509092509050620004dd87838387620004e8565b979650505050505050565b606083156200055c57825160000362000554576001600160a01b0385163b620005545760405162461bcd60e51b815260206004820152601d60248201527f416464726573733a2063616c6c20746f206e6f6e2d636f6e747261637400000060448201526064016200011b565b5081620003fc565b620003fc8383815115620005735781518083602001fd5b8060405162461bcd60e51b81526004016200011b9190620006a5565b80516001600160a01b0381168114620005a757600080fd5b919050565b60008060008060808587031215620005c357600080fd5b620005ce856200058f565b9350620005de602086016200058f565b9250620005ee604086016200058f565b6060959095015193969295505050565b6000602082840312156200061157600080fd5b6200061c826200058f565b9392505050565b6000602082840312156200063657600080fd5b5051919050565b6000602082840312156200065057600080fd5b815180151581146200061c57600080fd5b60005b838110156200067e57818101518382015260200162000664565b50506000910152565b600082516200069b81846020870162000661565b9190910192915050565b6020815260008251806020840152620006c681604085016020870162000661565b601f01601f19169190910160400192915050565b60805160a05160c05160e051612fbd620007916000396000818161018701526115000152600081816102d401526114ce01526000818160d6015281816101ce015281816110b20152818161119f01528181611f530152611fa00152600081816102620152818161164a015281816118bc0152818161195b01528181611a5401528181611b2101528181611b5d01528181611bdd01528181611c7d01528181611d7501528181611e5a0152611eda0152612fbd6000f3fe6080604052600436106100c65760003560e01c8063715018a61161007f5780638da5cb5b116100595780638da5cb5b146102a4578063c45a0155146102c2578063d3335553146102f6578063f2fde38b1461031657600080fd5b8063715018a61461023b57806373535cbc14610250578063848008121461028457600080fd5b806310d1e85c14610142578063128681551461016257806318edaaf2146101755780633fc8cef3146101bc5780635705ae4314610208578063630d24931461022857600080fd5b3661013d57336001600160a01b037f0000000000000000000000000000000000000000000000000000000000000000161461013b5760405162461bcd60e51b815260206004820152601060248201526f0e4cac6cad2ecca5edcdee85aeecae8d60831b60448201526064015b60405180910390fd5b005b600080fd5b34801561014e57600080fd5b5061013b61015d3660046128ca565b610336565b61013b610170366004612a68565b6103b6565b34801561018157600080fd5b506101a97f000000000000000000000000000000000000000000000000000000000000000081565b6040519081526020015b60405180910390f35b3480156101c857600080fd5b506101f07f000000000000000000000000000000000000000000000000000000000000000081565b6040516001600160a01b0390911681526020016101b3565b34801561021457600080fd5b5061013b610223366004612aca565b6106bc565b61013b610236366004612a68565b610750565b34801561024757600080fd5b5061013b61096d565b34801561025c57600080fd5b506101f07f000000000000000000000000000000000000000000000000000000000000000081565b34801561029057600080fd5b5061013b61029f3660046128ca565b610981565b3480156102b057600080fd5b506000546001600160a01b03166101f0565b3480156102ce57600080fd5b506101f07f000000000000000000000000000000000000000000000000000000000000000081565b34801561030257600080fd5b5061013b610311366004612af6565b6109e9565b34801561032257600080fd5b5061013b610331366004612b0f565b610ab1565b6001546001600160a01b0316321461034d57600080fd5b6001600160a01b03851630146103a55760405162461bcd60e51b815260206004820152601860248201527f756e6973776170563243616c6c2f6261642d73656e64657200000000000000006044820152606401610132565b6103af8282610b2a565b5050505050565b3332146104055760405162461bcd60e51b815260206004820152601b60248201527f50726f667573696f6e52756e6e6572426173652f6e6f742d656f6100000000006044820152606401610132565b6001546001600160a01b0316602a1461041d57600080fd5b600180546001600160a01b0319163317815582516104609184916104419190612b42565b8151811061045157610451612b55565b602002602001015133856110b0565b600061046c85846112f5565b905081816001835161047e9190612b42565b8151811061048e5761048e612b55565b602002602001015110156104db5760405162461bcd60e51b81526020600482015260146024820152731cda1bdc9d0bdb9bdd0b595b9bdd59da0b5bdd5d60621b6044820152606401610132565b610519836000815181106104f1576104f1612b55565b60200260200101518460018151811061050c5761050c612b55565b602002602001015161146d565b6001600160a01b031663022c0d9f8460018151811061053a5761053a612b55565b60200260200101516001600160a01b03168560008151811061055e5761055e612b55565b60200260200101516001600160a01b031610610594578260018151811061058757610587612b55565b6020026020010151610597565b60005b856001815181106105aa576105aa612b55565b60200260200101516001600160a01b0316866000815181106105ce576105ce612b55565b60200260200101516001600160a01b0316106105eb576000610607565b836001815181106105fe576105fe612b55565b60200260200101515b3060405180608001604052808c81526020016106228b611549565b8152602001898152602001878152506040516020016106419190612ba6565b6040516020818303038152906040526040518563ffffffff1660e01b815260040161066f9493929190612c79565b600060405180830381600087803b15801561068957600080fd5b505af115801561069d573d6000803e3d6000fd5b5050600180546001600160a01b031916602a1790555050505050505050565b6106c461155f565b6000198103610738576040516370a0823160e01b81523060048201526001600160a01b038316906370a0823190602401602060405180830381865afa158015610711573d6000803e3d6000fd5b505050506040513d601f19601f820116820180604052508101906107359190612ca6565b90505b61074c6001600160a01b03831633836115b9565b5050565b33321461079f5760405162461bcd60e51b815260206004820152601b60248201527f50726f667573696f6e52756e6e6572426173652f6e6f742d656f6100000000006044820152606401610132565b6001546001600160a01b0316602a146107b757600080fd5b600180546001600160a01b031916339081179091556107d790868661161c565b935060006107e585846116c5565b905081816000815181106107fb576107fb612b55565b602002602001015111156108455760405162461bcd60e51b815260206004820152601160248201527031b637b9b297ba37b796b6bab1b416b4b760791b6044820152606401610132565b61085b836000815181106104f1576104f1612b55565b6001600160a01b031663022c0d9f8460018151811061087c5761087c612b55565b60200260200101516001600160a01b0316856000815181106108a0576108a0612b55565b60200260200101516001600160a01b0316106108d657826001815181106108c9576108c9612b55565b60200260200101516108d9565b60005b856001815181106108ec576108ec612b55565b60200260200101516001600160a01b03168660008151811061091057610910612b55565b60200260200101516001600160a01b03161061092d576000610949565b8360018151811061094057610940612b55565b60200260200101515b3060405180608001604052808c81526020016109648b611549565b61062290612cbf565b61097561155f565b61097f6000611834565b565b6001546001600160a01b0316321461099857600080fd5b6001600160a01b03851630146103a55760405162461bcd60e51b81526020600482015260166024820152753830b731b0b5b2a1b0b63617b130b216b9b2b73232b960511b6044820152606401610132565b6109f161155f565b60001981036109fd5750475b6040805160008082526020820190925233908390604051610a1e9190612cdb565b60006040518083038185875af1925050503d8060008114610a5b576040519150601f19603f3d011682016040523d82523d6000602084013e610a60565b606091505b505090508061074c5760405162461bcd60e51b815260206004820152601e60248201527f7265636f7665724554482f6574682d7472616e736665722d6661696c656400006044820152606401610132565b610ab961155f565b6001600160a01b038116610b1e5760405162461bcd60e51b815260206004820152602660248201527f4f776e61626c653a206e6577206f776e657220697320746865207a65726f206160448201526564647265737360d01b6064820152608401610132565b610b2781611834565b50565b6000610b3882840184612cf7565b9050610b738160400151600081518110610b5457610b54612b55565b6020026020010151826040015160018151811061050c5761050c612b55565b6001600160a01b0316336001600160a01b031614610bd35760405162461bcd60e51b815260206004820152601860248201527f5f7061697243616c6c6261636b2f6261642d63616c6c657200000000000000006044820152606401610132565b6040810151516002811115610e4a576000610c1d8360400151600181518110610bfe57610bfe612b55565b6020026020010151846040015160028151811061050c5761050c612b55565b9050610c79818460600151600181518110610c3a57610c3a612b55565b60200260200101518560400151600181518110610c5957610c59612b55565b60200260200101516001600160a01b03166115b99092919063ffffffff16565b60015b610c87600184612b42565b811015610e475760008085604001518381518110610ca757610ca7612b55565b60200260200101518660400151846001610cc19190612df2565b81518110610cd157610cd1612b55565b6020026020010151915091506000600286610cec9190612b42565b8410610cf85730610d1e565b610d1e828860400151866002610d0e9190612df2565b8151811061050c5761050c612b55565b90506000826001600160a01b0316846001600160a01b031610610d68576060880151610d4b866001612df2565b81518110610d5b57610d5b612b55565b6020026020010151610d6b565b60005b90506000836001600160a01b0316856001600160a01b031610610d8f576000610db8565b6060890151610d9f876001612df2565b81518110610daf57610daf612b55565b60200260200101515b6040805160008152602081019182905263022c0d9f60e01b9091529091506001600160a01b0388169063022c0d9f90610dfa9085908590889060248101612c79565b600060405180830381600087803b158015610e1457600080fd5b505af1158015610e28573d6000803e3d6000fd5b5050505082965050505050508080610e3f90612e05565b915050610c7c565b50505b600082602001511315610f58576000826020015190506000808460400151600081518110610e7a57610e7a612b55565b60200260200101518560400151600186610e949190612b42565b81518110610ea457610ea4612b55565b602002602001015191509150610f1432866000015184848960600151600081518110610ed257610ed2612b55565b6020026020010151888b6060015160018c610eed9190612b42565b81518110610efd57610efd612b55565b6020026020010151610f0f9190612df2565b611884565b610f50338660600151600081518110610f2f57610f2f612b55565b6020026020010151846001600160a01b03166115b99092919063ffffffff16565b5050506110aa565b60008260200151610f6890612cbf565b90506000808460400151600185610f7f9190612b42565b81518110610f8f57610f8f612b55565b60200260200101518560400151600081518110610fae57610fae612b55565b602002602001015191509150610ff53286600001518484896060015160018a610fd79190612b42565b81518110610fe757610fe7612b55565b602002602001015188611c52565b61103133866060015160008151811061101057611010612b55565b6020026020010151836001600160a01b03166115b99092919063ffffffff16565b6040516370a0823160e01b81523060048201526110a690829032906001600160a01b038316906370a0823190602401602060405180830381865afa15801561107d573d6000803e3d6000fd5b505050506040513d601f19601f820116820180604052508101906110a19190612ca6565b611f51565b5050505b50505050565b7f00000000000000000000000000000000000000000000000000000000000000006001600160a01b0316836001600160a01b0316036112e0576001600160a01b03821633146111415760405162461bcd60e51b815260206004820152601b60248201527f5f7472616e73666572496e2f6e6f742d66726f6d2d73656e64657200000000006044820152606401610132565b3481111561119d5760405162461bcd60e51b815260206004820152602360248201527f5f7472616e73666572496e2f696e73756666696369656e742d6574682d616d6f6044820152621d5b9d60ea1b6064820152608401610132565b7f00000000000000000000000000000000000000000000000000000000000000006001600160a01b031663d0e30db0826040518263ffffffff1660e01b81526004016000604051808303818588803b1580156111f857600080fd5b505af115801561120c573d6000803e3d6000fd5b5050505050803411156112db5760006001600160a01b03831661122f8334612b42565b6040805160008152602081019182905261124891612cdb565b60006040518083038185875af1925050503d8060008114611285576040519150601f19603f3d011682016040523d82523d6000602084013e61128a565b606091505b50509050806110aa5760405162461bcd60e51b815260206004820152601f60248201527f5f7472616e73666572496e2f6574682d7472616e736665722d6661696c6564006044820152606401610132565b505050565b6112db6001600160a01b0384168330846120d4565b60606002825110156113385760405162461bcd60e51b815260206004820152600c60248201526b0929cac82989288bea082a8960a31b6044820152606401610132565b815167ffffffffffffffff81111561135257611352612960565b60405190808252806020026020018201604052801561137b578160200160208202803683370190505b509050828160008151811061139257611392612b55565b60200260200101818152505060005b600183516113af9190612b42565b811015611466576000806114018584815181106113ce576113ce612b55565b6020026020010151868560016113e49190612df2565b815181106113f4576113f4612b55565b602002602001015161210c565b9150915061142984848151811061141a5761141a612b55565b602002602001015183836121d4565b84611435856001612df2565b8151811061144557611445612b55565b6020026020010181815250505050808061145e90612e05565b9150506113a1565b5092915050565b600080600061147c85856122c8565b604080516bffffffffffffffffffffffff19606094851b811660208084019190915293851b81166034830152825180830360280181526048830184528051908501206001600160f81b031960688401527f000000000000000000000000000000000000000000000000000000000000000090951b166069820152607d8101939093527f0000000000000000000000000000000000000000000000000000000000000000609d808501919091528151808503909101815260bd90930190528151910120925050505b92915050565b6000600160ff1b821061155b57600080fd5b5090565b6000546001600160a01b0316331461097f5760405162461bcd60e51b815260206004820181905260248201527f4f776e61626c653a2063616c6c6572206973206e6f7420746865206f776e65726044820152606401610132565b6040516001600160a01b0383166024820152604481018290526112db90849063a9059cbb60e01b906064015b60408051601f198184030181529190526020810180516001600160e01b03166001600160e01b031990931692909217909152612396565b604051620c3a4160e11b81526001600160a01b038481166004830152602482018490526000916116bd9184917f00000000000000000000000000000000000000000000000000000000000000009091169062187482906044016020604051808303816000875af1158015611694573d6000803e3d6000fd5b505050506040513d601f19601f820116820180604052508101906116b89190612ca6565b612468565b949350505050565b60606002825110156117085760405162461bcd60e51b815260206004820152600c60248201526b0929cac82989288bea082a8960a31b6044820152606401610132565b815167ffffffffffffffff81111561172257611722612960565b60405190808252806020026020018201604052801561174b578160200160208202803683370190505b50905082816001835161175e9190612b42565b8151811061176e5761176e612b55565b60200260200101818152505060006001835161178a9190612b42565b90505b8015611466576000806117cf856117a5600186612b42565b815181106117b5576117b5612b55565b60200260200101518685815181106113f4576113f4612b55565b915091506117f78484815181106117e8576117e8612b55565b60200260200101518383612480565b84611803600186612b42565b8151811061181357611813612b55565b6020026020010181815250505050808061182c90612e1e565b91505061178d565b600080546001600160a01b038381166001600160a01b0319831681178455604051919092169283917f8be0079c531659141344cd1fd0a4f28419497f9722a3daafe3b4186f6b6457e09190a35050565b600019850361193057604051637b8feacb60e11b81526001600160a01b038781166004830152858116602483015284811660448301527f0000000000000000000000000000000000000000000000000000000000000000169063f71fd596906064016020604051808303816000875af1158015611905573d6000803e3d6000fd5b505050506040513d601f19601f820116820180604052508101906119299190612ca6565b9450611b1b565b60405163e507470960e01b81526001600160a01b0387811660048301526024820187905260009182917f0000000000000000000000000000000000000000000000000000000000000000169063e5074709906044016040805180830381865afa1580156119a1573d6000803e3d6000fd5b505050506040513d601f19601f820116820180604052508101906119c59190612e35565b91509150816001600160a01b0316856001600160a01b031614611a355760405162461bcd60e51b815260206004820152602260248201527f5f626f72726f772f636f6c6c61746572616c2d6e6f742d5f636f6c6c61746572604482015261185b60f21b6064820152608401610132565b604051630cf351b560e31b81526001600160a01b0382811660048301527f0000000000000000000000000000000000000000000000000000000000000000169063679a8da890602401602060405180830381865afa158015611a9b573d6000803e3d6000fd5b505050506040513d601f19601f82011682018060405250810190611abf9190612e6f565b6001600160a01b0316866001600160a01b031614611b185760405162461bcd60e51b81526020600482015260166024820152755f626f72726f772f6261642d756e6465726c79696e6760501b6044820152606401610132565b50505b611b46837f000000000000000000000000000000000000000000000000000000000000000083612579565b6040516315d21c8d60e11b81526001600160a01b037f00000000000000000000000000000000000000000000000000000000000000001690632ba4391a90611b9690899089908690600401612e8c565b600060405180830381600087803b158015611bb057600080fd5b505af1158015611bc4573d6000803e3d6000fd5b505060405163c1bce0b760e01b81526001600160a01b037f000000000000000000000000000000000000000000000000000000000000000016925063c1bce0b79150611c1890899089908790600401612e8c565b600060405180830381600087803b158015611c3257600080fd5b505af1158015611c46573d6000803e3d6000fd5b50505050505050505050565b60405163e507470960e01b81526001600160a01b0387811660048301526024820187905260009182917f0000000000000000000000000000000000000000000000000000000000000000169063e5074709906044016040805180830381865afa158015611cc3573d6000803e3d6000fd5b505050506040513d601f19601f82011682018060405250810190611ce79190612e35565b91509150816001600160a01b0316856001600160a01b031614611d565760405162461bcd60e51b815260206004820152602160248201527f5f72657061792f636f6c6c61746572616c2d6e6f742d5f636f6c6c61746572616044820152601b60fa1b6064820152608401610132565b604051630cf351b560e31b81526001600160a01b0382811660048301527f0000000000000000000000000000000000000000000000000000000000000000169063679a8da890602401602060405180830381865afa158015611dbc573d6000803e3d6000fd5b505050506040513d601f19601f82011682018060405250810190611de09190612e6f565b6001600160a01b0316866001600160a01b031614611e385760405162461bcd60e51b81526020600482015260156024820152745f72657061792f6261642d756e6465726c79696e6760581b6044820152606401610132565b611e43868286612579565b604051638cd2e0c760e01b81526001600160a01b037f00000000000000000000000000000000000000000000000000000000000000001690638cd2e0c790611e93908b908b908990600401612e8c565b600060405180830381600087803b158015611ead57600080fd5b505af1158015611ec1573d6000803e3d6000fd5b505060405163c640e9bf60e01b81526001600160a01b037f000000000000000000000000000000000000000000000000000000000000000016925063c640e9bf9150611f15908b908b908890600401612e8c565b600060405180830381600087803b158015611f2f57600080fd5b505af1158015611f43573d6000803e3d6000fd5b505050505050505050505050565b7f00000000000000000000000000000000000000000000000000000000000000006001600160a01b0316836001600160a01b0316036120c057604051632e1a7d4d60e01b8152600481018290527f00000000000000000000000000000000000000000000000000000000000000006001600160a01b031690632e1a7d4d90602401600060405180830381600087803b158015611fec57600080fd5b505af1158015612000573d6000803e3d6000fd5b5050604080516000808252602082019283905293506001600160a01b0386169250849161202d9190612cdb565b60006040518083038185875af1925050503d806000811461206a576040519150601f19603f3d011682016040523d82523d6000602084013e61206f565b606091505b50509050806110aa5760405162461bcd60e51b815260206004820181905260248201527f5f7472616e736665724f75742f6574682d7472616e736665722d6661696c65646044820152606401610132565b6112db6001600160a01b03841683836115b9565b6040516001600160a01b03808516602483015283166044820152606481018290526110aa9085906323b872dd60e01b906084016115e5565b600080600061211b85856122c8565b50905060008061212b878761146d565b6001600160a01b0316630902f1ac6040518163ffffffff1660e01b8152600401606060405180830381865afa158015612168573d6000803e3d6000fd5b505050506040513d601f19601f8201168201806040525081019061218c9190612ec9565b506001600160701b031691506001600160701b03169150826001600160a01b0316876001600160a01b0316146121c35780826121c6565b81815b909890975095505050505050565b60008084116122255760405162461bcd60e51b815260206004820152601960248201527f494e53554646494349454e545f494e5055545f414d4f554e54000000000000006044820152606401610132565b6000831180156122355750600082115b61227a5760405162461bcd60e51b8152602060048201526016602482015275494e53554646494349454e545f4c495155494449545960501b6044820152606401610132565b6000612288856103e5612f19565b905060006122968483612f19565b90506000826122a7876103e8612f19565b6122b19190612df2565b90506122bd8183612f30565b979650505050505050565b600080826001600160a01b0316846001600160a01b0316036123225760405162461bcd60e51b81526020600482015260136024820152724944454e544943414c5f41444452455353455360681b6044820152606401610132565b826001600160a01b0316846001600160a01b031610612342578284612345565b83835b90925090506001600160a01b03821661238f5760405162461bcd60e51b815260206004820152600c60248201526b5a45524f5f4144445245535360a01b6044820152606401610132565b9250929050565b60006123eb826040518060400160405280602081526020017f5361666545524332303a206c6f772d6c6576656c2063616c6c206661696c6564815250856001600160a01b03166126289092919063ffffffff16565b8051909150156112db57808060200190518101906124099190612f52565b6112db5760405162461bcd60e51b815260206004820152602a60248201527f5361666545524332303a204552433230206f7065726174696f6e20646964206e6044820152691bdd081cdd58d8d9595960b21b6064820152608401610132565b60008183106124775781612479565b825b9392505050565b60008084116124d15760405162461bcd60e51b815260206004820152601a60248201527f494e53554646494349454e545f4f55545055545f414d4f554e540000000000006044820152606401610132565b6000831180156124e15750600082115b6125265760405162461bcd60e51b8152602060048201526016602482015275494e53554646494349454e545f4c495155494449545960501b6044820152606401610132565b60006125328585612f19565b61253e906103e8612f19565b9050600061254c8685612b42565b612558906103e5612f19565b90506125648183612f30565b61256f906001612df2565b9695505050505050565b604051636eb1769f60e11b81523060048201526001600160a01b0383811660248301526000919085169063dd62ed3e90604401602060405180830381865afa1580156125c9573d6000803e3d6000fd5b505050506040513d601f19601f820116820180604052508101906125ed9190612ca6565b9050818110156110aa578015612612576126126001600160a01b038516846000612637565b6110aa6001600160a01b03851684600019612637565b60606116bd848460008561274c565b8015806126b15750604051636eb1769f60e11b81523060048201526001600160a01b03838116602483015284169063dd62ed3e90604401602060405180830381865afa15801561268b573d6000803e3d6000fd5b505050506040513d601f19601f820116820180604052508101906126af9190612ca6565b155b61271c5760405162461bcd60e51b815260206004820152603660248201527f5361666545524332303a20617070726f76652066726f6d206e6f6e2d7a65726f60448201527520746f206e6f6e2d7a65726f20616c6c6f77616e636560501b6064820152608401610132565b6040516001600160a01b0383166024820152604481018290526112db90849063095ea7b360e01b906064016115e5565b6060824710156127ad5760405162461bcd60e51b815260206004820152602660248201527f416464726573733a20696e73756666696369656e742062616c616e636520666f6044820152651c8818d85b1b60d21b6064820152608401610132565b600080866001600160a01b031685876040516127c99190612cdb565b60006040518083038185875af1925050503d8060008114612806576040519150601f19603f3d011682016040523d82523d6000602084013e61280b565b606091505b50915091506122bd878383876060831561288657825160000361287f576001600160a01b0385163b61287f5760405162461bcd60e51b815260206004820152601d60248201527f416464726573733a2063616c6c20746f206e6f6e2d636f6e74726163740000006044820152606401610132565b50816116bd565b6116bd838381511561289b5781518083602001fd5b8060405162461bcd60e51b81526004016101329190612f74565b6001600160a01b0381168114610b2757600080fd5b6000806000806000608086880312156128e257600080fd5b85356128ed816128b5565b94506020860135935060408601359250606086013567ffffffffffffffff8082111561291857600080fd5b818801915088601f83011261292c57600080fd5b81358181111561293b57600080fd5b89602082850101111561294d57600080fd5b9699959850939650602001949392505050565b634e487b7160e01b600052604160045260246000fd5b6040516080810167ffffffffffffffff8111828210171561299957612999612960565b60405290565b604051601f8201601f1916810167ffffffffffffffff811182821017156129c8576129c8612960565b604052919050565b600067ffffffffffffffff8211156129ea576129ea612960565b5060051b60200190565b600082601f830112612a0557600080fd5b81356020612a1a612a15836129d0565b61299f565b82815260059290921b84018101918181019086841115612a3957600080fd5b8286015b84811015612a5d578035612a50816128b5565b8352918301918301612a3d565b509695505050505050565b600080600080600060a08688031215612a8057600080fd5b853594506020860135935060408601359250606086013567ffffffffffffffff811115612aac57600080fd5b612ab8888289016129f4565b95989497509295608001359392505050565b60008060408385031215612add57600080fd5b8235612ae8816128b5565b946020939093013593505050565b600060208284031215612b0857600080fd5b5035919050565b600060208284031215612b2157600080fd5b8135612479816128b5565b634e487b7160e01b600052601160045260246000fd5b8181038181111561154357611543612b2c565b634e487b7160e01b600052603260045260246000fd5b600081518084526020808501945080840160005b83811015612b9b57815187529582019590820190600101612b7f565b509495945050505050565b6000602080835260a0830184518285015281850151604085015260408501516080606086015281815180845260c0870191508483019350600092505b80831015612c0b5783516001600160a01b03168252928401926001929092019190840190612be2565b506060870151868203601f1901608088015293506122bd8185612b6b565b60005b83811015612c44578181015183820152602001612c2c565b50506000910152565b60008151808452612c65816020860160208601612c29565b601f01601f19169290920160200192915050565b84815283602082015260018060a01b038316604082015260806060820152600061256f6080830184612c4d565b600060208284031215612cb857600080fd5b5051919050565b6000600160ff1b8201612cd457612cd4612b2c565b5060000390565b60008251612ced818460208701612c29565b9190910192915050565b60006020808385031215612d0a57600080fd5b823567ffffffffffffffff80821115612d2257600080fd5b9084019060808287031215612d3657600080fd5b612d3e612976565b823581528383013584820152604083013582811115612d5c57600080fd5b612d68888286016129f4565b604083015250606083013582811115612d8057600080fd5b80840193505086601f840112612d9557600080fd5b82359150612da5612a15836129d0565b82815260059290921b83018401918481019088841115612dc457600080fd5b938501935b83851015612de257843582529385019390850190612dc9565b6060830152509695505050505050565b8082018082111561154357611543612b2c565b600060018201612e1757612e17612b2c565b5060010190565b600081612e2d57612e2d612b2c565b506000190190565b60008060408385031215612e4857600080fd5b8251612e53816128b5565b6020840151909250612e64816128b5565b809150509250929050565b600060208284031215612e8157600080fd5b8151612479816128b5565b6001600160a01b039390931683526020830191909152604082015260600190565b80516001600160701b0381168114612ec457600080fd5b919050565b600080600060608486031215612ede57600080fd5b612ee784612ead565b9250612ef560208501612ead565b9150604084015163ffffffff81168114612f0e57600080fd5b809150509250925092565b808202811582820484141761154357611543612b2c565b600082612f4d57634e487b7160e01b600052601260045260246000fd5b500490565b600060208284031215612f6457600080fd5b8151801515811461247957600080fd5b6020815260006124796020830184612c4d56fea264697066735822122049b1a168db46055dcd732798d93ef6f83370b8e7628910c58c3e345e16f9703f64736f6c63430008130033",
    "linkReferences": {}
  },
  "methodIdentifiers": {
    "close(uint256,uint256,uint256,address[],uint256)": "630d2493",
    "codeHash()": "18edaaf2",
    "factory()": "c45a0155",
    "owner()": "8da5cb5b",
    "pancakeCall(address,uint256,uint256,bytes)": "84800812",
    "profusionBank()": "73535cbc",
    "recover(address,uint256)": "5705ae43",
    "recoverETH(uint256)": "d3335553",
    "renounceOwnership()": "715018a6",
    "short(uint256,uint256,uint256,address[],uint256)": "12868155",
    "transferOwnership(address)": "f2fde38b",
    "uniswapV2Call(address,uint256,uint256,bytes)": "10d1e85c",
    "weth()": "3fc8cef3"
  },
  "id": 43
}