{
  "abi": [
    {
      "inputs": [
        {
          "internalType": "address",
          "name": "_reserveBeneficiary",
          "type": "address"
        },
        {
          "internalType": "uint256",
          "name": "_reserveRate",
          "type": "uint256"
        }
      ],
      "stateMutability": "nonpayable",
      "type": "constructor"
    },
    {
      "anonymous": false,
      "inputs": [
        {
          "indexed": true,
          "internalType": "address",
          "name": "token",
          "type": "address"
        },
        {
          "indexed": false,
          "internalType": "uint256",
          "name": "factor",
          "type": "uint256"
        },
        {
          "indexed": false,
          "internalType": "uint256",
          "name": "maxAmount",
          "type": "uint256"
        }
      ],
      "name": "SetCollInfo",
      "type": "event"
    },
    {
      "anonymous": false,
      "inputs": [
        {
          "indexed": false,
          "internalType": "address",
          "name": "governor",
          "type": "address"
        }
      ],
      "name": "SetGovernor",
      "type": "event"
    },
    {
      "anonymous": false,
      "inputs": [
        {
          "indexed": false,
          "internalType": "address",
          "name": "pendingGovernor",
          "type": "address"
        }
      ],
      "name": "SetPendingGovernor",
      "type": "event"
    },
    {
      "anonymous": false,
      "inputs": [
        {
          "indexed": true,
          "internalType": "address",
          "name": "beneficiary",
          "type": "address"
        },
        {
          "indexed": false,
          "internalType": "uint256",
          "name": "rate",
          "type": "uint256"
        }
      ],
      "name": "SetReserveInfo",
      "type": "event"
    },
    {
      "anonymous": false,
      "inputs": [
        {
          "indexed": true,
          "internalType": "uint256",
          "name": "level",
          "type": "uint256"
        },
        {
          "indexed": false,
          "internalType": "uint64",
          "name": "safetyLTV",
          "type": "uint64"
        },
        {
          "indexed": false,
          "internalType": "uint64",
          "name": "liquidationLTV",
          "type": "uint64"
        },
        {
          "indexed": false,
          "internalType": "uint64",
          "name": "killBountyRate",
          "type": "uint64"
        }
      ],
      "name": "SetRiskConfig",
      "type": "event"
    },
    {
      "anonymous": false,
      "inputs": [
        {
          "indexed": true,
          "internalType": "address",
          "name": "token",
          "type": "address"
        },
        {
          "indexed": false,
          "internalType": "uint256",
          "name": "level",
          "type": "uint256"
        }
      ],
      "name": "SetRiskLevel",
      "type": "event"
    },
    {
      "inputs": [],
      "name": "acceptGovernor",
      "outputs": [],
      "stateMutability": "nonpayable",
      "type": "function"
    },
    {
      "inputs": [
        {
          "internalType": "address",
          "name": "",
          "type": "address"
        }
      ],
      "name": "cFactors",
      "outputs": [
        {
          "internalType": "uint256",
          "name": "",
          "type": "uint256"
        }
      ],
      "stateMutability": "view",
      "type": "function"
    },
    {
      "inputs": [
        {
          "internalType": "address",
          "name": "",
          "type": "address"
        }
      ],
      "name": "cMaxAmounts",
      "outputs": [
        {
          "internalType": "uint256",
          "name": "",
          "type": "uint256"
        }
      ],
      "stateMutability": "view",
      "type": "function"
    },
    {
      "inputs": [
        {
          "internalType": "address",
          "name": "_token",
          "type": "address"
        }
      ],
      "name": "getCollFactor",
      "outputs": [
        {
          "internalType": "uint256",
          "name": "",
          "type": "uint256"
        }
      ],
      "stateMutability": "view",
      "type": "function"
    },
    {
      "inputs": [
        {
          "internalType": "address",
          "name": "_token",
          "type": "address"
        }
      ],
      "name": "getCollMaxAmount",
      "outputs": [
        {
          "internalType": "uint256",
          "name": "",
          "type": "uint256"
        }
      ],
      "stateMutability": "view",
      "type": "function"
    },
    {
      "inputs": [
        {
          "internalType": "address",
          "name": "_token",
          "type": "address"
        }
      ],
      "name": "getKillBountyRate",
      "outputs": [
        {
          "internalType": "uint256",
          "name": "",
          "type": "uint256"
        }
      ],
      "stateMutability": "view",
      "type": "function"
    },
    {
      "inputs": [
        {
          "internalType": "address",
          "name": "_token",
          "type": "address"
        }
      ],
      "name": "getLiquidationLTV",
      "outputs": [
        {
          "internalType": "uint256",
          "name": "",
          "type": "uint256"
        }
      ],
      "stateMutability": "view",
      "type": "function"
    },
    {
      "inputs": [
        {
          "internalType": "address",
          "name": "_token",
          "type": "address"
        }
      ],
      "name": "getRiskLevel",
      "outputs": [
        {
          "internalType": "uint256",
          "name": "",
          "type": "uint256"
        }
      ],
      "stateMutability": "view",
      "type": "function"
    },
    {
      "inputs": [
        {
          "internalType": "address",
          "name": "_token",
          "type": "address"
        }
      ],
      "name": "getSafetyLTV",
      "outputs": [
        {
          "internalType": "uint256",
          "name": "",
          "type": "uint256"
        }
      ],
      "stateMutability": "view",
      "type": "function"
    },
    {
      "inputs": [],
      "name": "governor",
      "outputs": [
        {
          "internalType": "address",
          "name": "",
          "type": "address"
        }
      ],
      "stateMutability": "view",
      "type": "function"
    },
    {
      "inputs": [],
      "name": "pendingGovernor",
      "outputs": [
        {
          "internalType": "address",
          "name": "",
          "type": "address"
        }
      ],
      "stateMutability": "view",
      "type": "function"
    },
    {
      "inputs": [
        {
          "internalType": "uint256",
          "name": "",
          "type": "uint256"
        }
      ],
      "name": "rConfigs",
      "outputs": [
        {
          "internalType": "uint64",
          "name": "safetyLTV",
          "type": "uint64"
        },
        {
          "internalType": "uint64",
          "name": "liquidationLTV",
          "type": "uint64"
        },
        {
          "internalType": "uint64",
          "name": "killBountyRate",
          "type": "uint64"
        }
      ],
      "stateMutability": "view",
      "type": "function"
    },
    {
      "inputs": [
        {
          "internalType": "address",
          "name": "",
          "type": "address"
        }
      ],
      "name": "rLevels",
      "outputs": [
        {
          "internalType": "uint256",
          "name": "",
          "type": "uint256"
        }
      ],
      "stateMutability": "view",
      "type": "function"
    },
    {
      "inputs": [],
      "name": "reserveBeneficiary",
      "outputs": [
        {
          "internalType": "address",
          "name": "",
          "type": "address"
        }
      ],
      "stateMutability": "view",
      "type": "function"
    },
    {
      "inputs": [],
      "name": "reserveRate",
      "outputs": [
        {
          "internalType": "uint256",
          "name": "",
          "type": "uint256"
        }
      ],
      "stateMutability": "view",
      "type": "function"
    },
    {
      "inputs": [
        {
          "internalType": "address[]",
          "name": "tokens",
          "type": "address[]"
        },
        {
          "internalType": "uint256[]",
          "name": "factors",
          "type": "uint256[]"
        },
        {
          "internalType": "uint256[]",
          "name": "maxAmounts",
          "type": "uint256[]"
        }
      ],
      "name": "setCollInfos",
      "outputs": [],
      "stateMutability": "nonpayable",
      "type": "function"
    },
    {
      "inputs": [
        {
          "internalType": "address",
          "name": "_pendingGovernor",
          "type": "address"
        }
      ],
      "name": "setPendingGovernor",
      "outputs": [],
      "stateMutability": "nonpayable",
      "type": "function"
    },
    {
      "inputs": [
        {
          "internalType": "address",
          "name": "_reserveBeneficiary",
          "type": "address"
        },
        {
          "internalType": "uint256",
          "name": "_reserveRate",
          "type": "uint256"
        }
      ],
      "name": "setReserveInfo",
      "outputs": [],
      "stateMutability": "nonpayable",
      "type": "function"
    },
    {
      "inputs": [
        {
          "internalType": "uint256[]",
          "name": "levels",
          "type": "uint256[]"
        },
        {
          "components": [
            {
              "internalType": "uint64",
              "name": "safetyLTV",
              "type": "uint64"
            },
            {
              "internalType": "uint64",
              "name": "liquidationLTV",
              "type": "uint64"
            },
            {
              "internalType": "uint64",
              "name": "killBountyRate",
              "type": "uint64"
            }
          ],
          "internalType": "struct ProfusionConfig.RiskConfig[]",
          "name": "configs",
          "type": "tuple[]"
        }
      ],
      "name": "setRiskConfigs",
      "outputs": [],
      "stateMutability": "nonpayable",
      "type": "function"
    },
    {
      "inputs": [
        {
          "internalType": "address[]",
          "name": "tokens",
          "type": "address[]"
        },
        {
          "internalType": "uint256[]",
          "name": "levels",
          "type": "uint256[]"
        }
      ],
      "name": "setRiskLevels",
      "outputs": [],
      "stateMutability": "nonpayable",
      "type": "function"
    }
  ],
  "bytecode": {
    "object": "0x60806040523480156200001157600080fd5b5060405162001837380380620018378339810160408190526200003491620001fb565b600080546001600160a01b031916339081179091556040519081527fbce074c8369e26e70e1ae2f14fc944da352cfe6f52e2de9572f0c9942a24b7fc9060200160405180910390a162000088828262000090565b505062000237565b6000546001600160a01b03163314620000f05760405162461bcd60e51b815260206004820152601b60248201527f73657452657365727665496e666f2f6e6f742d676f7665726e6f72000000000060448201526064015b60405180910390fd5b670de0b6b3a76400008110620001495760405162461bcd60e51b815260206004820152601760248201527f73657452657365727665496e666f2f6261642d726174650000000000000000006044820152606401620000e7565b6001600160a01b038216620001a15760405162461bcd60e51b815260206004820152601e60248201527f73657452657365727665496e666f2f6261642d62656e656669636961727900006044820152606401620000e7565b600280546001600160a01b0319166001600160a01b03841690811790915560038290556040518281527f8d3f97a5040a370cef457e245abf5657ef6611ff7b94eff72aaa107bdca8cdd69060200160405180910390a25050565b600080604083850312156200020f57600080fd5b82516001600160a01b03811681146200022757600080fd5b6020939093015192949293505050565b6115f080620002476000396000f3fe608060405234801561001057600080fd5b506004361061012c5760003560e01c806390ddf2b2116100ad578063e84e6c3311610071578063e84e6c33146102d6578063eb94ee10146102e9578063eecce599146102fc578063f235757f1461031c578063f6bd51f61461032f57600080fd5b806390ddf2b214610282578063914870eb146102955780639bb2d344146102a8578063e3056a34146102bb578063e58bb639146102ce57600080fd5b8063232cd46f116100f4578063232cd46f146101d757806337ea60931461024057806358d7bf8014610253578063665e2e531461025c57806373e0835a1461026f57600080fd5b80630c340a24146101315780630f4733f1146101615780631615f2d41461018f57806317b793c6146101a2578063232b9bb9146101b7575b600080fd5b600054610144906001600160a01b031681565b6040516001600160a01b0390911681526020015b60405180910390f35b61018161016f36600461125a565b60046020526000908152604090205481565b604051908152602001610158565b61018161019d36600461125a565b610342565b6101b56101b036600461127c565b6103b6565b005b6101816101c536600461125a565b60056020526000908152604090205481565b6102166101e53660046112a6565b6007602052600090815260409020546001600160401b0380821691600160401b8104821691600160801b9091041683565b604080516001600160401b0394851681529284166020840152921691810191909152606001610158565b61018161024e36600461125a565b610517565b61018160035481565b61018161026a36600461125a565b610586565b61018161027d36600461125a565b6105fb565b61018161029036600461125a565b61067b565b600254610144906001600160a01b031681565b6101b56102b636600461130a565b6106ec565b600154610144906001600160a01b031681565b6101b5610898565b6101b56102e4366004611375565b610951565b6101816102f736600461125a565b610ca3565b61018161030a36600461125a565b60066020526000908152604090205481565b6101b561032a36600461125a565b610d23565b6101b561033d36600461140e565b610dd1565b6001600160a01b038116600090815260066020526040812054600181016103b05760405162461bcd60e51b815260206004820152601b60248201527f6765745269736b4c6576656c2f6261642d7269736b2d6c6576656c000000000060448201526064015b60405180910390fd5b92915050565b6000546001600160a01b031633146104105760405162461bcd60e51b815260206004820152601b60248201527f73657452657365727665496e666f2f6e6f742d676f7665726e6f72000000000060448201526064016103a7565b670de0b6b3a764000081106104675760405162461bcd60e51b815260206004820152601760248201527f73657452657365727665496e666f2f6261642d7261746500000000000000000060448201526064016103a7565b6001600160a01b0382166104bd5760405162461bcd60e51b815260206004820152601e60248201527f73657452657365727665496e666f2f6261642d62656e6566696369617279000060448201526064016103a7565b600280546001600160a01b0319166001600160a01b03841690811790915560038290556040518281527f8d3f97a5040a370cef457e245abf5657ef6611ff7b94eff72aaa107bdca8cdd69060200160405180910390a25050565b6000806007600061052785610342565b81526020810191909152604001600020546001600160401b03169050806103b05760405162461bcd60e51b815260206004820152601360248201527233b2ba29b0b332ba3ca62a2b17b73796b63a3b60691b60448201526064016103a7565b6001600160a01b038116600090815260056020526040812054806103b05760405162461bcd60e51b815260206004820152602660248201527f676574436f6c6c466163746f722f6e6f2d636f6c6c61746572616c2d6d61782d604482015265185b5bdd5b9d60d21b60648201526084016103a7565b6000806007600061060b85610342565b8152602081019190915260400160002054600160801b90046001600160401b03169050806103b05760405162461bcd60e51b815260206004820152601960248201527f6765744b696c6c426f756e7479526174652f6e6f2d726174650000000000000060448201526064016103a7565b6001600160a01b038116600090815260046020526040812054806103b05760405162461bcd60e51b815260206004820152602260248201527f676574436f6c6c466163746f722f6e6f2d636f6c6c61746572616c2d6661637460448201526137b960f11b60648201526084016103a7565b6000546001600160a01b031633146107465760405162461bcd60e51b815260206004820152601a60248201527f7365745269736b4c6576656c732f6e6f742d676f7665726e6f7200000000000060448201526064016103a7565b8281146107955760405162461bcd60e51b815260206004820152601860248201527f7365745269736b4c6576656c732f6261642d6c656e677468000000000000000060448201526064016103a7565b60005b83811015610891578282828181106107b2576107b26114a7565b90506020020135600660008787858181106107cf576107cf6114a7565b90506020020160208101906107e4919061125a565b6001600160a01b03168152602081019190915260400160002055848482818110610810576108106114a7565b9050602002016020810190610825919061125a565b6001600160a01b03167f22e68e256794fc1693f9bae59dd2c7162c98fa6979d5716f52b9b26f8a5d2753848484818110610861576108616114a7565b9050602002013560405161087791815260200190565b60405180910390a280610889816114bd565b915050610798565b5050505050565b6001546001600160a01b031633146108fe5760405162461bcd60e51b815260206004820152602360248201527f616363657074476f7665726e6f722f6e6f742d70656e64696e672d676f7665726044820152623737b960e91b60648201526084016103a7565b600180546001600160a01b031990811690915560008054339216821790556040519081527fbce074c8369e26e70e1ae2f14fc944da352cfe6f52e2de9572f0c9942a24b7fc9060200160405180910390a1565b6000546001600160a01b031633146109ab5760405162461bcd60e51b815260206004820152601960248201527f736574436f6c6c496e666f732f6e6f742d676f7665726e6f720000000000000060448201526064016103a7565b8483146109f45760405162461bcd60e51b81526020600482015260176024820152760e6cae886ded8d892dcccdee65ec4c2c85ad8cadccee8d604b1b60448201526064016103a7565b848114610a3d5760405162461bcd60e51b81526020600482015260176024820152760e6cae886ded8d892dcccdee65ec4c2c85ad8cadccee8d604b1b60448201526064016103a7565b60005b85811015610c9a57670de0b6b3a7640000858583818110610a6357610a636114a7565b905060200201351115610ab85760405162461bcd60e51b815260206004820152601d60248201527f736574436f6c6c496e666f732f6261642d666163746f722d76616c756500000060448201526064016103a7565b6000838383818110610acc57610acc6114a7565b9050602002013511610b2a5760405162461bcd60e51b815260206004820152602160248201527f736574436f6c6c496e666f732f6261642d6d61782d616d6f756e742d76616c756044820152606560f81b60648201526084016103a7565b848482818110610b3c57610b3c6114a7565b9050602002013560046000898985818110610b5957610b596114a7565b9050602002016020810190610b6e919061125a565b6001600160a01b03168152602081019190915260400160002055828282818110610b9a57610b9a6114a7565b9050602002013560056000898985818110610bb757610bb76114a7565b9050602002016020810190610bcc919061125a565b6001600160a01b03168152602081019190915260400160002055868682818110610bf857610bf86114a7565b9050602002016020810190610c0d919061125a565b6001600160a01b03167f0187d64934611c40d0a1b72a984b2c8c48600ce966abb5ce82138542e85d2a72868684818110610c4957610c496114a7565b90506020020135858585818110610c6257610c626114a7565b90506020020135604051610c80929190918252602082015260400190565b60405180910390a280610c92816114bd565b915050610a40565b50505050505050565b60008060076000610cb385610342565b8152602081019190915260400160002054600160401b90046001600160401b03169050806103b05760405162461bcd60e51b815260206004820152601860248201527f6765744c69717569646174696f6e4c54562f6e6f2d6c7476000000000000000060448201526064016103a7565b6000546001600160a01b03163314610d7d5760405162461bcd60e51b815260206004820152601f60248201527f73657450656e64696e67476f7665726e6f722f6e6f742d676f7665726e6f720060448201526064016103a7565b600180546001600160a01b0319166001600160a01b0383169081179091556040519081527f964dea888b00b2ab53f13dfe7ca334b46e99338c222ae232d98547a1da019f609060200160405180910390a150565b6000546001600160a01b03163314610e2b5760405162461bcd60e51b815260206004820152601b60248201527f7365745269736b436f6e666967732f6e6f742d676f7665726e6f72000000000060448201526064016103a7565b828114610e7a5760405162461bcd60e51b815260206004820152601960248201527f7365745269736b436f6e666967732f6261642d6c656e6774680000000000000060448201526064016103a7565b60005b8381101561089157670de0b6b3a7640000838383818110610ea057610ea06114a7565b610eb692602060609092020190810191506114fc565b6001600160401b03161115610f0d5760405162461bcd60e51b815260206004820152601d60248201527f7365745269736b436f6e666967732f6261642d7361666574792d6c747600000060448201526064016103a7565b670de0b6b3a7640000838383818110610f2857610f286114a7565b9050606002016020016020810190610f4091906114fc565b6001600160401b03161115610fa25760405162461bcd60e51b815260206004820152602260248201527f7365745269736b436f6e666967732f6261642d6c69717569646174696f6e2d6c6044820152613a3b60f11b60648201526084016103a7565b828282818110610fb457610fb46114a7565b9050606002016020016020810190610fcc91906114fc565b6001600160401b0316838383818110610fe757610fe76114a7565b610ffd92602060609092020190810191506114fc565b6001600160401b0316106110625760405162461bcd60e51b815260206004820152602660248201527f7365745269736b436f6e666967732f696e636f6e73697374656e742d6c74762d60448201526576616c75657360d01b60648201526084016103a7565b670de0b6b3a764000083838381811061107d5761107d6114a7565b905060600201604001602081019061109591906114fc565b6001600160401b031611156110fa5760405162461bcd60e51b815260206004820152602560248201527f7365745269736b436f6e666967732f6261642d6b696c6c2d7265776172642d6660448201526430b1ba37b960d91b60648201526084016103a7565b82828281811061110c5761110c6114a7565b90506060020160076000878785818110611128576111286114a7565b90506020020135815260200190815260200160002081816111499190611519565b90505084848281811061115e5761115e6114a7565b905060200201357f1c6d6a932ad9df0dbd134f8198babe5d3471d49ea2706ef89010f165604ed37c848484818110611198576111986114a7565b6111ae92602060609092020190810191506114fc565b8585858181106111c0576111c06114a7565b90506060020160200160208101906111d891906114fc565b8686868181106111ea576111ea6114a7565b905060600201604001602081019061120291906114fc565b604080516001600160401b039485168152928416602084015292168183015290519081900360600190a280611236816114bd565b915050610e7d565b80356001600160a01b038116811461125557600080fd5b919050565b60006020828403121561126c57600080fd5b6112758261123e565b9392505050565b6000806040838503121561128f57600080fd5b6112988361123e565b946020939093013593505050565b6000602082840312156112b857600080fd5b5035919050565b60008083601f8401126112d157600080fd5b5081356001600160401b038111156112e857600080fd5b6020830191508360208260051b850101111561130357600080fd5b9250929050565b6000806000806040858703121561132057600080fd5b84356001600160401b038082111561133757600080fd5b611343888389016112bf565b9096509450602087013591508082111561135c57600080fd5b50611369878288016112bf565b95989497509550505050565b6000806000806000806060878903121561138e57600080fd5b86356001600160401b03808211156113a557600080fd5b6113b18a838b016112bf565b909850965060208901359150808211156113ca57600080fd5b6113d68a838b016112bf565b909650945060408901359150808211156113ef57600080fd5b506113fc89828a016112bf565b979a9699509497509295939492505050565b6000806000806040858703121561142457600080fd5b84356001600160401b038082111561143b57600080fd5b611447888389016112bf565b9096509450602087013591508082111561146057600080fd5b818701915087601f83011261147457600080fd5b81358181111561148357600080fd5b88602060608302850101111561149857600080fd5b95989497505060200194505050565b634e487b7160e01b600052603260045260246000fd5b6000600182016114dd57634e487b7160e01b600052601160045260246000fd5b5060010190565b6001600160401b03811681146114f957600080fd5b50565b60006020828403121561150e57600080fd5b8135611275816114e4565b8135611524816114e4565b6001600160401b03811690508154816001600160401b03198216178355602084013561154f816114e4565b6fffffffffffffffff0000000000000000604091821b166fffffffffffffffffffffffffffffffff1983168417811785559085013561158d816114e4565b6001600160c01b0319929092169092179190911760809190911b67ffffffffffffffff60801b161790555056fea264697066735822122080f010d78d043994f8f8ee1359ab4e20aba11cda81f76cf92649e56d54bcf41464736f6c63430008130033",
    "linkReferences": {}
  },
  "methodIdentifiers": {
    "acceptGovernor()": "e58bb639",
    "cFactors(address)": "0f4733f1",
    "cMaxAmounts(address)": "232b9bb9",
    "getCollFactor(address)": "90ddf2b2",
    "getCollMaxAmount(address)": "665e2e53",
    "getKillBountyRate(address)": "73e0835a",
    "getLiquidationLTV(address)": "eb94ee10",
    "getRiskLevel(address)": "1615f2d4",
    "getSafetyLTV(address)": "37ea6093",
    "governor()": "0c340a24",
    "pendingGovernor()": "e3056a34",
    "rConfigs(uint256)": "232cd46f",
    "rLevels(address)": "eecce599",
    "reserveBeneficiary()": "914870eb",
    "reserveRate()": "58d7bf80",
    "setCollInfos(address[],uint256[],uint256[])": "e84e6c33",
    "setPendingGovernor(address)": "f235757f",
    "setReserveInfo(address,uint256)": "17b793c6",
    "setRiskConfigs(uint256[],(uint64,uint64,uint64)[])": "f6bd51f6",
    "setRiskLevels(address[],uint256[])": "9bb2d344"
  },
  "id": 38
}