{
  "abi": [
    {
      "inputs": [
        {
          "internalType": "address",
          "name": "_weth",
          "type": "address"
        },
        {
          "internalType": "address",
          "name": "_factory",
          "type": "address"
        },
        {
          "internalType": "uint32",
          "name": "_minTwapTime",
          "type": "uint32"
        }
      ],
      "stateMutability": "nonpayable",
      "type": "constructor"
    },
    {
      "anonymous": false,
      "inputs": [
        {
          "indexed": false,
          "internalType": "address",
          "name": "token",
          "type": "address"
        }
      ],
      "name": "Initialize",
      "type": "event"
    },
    {
      "anonymous": false,
      "inputs": [
        {
          "indexed": true,
          "internalType": "address",
          "name": "token",
          "type": "address"
        },
        {
          "indexed": false,
          "internalType": "uint224",
          "name": "price",
          "type": "uint224"
        }
      ],
      "name": "Observe",
      "type": "event"
    },
    {
      "anonymous": false,
      "inputs": [
        {
          "indexed": true,
          "internalType": "address",
          "name": "token",
          "type": "address"
        },
        {
          "indexed": false,
          "internalType": "address",
          "name": "ext",
          "type": "address"
        }
      ],
      "name": "SetExternal",
      "type": "event"
    },
    {
      "anonymous": false,
      "inputs": [
        {
          "indexed": false,
          "internalType": "address",
          "name": "governor",
          "type": "address"
        }
      ],
      "name": "SetGovernor",
      "type": "event"
    },
    {
      "anonymous": false,
      "inputs": [
        {
          "indexed": false,
          "internalType": "address",
          "name": "pendingGovernor",
          "type": "address"
        }
      ],
      "name": "SetPendingGovernor",
      "type": "event"
    },
    {
      "inputs": [],
      "name": "acceptGovernor",
      "outputs": [],
      "stateMutability": "nonpayable",
      "type": "function"
    },
    {
      "inputs": [
        {
          "internalType": "address",
          "name": "from",
          "type": "address"
        },
        {
          "internalType": "address",
          "name": "to",
          "type": "address"
        },
        {
          "internalType": "uint256",
          "name": "amount",
          "type": "uint256"
        }
      ],
      "name": "convert",
      "outputs": [
        {
          "internalType": "uint256",
          "name": "",
          "type": "uint256"
        }
      ],
      "stateMutability": "nonpayable",
      "type": "function"
    },
    {
      "inputs": [
        {
          "internalType": "address",
          "name": "pair",
          "type": "address"
        }
      ],
      "name": "currentPrice0Cumu",
      "outputs": [
        {
          "internalType": "uint256",
          "name": "price0Cumu",
          "type": "uint256"
        }
      ],
      "stateMutability": "view",
      "type": "function"
    },
    {
      "inputs": [
        {
          "internalType": "address",
          "name": "pair",
          "type": "address"
        }
      ],
      "name": "currentPrice1Cumu",
      "outputs": [
        {
          "internalType": "uint256",
          "name": "price1Cumu",
          "type": "uint256"
        }
      ],
      "stateMutability": "view",
      "type": "function"
    },
    {
      "inputs": [
        {
          "internalType": "address",
          "name": "",
          "type": "address"
        }
      ],
      "name": "exts",
      "outputs": [
        {
          "internalType": "address",
          "name": "",
          "type": "address"
        }
      ],
      "stateMutability": "view",
      "type": "function"
    },
    {
      "inputs": [],
      "name": "factory",
      "outputs": [
        {
          "internalType": "address",
          "name": "",
          "type": "address"
        }
      ],
      "stateMutability": "view",
      "type": "function"
    },
    {
      "inputs": [
        {
          "internalType": "address",
          "name": "token",
          "type": "address"
        }
      ],
      "name": "getAssetETHPrice",
      "outputs": [
        {
          "internalType": "uint256",
          "name": "",
          "type": "uint256"
        }
      ],
      "stateMutability": "nonpayable",
      "type": "function"
    },
    {
      "inputs": [
        {
          "internalType": "address",
          "name": "token",
          "type": "address"
        },
        {
          "internalType": "uint256",
          "name": "amount",
          "type": "uint256"
        }
      ],
      "name": "getAssetETHValue",
      "outputs": [
        {
          "internalType": "uint256",
          "name": "",
          "type": "uint256"
        }
      ],
      "stateMutability": "nonpayable",
      "type": "function"
    },
    {
      "inputs": [],
      "name": "governor",
      "outputs": [
        {
          "internalType": "address",
          "name": "",
          "type": "address"
        }
      ],
      "stateMutability": "view",
      "type": "function"
    },
    {
      "inputs": [
        {
          "internalType": "address",
          "name": "token",
          "type": "address"
        }
      ],
      "name": "initPriceFromPair",
      "outputs": [],
      "stateMutability": "nonpayable",
      "type": "function"
    },
    {
      "inputs": [
        {
          "internalType": "address[]",
          "name": "tokens",
          "type": "address[]"
        }
      ],
      "name": "massInitPriceFromPair",
      "outputs": [],
      "stateMutability": "nonpayable",
      "type": "function"
    },
    {
      "inputs": [
        {
          "internalType": "address[]",
          "name": "tokens",
          "type": "address[]"
        }
      ],
      "name": "massUpdatePriceFromPair",
      "outputs": [
        {
          "internalType": "uint256[]",
          "name": "prices",
          "type": "uint256[]"
        }
      ],
      "stateMutability": "nonpayable",
      "type": "function"
    },
    {
      "inputs": [],
      "name": "minTwapTime",
      "outputs": [
        {
          "internalType": "uint32",
          "name": "",
          "type": "uint32"
        }
      ],
      "stateMutability": "view",
      "type": "function"
    },
    {
      "inputs": [
        {
          "internalType": "address",
          "name": "",
          "type": "address"
        }
      ],
      "name": "observations",
      "outputs": [
        {
          "internalType": "uint256",
          "name": "lastCumu",
          "type": "uint256"
        },
        {
          "internalType": "uint224",
          "name": "lastPrice",
          "type": "uint224"
        },
        {
          "internalType": "uint32",
          "name": "timestamp",
          "type": "uint32"
        }
      ],
      "stateMutability": "view",
      "type": "function"
    },
    {
      "inputs": [],
      "name": "pendingGovernor",
      "outputs": [
        {
          "internalType": "address",
          "name": "",
          "type": "address"
        }
      ],
      "stateMutability": "view",
      "type": "function"
    },
    {
      "inputs": [
        {
          "internalType": "address[]",
          "name": "_tokens",
          "type": "address[]"
        },
        {
          "internalType": "address",
          "name": "_ext",
          "type": "address"
        }
      ],
      "name": "setExternalOracle",
      "outputs": [],
      "stateMutability": "nonpayable",
      "type": "function"
    },
    {
      "inputs": [
        {
          "internalType": "address",
          "name": "_pendingGovernor",
          "type": "address"
        }
      ],
      "name": "setPendingGovernor",
      "outputs": [],
      "stateMutability": "nonpayable",
      "type": "function"
    },
    {
      "inputs": [
        {
          "internalType": "address",
          "name": "token",
          "type": "address"
        }
      ],
      "name": "updatePriceFromPair",
      "outputs": [
        {
          "internalType": "uint256",
          "name": "",
          "type": "uint256"
        }
      ],
      "stateMutability": "nonpayable",
      "type": "function"
    },
    {
      "inputs": [],
      "name": "weth",
      "outputs": [
        {
          "internalType": "address",
          "name": "",
          "type": "address"
        }
      ],
      "stateMutability": "view",
      "type": "function"
    }
  ],
  "bytecode": {
    "object": "0x60e06040523480156200001157600080fd5b5060405162001520380380620015208339810160408190526200003491620001d7565b6001600160a01b038316620000905760405162461bcd60e51b815260206004820152601d60248201527f636f6e7374727563746f722f776574682d7a65726f2d6164647265737300000060448201526064015b60405180910390fd5b6001600160a01b038216620000e85760405162461bcd60e51b815260206004820181905260248201527f636f6e7374727563746f722f666163746f72792d7a65726f2d61646472657373604482015260640162000087565b8063ffffffff166000036200014c5760405162461bcd60e51b8152602060048201526024808201527f636f6e7374727563746f722f6d696e2d747761702d74696d652d7a65726f2d76604482015263616c756560e01b606482015260840162000087565b6001600160a01b03838116608052821660a05263ffffffff811660c052600080546001600160a01b031916339081179091556040519081527fbce074c8369e26e70e1ae2f14fc944da352cfe6f52e2de9572f0c9942a24b7fc9060200160405180910390a15050506200022d565b80516001600160a01b0381168114620001d257600080fd5b919050565b600080600060608486031215620001ed57600080fd5b620001f884620001ba565b92506200020860208501620001ba565b9150604084015163ffffffff811681146200022257600080fd5b809150509250925092565b60805160a05160c05161128b62000295600039600081816102a20152610aac015260008181610317015281816107410152610b840152600081816101b701528181610716015281816107b201528181610b5901528181610bf70152610d05015261128b6000f3fe608060405234801561001057600080fd5b50600436106101215760003560e01c80638a04ff3c116100ad578063c45a015511610071578063c45a015514610312578063d4f4dfe414610339578063e3056a341461034c578063e58bb6391461035f578063f235757f1461036757600080fd5b80638a04ff3c146102355780639a462f8f1461029d578063ae27980d146102d9578063bc388242146102ec578063bd424684146102ff57600080fd5b806327b113ca116100f457806327b113ca1461019f5780633fc8cef3146101b2578063460d5ffa146101d95780636378aa32146101ec57806372b713611461020c57600080fd5b80630c340a2414610126578063144ff194146101565780631e61991114610177578063248391ff1461018c575b600080fd5b600054610139906001600160a01b031681565b6040516001600160a01b0390911681526020015b60405180910390f35b610169610164366004610f61565b61037a565b60405190815260200161014d565b61018a610185366004610fca565b6104a4565b005b61016961019a366004611021565b6105ec565b61018a6101ad366004611062565b610626565b6101397f000000000000000000000000000000000000000000000000000000000000000081565b61018a6101e7366004610f61565b610672565b6101ff6101fa366004611062565b610855565b60405161014d91906110a4565b61013961021a366004610f61565b6003602052600090815260409020546001600160a01b031681565b610274610243366004610f61565b600260205260009081526040902080546001909101546001600160e01b03811690600160e01b900463ffffffff1683565b604080519384526001600160e01b03909216602084015263ffffffff169082015260600161014d565b6102c47f000000000000000000000000000000000000000000000000000000000000000081565b60405163ffffffff909116815260200161014d565b6101696102e7366004610f61565b610907565b6101696102fa366004610f61565b610a20565b61016961030d3660046110e8565b610cdb565b6101397f000000000000000000000000000000000000000000000000000000000000000081565b610169610347366004610f61565b610d01565b600154610139906001600160a01b031681565b61018a610de2565b61018a610375366004610f61565b610e9b565b600080429050826001600160a01b0316635a3d54936040518163ffffffff1660e01b8152600401602060405180830381865afa1580156103be573d6000803e3d6000fd5b505050506040513d601f19601f820116820180604052508101906103e29190611114565b91506000806000856001600160a01b0316630902f1ac6040518163ffffffff1660e01b8152600401606060405180830381865afa158015610427573d6000803e3d6000fd5b505050506040513d601f19601f8201168201806040525081019061044b9190611149565b92506001600160701b031692506001600160701b031692508363ffffffff168163ffffffff161461049b5780840363ffffffff811683607086901b816104935761049361118e565b040286019550505b50505050919050565b6000546001600160a01b031633146105035760405162461bcd60e51b815260206004820152601e60248201527f73657445787465726e616c4f7261636c652f6e6f742d676f7665726e6f72000060448201526064015b60405180910390fd5b60005b828110156105e6578160036000868685818110610525576105256111a4565b905060200201602081019061053a9190610f61565b6001600160a01b039081168252602082019290925260400160002080546001600160a01b0319169290911691909117905583838281811061057d5761057d6111a4565b90506020020160208101906105929190610f61565b6040516001600160a01b03848116825291909116907f6a238cbf889fd9e18ec5a852b4354006cdd576b0f80d18a64e1e87d96d4ddd6d9060200160405180910390a2806105de816111d0565b915050610506565b50505050565b6000806105f885610d01565b9050600061060585610d01565b90508061061283866111e9565b61061c9190611200565b9695505050505050565b60005b8181101561066d5761065b838383818110610646576106466111a4565b90506020020160208101906101e79190610f61565b80610665816111d0565b915050610629565b505050565b6001600160a01b03811660009081526002602052604090206001810154600160e01b900463ffffffff16156106f75760405162461bcd60e51b815260206004820152602560248201527f696e6974507269636546726f6d506169722f616c72656164792d696e697469616044820152641b1a5e995960da1b60648201526084016104fa565b60405163e6a4390560e01b81526001600160a01b0383811660048301527f0000000000000000000000000000000000000000000000000000000000000000811660248301526000917f00000000000000000000000000000000000000000000000000000000000000009091169063e6a4390590604401602060405180830381865afa15801561078a573d6000803e3d6000fd5b505050506040513d601f19601f820116820180604052508101906107ae9190611222565b90507f00000000000000000000000000000000000000000000000000000000000000006001600160a01b0316836001600160a01b0316106107f7576107f28161037a565b610800565b61080081610907565b8255600160e01b4263ffffffff160260018301556040516001600160a01b03841681527f36b1453565f45af7b509b59d5e2eac8f1948ea9e3e193db6663b4101afb6382c9060200160405180910390a1505050565b60608167ffffffffffffffff8111156108705761087061123f565b604051908082528060200260200182016040528015610899578160200160208202803683370190505b50905060005b82811015610900576108d18484838181106108bc576108bc6111a4565b90506020020160208101906102fa9190610f61565b8282815181106108e3576108e36111a4565b6020908102919091010152806108f8816111d0565b91505061089f565b5092915050565b600080429050826001600160a01b0316635909c0d56040518163ffffffff1660e01b8152600401602060405180830381865afa15801561094b573d6000803e3d6000fd5b505050506040513d601f19601f8201168201806040525081019061096f9190611114565b91506000806000856001600160a01b0316630902f1ac6040518163ffffffff1660e01b8152600401606060405180830381865afa1580156109b4573d6000803e3d6000fd5b505050506040513d601f19601f820116820180604052508101906109d89190611149565b92506001600160701b031692506001600160701b031692508363ffffffff168163ffffffff161461049b5780840363ffffffff811684607085901b816104935761049361118e565b6001600160a01b03811660009081526002602052604081206001810154600160e01b900463ffffffff1680610aa15760405162461bcd60e51b815260206004820152602160248201527f757064617465507269636546726f6d506169722f756e696e697469616c697a656044820152601960fa1b60648201526084016104fa565b4281900363ffffffff7f000000000000000000000000000000000000000000000000000000000000000081169082161015610b3a5760018301546001600160e01b031680610b315760405162461bcd60e51b815260206004820152601c60248201527f757064617465507269636546726f6d506169722f6e6f2d70726963650000000060448201526064016104fa565b95945050505050565b60405163e6a4390560e01b81526001600160a01b0386811660048301527f0000000000000000000000000000000000000000000000000000000000000000811660248301526000917f00000000000000000000000000000000000000000000000000000000000000009091169063e6a4390590604401602060405180830381865afa158015610bcd573d6000803e3d6000fd5b505050506040513d601f19601f82011682018060405250810190610bf19190611222565b905060007f00000000000000000000000000000000000000000000000000000000000000006001600160a01b0316876001600160a01b031610610c3c57610c378261037a565b610c45565b610c4582610907565b905060008363ffffffff168660000154830381610c6457610c6461118e565b838855046001600160e01b038116600160e01b4263ffffffff1602811760018901556040519081529091506001600160a01b038916907f37063826a3cfcf7bacee74232fe1dbc1526d6b89bbefbb982a7e2d727cd2f28c9060200160405180910390a26001600160e01b0316979650505050505050565b600080610ce784610d01565b90506070610cf584836111e9565b901c9150505b92915050565b60007f00000000000000000000000000000000000000000000000000000000000000006001600160a01b0316826001600160a01b031603610d475750600160701b919050565b6001600160a01b03808316600090815260036020526040902054168015610dd9576040516355cd56ff60e11b81526001600160a01b03848116600483015282169063ab9aadfe90602401602060405180830381865afa158015610dae573d6000803e3d6000fd5b505050506040513d601f19601f82011682018060405250810190610dd29190611114565b9392505050565b610dd283610a20565b6001546001600160a01b03163314610e485760405162461bcd60e51b815260206004820152602360248201527f616363657074476f7665726e6f722f6e6f742d70656e64696e672d676f7665726044820152623737b960e91b60648201526084016104fa565b600180546001600160a01b031990811690915560008054339216821790556040519081527fbce074c8369e26e70e1ae2f14fc944da352cfe6f52e2de9572f0c9942a24b7fc9060200160405180910390a1565b6000546001600160a01b03163314610ef55760405162461bcd60e51b815260206004820152601f60248201527f73657450656e64696e67476f7665726e6f722f6e6f742d676f7665726e6f720060448201526064016104fa565b600180546001600160a01b0319166001600160a01b0383169081179091556040519081527f964dea888b00b2ab53f13dfe7ca334b46e99338c222ae232d98547a1da019f609060200160405180910390a150565b6001600160a01b0381168114610f5e57600080fd5b50565b600060208284031215610f7357600080fd5b8135610dd281610f49565b60008083601f840112610f9057600080fd5b50813567ffffffffffffffff811115610fa857600080fd5b6020830191508360208260051b8501011115610fc357600080fd5b9250929050565b600080600060408486031215610fdf57600080fd5b833567ffffffffffffffff811115610ff657600080fd5b61100286828701610f7e565b909450925050602084013561101681610f49565b809150509250925092565b60008060006060848603121561103657600080fd5b833561104181610f49565b9250602084013561105181610f49565b929592945050506040919091013590565b6000806020838503121561107557600080fd5b823567ffffffffffffffff81111561108c57600080fd5b61109885828601610f7e565b90969095509350505050565b6020808252825182820181905260009190848201906040850190845b818110156110dc578351835292840192918401916001016110c0565b50909695505050505050565b600080604083850312156110fb57600080fd5b823561110681610f49565b946020939093013593505050565b60006020828403121561112657600080fd5b5051919050565b80516001600160701b038116811461114457600080fd5b919050565b60008060006060848603121561115e57600080fd5b6111678461112d565b92506111756020850161112d565b9150604084015163ffffffff8116811461101657600080fd5b634e487b7160e01b600052601260045260246000fd5b634e487b7160e01b600052603260045260246000fd5b634e487b7160e01b600052601160045260246000fd5b6000600182016111e2576111e26111ba565b5060010190565b8082028115828204841417610cfb57610cfb6111ba565b60008261121d57634e487b7160e01b600052601260045260246000fd5b500490565b60006020828403121561123457600080fd5b8151610dd281610f49565b634e487b7160e01b600052604160045260246000fdfea2646970667358221220dcdc2e80b3a71b0bbfb4723b1bafa6e888177ca5cbd93003ca3c7b8794ed919c64736f6c63430008130033",
    "linkReferences": {}
  },
  "methodIdentifiers": {
    "acceptGovernor()": "e58bb639",
    "convert(address,address,uint256)": "248391ff",
    "currentPrice0Cumu(address)": "ae27980d",
    "currentPrice1Cumu(address)": "144ff194",
    "exts(address)": "72b71361",
    "factory()": "c45a0155",
    "getAssetETHPrice(address)": "d4f4dfe4",
    "getAssetETHValue(address,uint256)": "bd424684",
    "governor()": "0c340a24",
    "initPriceFromPair(address)": "460d5ffa",
    "massInitPriceFromPair(address[])": "27b113ca",
    "massUpdatePriceFromPair(address[])": "6378aa32",
    "minTwapTime()": "9a462f8f",
    "observations(address)": "8a04ff3c",
    "pendingGovernor()": "e3056a34",
    "setExternalOracle(address[],address)": "1e619911",
    "setPendingGovernor(address)": "f235757f",
    "updatePriceFromPair(address)": "bc388242",
    "weth()": "3fc8cef3"
  },
  "id": 40
}