{
  "abi": [
    {
      "inputs": [
        {
          "internalType": "address",
          "name": "_profusionBank",
          "type": "address"
        },
        {
          "internalType": "address",
          "name": "_weth",
          "type": "address"
        }
      ],
      "stateMutability": "nonpayable",
      "type": "constructor"
    },
    {
      "anonymous": false,
      "inputs": [
        {
          "indexed": true,
          "internalType": "address",
          "name": "previousOwner",
          "type": "address"
        },
        {
          "indexed": true,
          "internalType": "address",
          "name": "newOwner",
          "type": "address"
        }
      ],
      "name": "OwnershipTransferred",
      "type": "event"
    },
    {
      "inputs": [
        {
          "internalType": "uint256",
          "name": "_pid",
          "type": "uint256"
        },
        {
          "internalType": "address",
          "name": "_underlying",
          "type": "address"
        },
        {
          "internalType": "address",
          "name": "_collateral",
          "type": "address"
        },
        {
          "internalType": "uint256",
          "name": "_amountBorrow",
          "type": "uint256"
        },
        {
          "internalType": "uint256",
          "name": "_amountPut",
          "type": "uint256"
        }
      ],
      "name": "borrow",
      "outputs": [],
      "stateMutability": "payable",
      "type": "function"
    },
    {
      "inputs": [],
      "name": "owner",
      "outputs": [
        {
          "internalType": "address",
          "name": "",
          "type": "address"
        }
      ],
      "stateMutability": "view",
      "type": "function"
    },
    {
      "inputs": [],
      "name": "profusionBank",
      "outputs": [
        {
          "internalType": "address",
          "name": "",
          "type": "address"
        }
      ],
      "stateMutability": "view",
      "type": "function"
    },
    {
      "inputs": [
        {
          "internalType": "address",
          "name": "_token",
          "type": "address"
        },
        {
          "internalType": "uint256",
          "name": "_amount",
          "type": "uint256"
        }
      ],
      "name": "recover",
      "outputs": [],
      "stateMutability": "nonpayable",
      "type": "function"
    },
    {
      "inputs": [
        {
          "internalType": "uint256",
          "name": "_amount",
          "type": "uint256"
        }
      ],
      "name": "recoverETH",
      "outputs": [],
      "stateMutability": "nonpayable",
      "type": "function"
    },
    {
      "inputs": [],
      "name": "renounceOwnership",
      "outputs": [],
      "stateMutability": "nonpayable",
      "type": "function"
    },
    {
      "inputs": [
        {
          "internalType": "uint256",
          "name": "_pid",
          "type": "uint256"
        },
        {
          "internalType": "address",
          "name": "_underlying",
          "type": "address"
        },
        {
          "internalType": "address",
          "name": "_collateral",
          "type": "address"
        },
        {
          "internalType": "uint256",
          "name": "_amountRepay",
          "type": "uint256"
        },
        {
          "internalType": "uint256",
          "name": "_amountTake",
          "type": "uint256"
        }
      ],
      "name": "repay",
      "outputs": [],
      "stateMutability": "payable",
      "type": "function"
    },
    {
      "inputs": [
        {
          "internalType": "address",
          "name": "newOwner",
          "type": "address"
        }
      ],
      "name": "transferOwnership",
      "outputs": [],
      "stateMutability": "nonpayable",
      "type": "function"
    },
    {
      "inputs": [],
      "name": "weth",
      "outputs": [
        {
          "internalType": "address",
          "name": "",
          "type": "address"
        }
      ],
      "stateMutability": "view",
      "type": "function"
    },
    {
      "stateMutability": "payable",
      "type": "receive"
    }
  ],
  "bytecode": {
    "object": "0x60c06040523480156200001157600080fd5b5060405162001f0138038062001f0183398101604081905262000034916200058d565b818162000041336200015c565b60405163190676f760e31b81526001600160a01b0382811660048301526000919084169063c833b7b890602401602060405180830381865afa1580156200008c573d6000803e3d6000fd5b505050506040513d601f19601f82011682018060405250810190620000b29190620005c5565b90506001600160a01b038116620001105760405162461bcd60e51b815260206004820152601c60248201527f50726f667573696f6e52756e6e6572426173652f6e6f2d62776574680000000060448201526064015b60405180910390fd5b620001286001600160a01b03831684600019620001ac565b620001406001600160a01b03831682600019620001ac565b506001600160a01b039182166080521660a05250620006a19050565b600080546001600160a01b038381166001600160a01b0319831681178455604051919092169283917f8be0079c531659141344cd1fd0a4f28419497f9722a3daafe3b4186f6b6457e09190a35050565b8015806200022a5750604051636eb1769f60e11b81523060048201526001600160a01b03838116602483015284169063dd62ed3e90604401602060405180830381865afa15801562000202573d6000803e3d6000fd5b505050506040513d601f19601f82011682018060405250810190620002289190620005ea565b155b6200029e5760405162461bcd60e51b815260206004820152603660248201527f5361666545524332303a20617070726f76652066726f6d206e6f6e2d7a65726f60448201527f20746f206e6f6e2d7a65726f20616c6c6f77616e636500000000000000000000606482015260840162000107565b604080516001600160a01b038416602482015260448082018490528251808303909101815260649091019091526020810180516001600160e01b0390811663095ea7b360e01b17909152620002f6918591620002fb16565b505050565b6040805180820190915260208082527f5361666545524332303a206c6f772d6c6576656c2063616c6c206661696c6564908201526000906200034a906001600160a01b038516908490620003cc565b805190915015620002f657808060200190518101906200036b919062000604565b620002f65760405162461bcd60e51b815260206004820152602a60248201527f5361666545524332303a204552433230206f7065726174696f6e20646964206e6044820152691bdd081cdd58d8d9595960b21b606482015260840162000107565b6060620003dd8484600085620003e5565b949350505050565b606082471015620004485760405162461bcd60e51b815260206004820152602660248201527f416464726573733a20696e73756666696369656e742062616c616e636520666f6044820152651c8818d85b1b60d21b606482015260840162000107565b600080866001600160a01b031685876040516200046691906200064e565b60006040518083038185875af1925050503d8060008114620004a5576040519150601f19603f3d011682016040523d82523d6000602084013e620004aa565b606091505b509092509050620004be87838387620004c9565b979650505050505050565b606083156200053d57825160000362000535576001600160a01b0385163b620005355760405162461bcd60e51b815260206004820152601d60248201527f416464726573733a2063616c6c20746f206e6f6e2d636f6e7472616374000000604482015260640162000107565b5081620003dd565b620003dd8383815115620005545781518083602001fd5b8060405162461bcd60e51b81526004016200010791906200066c565b80516001600160a01b03811681146200058857600080fd5b919050565b60008060408385031215620005a157600080fd5b620005ac8362000570565b9150620005bc6020840162000570565b90509250929050565b600060208284031215620005d857600080fd5b620005e38262000570565b9392505050565b600060208284031215620005fd57600080fd5b5051919050565b6000602082840312156200061757600080fd5b81518015158114620005e357600080fd5b60005b83811015620006455781810151838201526020016200062b565b50506000910152565b600082516200066281846020870162000628565b9190910192915050565b60208152600082518060208401526200068d81604085016020870162000628565b601f01601f19169190910160400192915050565b60805160a0516117cb6200073660003960008181609a0152818161013e015281816105280152818161061501528181610b3d0152610b8a0152600081816101c3015281816107a5015281816108440152818161093d01528181610a0a01528181610a4601528181610ac601528181610cec01528181610d9201528181610e8a01528181610f6f0152610fef01526117cb6000f3fe60806040526004361061008a5760003560e01c8063715018a611610059578063715018a61461019c57806373535cbc146101b15780638da5cb5b146101e5578063d333555314610203578063f2fde38b1461022357600080fd5b80632a6f30d8146101065780632d857141146101195780633fc8cef31461012c5780635705ae431461017c57600080fd5b3661010157336001600160a01b037f000000000000000000000000000000000000000000000000000000000000000016146100ff5760405162461bcd60e51b815260206004820152601060248201526f0e4cac6cad2ecca5edcdee85aeecae8d60831b60448201526064015b60405180910390fd5b005b600080fd5b6100ff610114366004611593565b610243565b6100ff610127366004611593565b6102bd565b34801561013857600080fd5b506101607f000000000000000000000000000000000000000000000000000000000000000081565b6040516001600160a01b03909116815260200160405180910390f35b34801561018857600080fd5b506100ff6101973660046115e5565b61033d565b3480156101a857600080fd5b506100ff6103d1565b3480156101bd57600080fd5b506101607f000000000000000000000000000000000000000000000000000000000000000081565b3480156101f157600080fd5b506000546001600160a01b0316610160565b34801561020f57600080fd5b506100ff61021e366004611611565b6103e5565b34801561022f57600080fd5b506100ff61023e36600461162a565b6104ad565b3332146102925760405162461bcd60e51b815260206004820152601b60248201527f50726f667573696f6e52756e6e6572426173652f6e6f742d656f61000000000060448201526064016100f6565b61029d833383610526565b6102ab33868686868661076d565b6102b6843384610b3b565b5050505050565b33321461030c5760405162461bcd60e51b815260206004820152601b60248201527f50726f667573696f6e52756e6e6572426173652f6e6f742d656f61000000000060448201526064016100f6565b610317338684610cbe565b9150610324843384610526565b610332338686868686610d67565b6102b6833383610b3b565b610345611066565b60001981036103b9576040516370a0823160e01b81523060048201526001600160a01b038316906370a0823190602401602060405180830381865afa158015610392573d6000803e3d6000fd5b505050506040513d601f19601f820116820180604052508101906103b6919061164e565b90505b6103cd6001600160a01b03831633836110c0565b5050565b6103d9611066565b6103e36000611123565b565b6103ed611066565b60001981036103f95750475b604080516000808252602082019092523390839060405161041a919061168b565b60006040518083038185875af1925050503d8060008114610457576040519150601f19603f3d011682016040523d82523d6000602084013e61045c565b606091505b50509050806103cd5760405162461bcd60e51b815260206004820152601e60248201527f7265636f7665724554482f6574682d7472616e736665722d6661696c6564000060448201526064016100f6565b6104b5611066565b6001600160a01b03811661051a5760405162461bcd60e51b815260206004820152602660248201527f4f776e61626c653a206e6577206f776e657220697320746865207a65726f206160448201526564647265737360d01b60648201526084016100f6565b61052381611123565b50565b7f00000000000000000000000000000000000000000000000000000000000000006001600160a01b0316836001600160a01b031603610758576001600160a01b03821633146105b75760405162461bcd60e51b815260206004820152601b60248201527f5f7472616e73666572496e2f6e6f742d66726f6d2d73656e646572000000000060448201526064016100f6565b348111156106135760405162461bcd60e51b815260206004820152602360248201527f5f7472616e73666572496e2f696e73756666696369656e742d6574682d616d6f6044820152621d5b9d60ea1b60648201526084016100f6565b7f00000000000000000000000000000000000000000000000000000000000000006001600160a01b031663d0e30db0826040518263ffffffff1660e01b81526004016000604051808303818588803b15801561066e57600080fd5b505af1158015610682573d6000803e3d6000fd5b5050505050803411156107535760006001600160a01b0383166106a583346116a7565b604080516000815260208101918290526106be9161168b565b60006040518083038185875af1925050503d80600081146106fb576040519150601f19603f3d011682016040523d82523d6000602084013e610700565b606091505b50509050806107515760405162461bcd60e51b815260206004820152601f60248201527f5f7472616e73666572496e2f6574682d7472616e736665722d6661696c65640060448201526064016100f6565b505b505050565b6107536001600160a01b038416833084611173565b600019850361081957604051637b8feacb60e11b81526001600160a01b038781166004830152858116602483015284811660448301527f0000000000000000000000000000000000000000000000000000000000000000169063f71fd596906064016020604051808303816000875af11580156107ee573d6000803e3d6000fd5b505050506040513d601f19601f82011682018060405250810190610812919061164e565b9450610a04565b60405163e507470960e01b81526001600160a01b0387811660048301526024820187905260009182917f0000000000000000000000000000000000000000000000000000000000000000169063e5074709906044016040805180830381865afa15801561088a573d6000803e3d6000fd5b505050506040513d601f19601f820116820180604052508101906108ae91906116c8565b91509150816001600160a01b0316856001600160a01b03161461091e5760405162461bcd60e51b815260206004820152602260248201527f5f626f72726f772f636f6c6c61746572616c2d6e6f742d5f636f6c6c61746572604482015261185b60f21b60648201526084016100f6565b604051630cf351b560e31b81526001600160a01b0382811660048301527f0000000000000000000000000000000000000000000000000000000000000000169063679a8da890602401602060405180830381865afa158015610984573d6000803e3d6000fd5b505050506040513d601f19601f820116820180604052508101906109a89190611702565b6001600160a01b0316866001600160a01b031614610a015760405162461bcd60e51b81526020600482015260166024820152755f626f72726f772f6261642d756e6465726c79696e6760501b60448201526064016100f6565b50505b610a2f837f0000000000000000000000000000000000000000000000000000000000000000836111ab565b6040516315d21c8d60e11b81526001600160a01b037f00000000000000000000000000000000000000000000000000000000000000001690632ba4391a90610a7f9089908990869060040161171f565b600060405180830381600087803b158015610a9957600080fd5b505af1158015610aad573d6000803e3d6000fd5b505060405163c1bce0b760e01b81526001600160a01b037f000000000000000000000000000000000000000000000000000000000000000016925063c1bce0b79150610b019089908990879060040161171f565b600060405180830381600087803b158015610b1b57600080fd5b505af1158015610b2f573d6000803e3d6000fd5b50505050505050505050565b7f00000000000000000000000000000000000000000000000000000000000000006001600160a01b0316836001600160a01b031603610caa57604051632e1a7d4d60e01b8152600481018290527f00000000000000000000000000000000000000000000000000000000000000006001600160a01b031690632e1a7d4d90602401600060405180830381600087803b158015610bd657600080fd5b505af1158015610bea573d6000803e3d6000fd5b5050604080516000808252602082019283905293506001600160a01b03861692508491610c17919061168b565b60006040518083038185875af1925050503d8060008114610c54576040519150601f19603f3d011682016040523d82523d6000602084013e610c59565b606091505b50509050806107515760405162461bcd60e51b815260206004820181905260248201527f5f7472616e736665724f75742f6574682d7472616e736665722d6661696c656460448201526064016100f6565b6107536001600160a01b03841683836110c0565b604051620c3a4160e11b81526001600160a01b03848116600483015260248201849052600091610d5f9184917f00000000000000000000000000000000000000000000000000000000000000009091169062187482906044016020604051808303816000875af1158015610d36573d6000803e3d6000fd5b505050506040513d601f19601f82011682018060405250810190610d5a919061164e565b61125a565b949350505050565b60405163e507470960e01b81526001600160a01b0387811660048301526024820187905260009182917f0000000000000000000000000000000000000000000000000000000000000000169063e5074709906044016040805180830381865afa158015610dd8573d6000803e3d6000fd5b505050506040513d601f19601f82011682018060405250810190610dfc91906116c8565b91509150816001600160a01b0316856001600160a01b031614610e6b5760405162461bcd60e51b815260206004820152602160248201527f5f72657061792f636f6c6c61746572616c2d6e6f742d5f636f6c6c61746572616044820152601b60fa1b60648201526084016100f6565b604051630cf351b560e31b81526001600160a01b0382811660048301527f0000000000000000000000000000000000000000000000000000000000000000169063679a8da890602401602060405180830381865afa158015610ed1573d6000803e3d6000fd5b505050506040513d601f19601f82011682018060405250810190610ef59190611702565b6001600160a01b0316866001600160a01b031614610f4d5760405162461bcd60e51b81526020600482015260156024820152745f72657061792f6261642d756e6465726c79696e6760581b60448201526064016100f6565b610f588682866111ab565b604051638cd2e0c760e01b81526001600160a01b037f00000000000000000000000000000000000000000000000000000000000000001690638cd2e0c790610fa8908b908b90899060040161171f565b600060405180830381600087803b158015610fc257600080fd5b505af1158015610fd6573d6000803e3d6000fd5b505060405163c640e9bf60e01b81526001600160a01b037f000000000000000000000000000000000000000000000000000000000000000016925063c640e9bf915061102a908b908b90889060040161171f565b600060405180830381600087803b15801561104457600080fd5b505af1158015611058573d6000803e3d6000fd5b505050505050505050505050565b6000546001600160a01b031633146103e35760405162461bcd60e51b815260206004820181905260248201527f4f776e61626c653a2063616c6c6572206973206e6f7420746865206f776e657260448201526064016100f6565b6040516001600160a01b03831660248201526044810182905261075390849063a9059cbb60e01b906064015b60408051601f198184030181529190526020810180516001600160e01b03166001600160e01b031990931692909217909152611274565b600080546001600160a01b038381166001600160a01b0319831681178455604051919092169283917f8be0079c531659141344cd1fd0a4f28419497f9722a3daafe3b4186f6b6457e09190a35050565b6040516001600160a01b03808516602483015283166044820152606481018290526107519085906323b872dd60e01b906084016110ec565b604051636eb1769f60e11b81523060048201526001600160a01b0383811660248301526000919085169063dd62ed3e90604401602060405180830381865afa1580156111fb573d6000803e3d6000fd5b505050506040513d601f19601f8201168201806040525081019061121f919061164e565b905081811015610751578015611244576112446001600160a01b038516846000611346565b6107516001600160a01b03851684600019611346565b6000818310611269578161126b565b825b90505b92915050565b60006112c9826040518060400160405280602081526020017f5361666545524332303a206c6f772d6c6576656c2063616c6c206661696c6564815250856001600160a01b031661145b9092919063ffffffff16565b80519091501561075357808060200190518101906112e79190611740565b6107535760405162461bcd60e51b815260206004820152602a60248201527f5361666545524332303a204552433230206f7065726174696f6e20646964206e6044820152691bdd081cdd58d8d9595960b21b60648201526084016100f6565b8015806113c05750604051636eb1769f60e11b81523060048201526001600160a01b03838116602483015284169063dd62ed3e90604401602060405180830381865afa15801561139a573d6000803e3d6000fd5b505050506040513d601f19601f820116820180604052508101906113be919061164e565b155b61142b5760405162461bcd60e51b815260206004820152603660248201527f5361666545524332303a20617070726f76652066726f6d206e6f6e2d7a65726f60448201527520746f206e6f6e2d7a65726f20616c6c6f77616e636560501b60648201526084016100f6565b6040516001600160a01b03831660248201526044810182905261075390849063095ea7b360e01b906064016110ec565b6060610d5f848460008585600080866001600160a01b03168587604051611482919061168b565b60006040518083038185875af1925050503d80600081146114bf576040519150601f19603f3d011682016040523d82523d6000602084013e6114c4565b606091505b50915091506114d5878383876114e0565b979650505050505050565b6060831561154f578251600003611548576001600160a01b0385163b6115485760405162461bcd60e51b815260206004820152601d60248201527f416464726573733a2063616c6c20746f206e6f6e2d636f6e747261637400000060448201526064016100f6565b5081610d5f565b610d5f83838151156115645781518083602001fd5b8060405162461bcd60e51b81526004016100f69190611762565b6001600160a01b038116811461052357600080fd5b600080600080600060a086880312156115ab57600080fd5b8535945060208601356115bd8161157e565b935060408601356115cd8161157e565b94979396509394606081013594506080013592915050565b600080604083850312156115f857600080fd5b82356116038161157e565b946020939093013593505050565b60006020828403121561162357600080fd5b5035919050565b60006020828403121561163c57600080fd5b81356116478161157e565b9392505050565b60006020828403121561166057600080fd5b5051919050565b60005b8381101561168257818101518382015260200161166a565b50506000910152565b6000825161169d818460208701611667565b9190910192915050565b8181038181111561126e57634e487b7160e01b600052601160045260246000fd5b600080604083850312156116db57600080fd5b82516116e68161157e565b60208401519092506116f78161157e565b809150509250929050565b60006020828403121561171457600080fd5b81516116478161157e565b6001600160a01b039390931683526020830191909152604082015260600190565b60006020828403121561175257600080fd5b8151801515811461164757600080fd5b6020815260008251806020840152611781816040850160208701611667565b601f01601f1916919091016040019291505056fea26469706673582212209c4358dbe991b4ab57c2314a32c9ee293d34620f03e135746133e3fc9c0e755164736f6c63430008130033",
    "linkReferences": {}
  },
  "methodIdentifiers": {
    "borrow(uint256,address,address,uint256,uint256)": "2a6f30d8",
    "owner()": "8da5cb5b",
    "profusionBank()": "73535cbc",
    "recover(address,uint256)": "5705ae43",
    "recoverETH(uint256)": "d3335553",
    "renounceOwnership()": "715018a6",
    "repay(uint256,address,address,uint256,uint256)": "2d857141",
    "transferOwnership(address)": "f2fde38b",
    "weth()": "3fc8cef3"
  },
  "id": 42
}