{
  "abi": [
    {
      "inputs": [
        {
          "internalType": "address",
          "name": "_profusionBank",
          "type": "address"
        },
        {
          "internalType": "address",
          "name": "_weth",
          "type": "address"
        }
      ],
      "stateMutability": "nonpayable",
      "type": "constructor"
    },
    {
      "anonymous": false,
      "inputs": [
        {
          "indexed": true,
          "internalType": "address",
          "name": "previousOwner",
          "type": "address"
        },
        {
          "indexed": true,
          "internalType": "address",
          "name": "newOwner",
          "type": "address"
        }
      ],
      "name": "OwnershipTransferred",
      "type": "event"
    },
    {
      "inputs": [],
      "name": "owner",
      "outputs": [
        {
          "internalType": "address",
          "name": "",
          "type": "address"
        }
      ],
      "stateMutability": "view",
      "type": "function"
    },
    {
      "inputs": [],
      "name": "profusionBank",
      "outputs": [
        {
          "internalType": "address",
          "name": "",
          "type": "address"
        }
      ],
      "stateMutability": "view",
      "type": "function"
    },
    {
      "inputs": [
        {
          "internalType": "address",
          "name": "_token",
          "type": "address"
        },
        {
          "internalType": "uint256",
          "name": "_amount",
          "type": "uint256"
        }
      ],
      "name": "recover",
      "outputs": [],
      "stateMutability": "nonpayable",
      "type": "function"
    },
    {
      "inputs": [
        {
          "internalType": "uint256",
          "name": "_amount",
          "type": "uint256"
        }
      ],
      "name": "recoverETH",
      "outputs": [],
      "stateMutability": "nonpayable",
      "type": "function"
    },
    {
      "inputs": [],
      "name": "renounceOwnership",
      "outputs": [],
      "stateMutability": "nonpayable",
      "type": "function"
    },
    {
      "inputs": [
        {
          "internalType": "address",
          "name": "newOwner",
          "type": "address"
        }
      ],
      "name": "transferOwnership",
      "outputs": [],
      "stateMutability": "nonpayable",
      "type": "function"
    },
    {
      "inputs": [],
      "name": "weth",
      "outputs": [
        {
          "internalType": "address",
          "name": "",
          "type": "address"
        }
      ],
      "stateMutability": "view",
      "type": "function"
    },
    {
      "stateMutability": "payable",
      "type": "receive"
    }
  ],
  "bytecode": {
    "object": "0x60c06040523480156200001157600080fd5b5060405162000f8038038062000f80833981016040819052620000349162000588565b6200003f3362000157565b60405163190676f760e31b81526001600160a01b0382811660048301526000919084169063c833b7b890602401602060405180830381865afa1580156200008a573d6000803e3d6000fd5b505050506040513d601f19601f82011682018060405250810190620000b09190620005c0565b90506001600160a01b0381166200010e5760405162461bcd60e51b815260206004820152601c60248201527f50726f667573696f6e52756e6e6572426173652f6e6f2d62776574680000000060448201526064015b60405180910390fd5b620001266001600160a01b03831684600019620001a7565b6200013e6001600160a01b03831682600019620001a7565b506001600160a01b039182166080521660a0526200069c565b600080546001600160a01b038381166001600160a01b0319831681178455604051919092169283917f8be0079c531659141344cd1fd0a4f28419497f9722a3daafe3b4186f6b6457e09190a35050565b801580620002255750604051636eb1769f60e11b81523060048201526001600160a01b03838116602483015284169063dd62ed3e90604401602060405180830381865afa158015620001fd573d6000803e3d6000fd5b505050506040513d601f19601f82011682018060405250810190620002239190620005e5565b155b620002995760405162461bcd60e51b815260206004820152603660248201527f5361666545524332303a20617070726f76652066726f6d206e6f6e2d7a65726f60448201527f20746f206e6f6e2d7a65726f20616c6c6f77616e636500000000000000000000606482015260840162000105565b604080516001600160a01b038416602482015260448082018490528251808303909101815260649091019091526020810180516001600160e01b0390811663095ea7b360e01b17909152620002f1918591620002f616565b505050565b6040805180820190915260208082527f5361666545524332303a206c6f772d6c6576656c2063616c6c206661696c65649082015260009062000345906001600160a01b038516908490620003c7565b805190915015620002f15780806020019051810190620003669190620005ff565b620002f15760405162461bcd60e51b815260206004820152602a60248201527f5361666545524332303a204552433230206f7065726174696f6e20646964206e6044820152691bdd081cdd58d8d9595960b21b606482015260840162000105565b6060620003d88484600085620003e0565b949350505050565b606082471015620004435760405162461bcd60e51b815260206004820152602660248201527f416464726573733a20696e73756666696369656e742062616c616e636520666f6044820152651c8818d85b1b60d21b606482015260840162000105565b600080866001600160a01b0316858760405162000461919062000649565b60006040518083038185875af1925050503d8060008114620004a0576040519150601f19603f3d011682016040523d82523d6000602084013e620004a5565b606091505b509092509050620004b987838387620004c4565b979650505050505050565b606083156200053857825160000362000530576001600160a01b0385163b620005305760405162461bcd60e51b815260206004820152601d60248201527f416464726573733a2063616c6c20746f206e6f6e2d636f6e7472616374000000604482015260640162000105565b5081620003d8565b620003d883838151156200054f5781518083602001fd5b8060405162461bcd60e51b815260040162000105919062000667565b80516001600160a01b03811681146200058357600080fd5b919050565b600080604083850312156200059c57600080fd5b620005a7836200056b565b9150620005b7602084016200056b565b90509250929050565b600060208284031215620005d357600080fd5b620005de826200056b565b9392505050565b600060208284031215620005f857600080fd5b5051919050565b6000602082840312156200061257600080fd5b81518015158114620005de57600080fd5b60005b838110156200064057818101518382015260200162000626565b50506000910152565b600082516200065d81846020870162000623565b9190910192915050565b60208152600082518060208401526200068881604085016020870162000623565b601f01601f19169190910160400192915050565b60805160a0516108b8620006c860003960008181608401526101020152600061018701526108b86000f3fe6080604052600436106100745760003560e01c806373535cbc1161004e57806373535cbc146101755780638da5cb5b146101a9578063d3335553146101c7578063f2fde38b146101e757600080fd5b80633fc8cef3146100f05780635705ae4314610140578063715018a61461016057600080fd5b366100eb57336001600160a01b037f000000000000000000000000000000000000000000000000000000000000000016146100e95760405162461bcd60e51b815260206004820152601060248201526f0e4cac6cad2ecca5edcdee85aeecae8d60831b60448201526064015b60405180910390fd5b005b600080fd5b3480156100fc57600080fd5b506101247f000000000000000000000000000000000000000000000000000000000000000081565b6040516001600160a01b03909116815260200160405180910390f35b34801561014c57600080fd5b506100e961015b36600461076f565b610207565b34801561016c57600080fd5b506100e961029b565b34801561018157600080fd5b506101247f000000000000000000000000000000000000000000000000000000000000000081565b3480156101b557600080fd5b506000546001600160a01b0316610124565b3480156101d357600080fd5b506100e96101e2366004610799565b6102af565b3480156101f357600080fd5b506100e96102023660046107b2565b610377565b61020f6103f0565b6000198103610283576040516370a0823160e01b81523060048201526001600160a01b038316906370a0823190602401602060405180830381865afa15801561025c573d6000803e3d6000fd5b505050506040513d601f19601f8201168201806040525081019061028091906107d4565b90505b6102976001600160a01b038316338361044a565b5050565b6102a36103f0565b6102ad60006104a1565b565b6102b76103f0565b60001981036102c35750475b60408051600080825260208201909252339083906040516102e49190610811565b60006040518083038185875af1925050503d8060008114610321576040519150601f19603f3d011682016040523d82523d6000602084013e610326565b606091505b50509050806102975760405162461bcd60e51b815260206004820152601e60248201527f7265636f7665724554482f6574682d7472616e736665722d6661696c6564000060448201526064016100e0565b61037f6103f0565b6001600160a01b0381166103e45760405162461bcd60e51b815260206004820152602660248201527f4f776e61626c653a206e6577206f776e657220697320746865207a65726f206160448201526564647265737360d01b60648201526084016100e0565b6103ed816104a1565b50565b6000546001600160a01b031633146102ad5760405162461bcd60e51b815260206004820181905260248201527f4f776e61626c653a2063616c6c6572206973206e6f7420746865206f776e657260448201526064016100e0565b604080516001600160a01b038416602482015260448082018490528251808303909101815260649091019091526020810180516001600160e01b031663a9059cbb60e01b17905261049c9084906104f1565b505050565b600080546001600160a01b038381166001600160a01b0319831681178455604051919092169283917f8be0079c531659141344cd1fd0a4f28419497f9722a3daafe3b4186f6b6457e09190a35050565b6000610546826040518060400160405280602081526020017f5361666545524332303a206c6f772d6c6576656c2063616c6c206661696c6564815250856001600160a01b03166105c39092919063ffffffff16565b80519091501561049c5780806020019051810190610564919061082d565b61049c5760405162461bcd60e51b815260206004820152602a60248201527f5361666545524332303a204552433230206f7065726174696f6e20646964206e6044820152691bdd081cdd58d8d9595960b21b60648201526084016100e0565b60606105d284846000856105da565b949350505050565b60608247101561063b5760405162461bcd60e51b815260206004820152602660248201527f416464726573733a20696e73756666696369656e742062616c616e636520666f6044820152651c8818d85b1b60d21b60648201526084016100e0565b600080866001600160a01b031685876040516106579190610811565b60006040518083038185875af1925050503d8060008114610694576040519150601f19603f3d011682016040523d82523d6000602084013e610699565b606091505b50915091506106aa878383876106b5565b979650505050505050565b6060831561072457825160000361071d576001600160a01b0385163b61071d5760405162461bcd60e51b815260206004820152601d60248201527f416464726573733a2063616c6c20746f206e6f6e2d636f6e747261637400000060448201526064016100e0565b50816105d2565b6105d283838151156107395781518083602001fd5b8060405162461bcd60e51b81526004016100e0919061084f565b80356001600160a01b038116811461076a57600080fd5b919050565b6000806040838503121561078257600080fd5b61078b83610753565b946020939093013593505050565b6000602082840312156107ab57600080fd5b5035919050565b6000602082840312156107c457600080fd5b6107cd82610753565b9392505050565b6000602082840312156107e657600080fd5b5051919050565b60005b838110156108085781810151838201526020016107f0565b50506000910152565b600082516108238184602087016107ed565b9190910192915050565b60006020828403121561083f57600080fd5b815180151581146107cd57600080fd5b602081526000825180602084015261086e8160408501602087016107ed565b601f01601f1916919091016040019291505056fea2646970667358221220b4a515454c487d604ddc26577125bb7688841061b2e76da58ad6b24b69fbc7c564736f6c63430008130033",
    "linkReferences": {}
  },
  "methodIdentifiers": {
    "owner()": "8da5cb5b",
    "profusionBank()": "73535cbc",
    "recover(address,uint256)": "5705ae43",
    "recoverETH(uint256)": "d3335553",
    "renounceOwnership()": "715018a6",
    "transferOwnership(address)": "f2fde38b",
    "weth()": "3fc8cef3"
  },
  "id": 41
}