{
  "abi": [
    {
      "anonymous": false,
      "inputs": [
        {
          "indexed": true,
          "internalType": "address",
          "name": "owner",
          "type": "address"
        },
        {
          "indexed": true,
          "internalType": "uint256",
          "name": "pid",
          "type": "uint256"
        },
        {
          "indexed": false,
          "internalType": "uint256",
          "name": "amount",
          "type": "uint256"
        },
        {
          "indexed": false,
          "internalType": "uint256",
          "name": "share",
          "type": "uint256"
        },
        {
          "indexed": false,
          "internalType": "address",
          "name": "borrower",
          "type": "address"
        }
      ],
      "name": "Borrow",
      "type": "event"
    },
    {
      "anonymous": false,
      "inputs": [
        {
          "indexed": true,
          "internalType": "address",
          "name": "underlying",
          "type": "address"
        },
        {
          "indexed": false,
          "internalType": "address",
          "name": "pfToken",
          "type": "address"
        }
      ],
      "name": "Create",
      "type": "event"
    },
    {
      "anonymous": false,
      "inputs": [
        {
          "indexed": false,
          "internalType": "uint8",
          "name": "version",
          "type": "uint8"
        }
      ],
      "name": "Initialized",
      "type": "event"
    },
    {
      "anonymous": false,
      "inputs": [
        {
          "indexed": true,
          "internalType": "address",
          "name": "owner",
          "type": "address"
        },
        {
          "indexed": true,
          "internalType": "uint256",
          "name": "pid",
          "type": "uint256"
        },
        {
          "indexed": false,
          "internalType": "uint256",
          "name": "amount",
          "type": "uint256"
        },
        {
          "indexed": false,
          "internalType": "uint256",
          "name": "share",
          "type": "uint256"
        },
        {
          "indexed": false,
          "internalType": "uint256",
          "name": "reward",
          "type": "uint256"
        },
        {
          "indexed": false,
          "internalType": "address",
          "name": "caller",
          "type": "address"
        }
      ],
      "name": "Liquidate",
      "type": "event"
    },
    {
      "anonymous": false,
      "inputs": [
        {
          "indexed": true,
          "internalType": "address",
          "name": "owner",
          "type": "address"
        },
        {
          "indexed": true,
          "internalType": "uint256",
          "name": "pid",
          "type": "uint256"
        },
        {
          "indexed": false,
          "internalType": "address",
          "name": "pfToken",
          "type": "address"
        },
        {
          "indexed": false,
          "internalType": "address",
          "name": "collateral",
          "type": "address"
        }
      ],
      "name": "Open",
      "type": "event"
    },
    {
      "anonymous": false,
      "inputs": [
        {
          "indexed": false,
          "internalType": "address",
          "name": "account",
          "type": "address"
        }
      ],
      "name": "Paused",
      "type": "event"
    },
    {
      "anonymous": false,
      "inputs": [
        {
          "indexed": true,
          "internalType": "address",
          "name": "owner",
          "type": "address"
        },
        {
          "indexed": true,
          "internalType": "uint256",
          "name": "pid",
          "type": "uint256"
        },
        {
          "indexed": false,
          "internalType": "uint256",
          "name": "amount",
          "type": "uint256"
        },
        {
          "indexed": false,
          "internalType": "address",
          "name": "payer",
          "type": "address"
        }
      ],
      "name": "Put",
      "type": "event"
    },
    {
      "anonymous": false,
      "inputs": [
        {
          "indexed": true,
          "internalType": "address",
          "name": "owner",
          "type": "address"
        },
        {
          "indexed": true,
          "internalType": "uint256",
          "name": "pid",
          "type": "uint256"
        },
        {
          "indexed": false,
          "internalType": "uint256",
          "name": "amount",
          "type": "uint256"
        },
        {
          "indexed": false,
          "internalType": "uint256",
          "name": "share",
          "type": "uint256"
        },
        {
          "indexed": false,
          "internalType": "address",
          "name": "payer",
          "type": "address"
        }
      ],
      "name": "Repay",
      "type": "event"
    },
    {
      "anonymous": false,
      "inputs": [
        {
          "indexed": true,
          "internalType": "address",
          "name": "owner",
          "type": "address"
        },
        {
          "indexed": true,
          "internalType": "uint256",
          "name": "pid",
          "type": "uint256"
        },
        {
          "indexed": false,
          "internalType": "uint256",
          "name": "amount",
          "type": "uint256"
        },
        {
          "indexed": false,
          "internalType": "uint256",
          "name": "share",
          "type": "uint256"
        },
        {
          "indexed": false,
          "internalType": "address",
          "name": "caller",
          "type": "address"
        }
      ],
      "name": "SelflessLiquidate",
      "type": "event"
    },
    {
      "anonymous": false,
      "inputs": [
        {
          "indexed": false,
          "internalType": "bool",
          "name": "ok",
          "type": "bool"
        }
      ],
      "name": "SetAllowPublicCreate",
      "type": "event"
    },
    {
      "anonymous": false,
      "inputs": [
        {
          "indexed": false,
          "internalType": "address",
          "name": "config",
          "type": "address"
        }
      ],
      "name": "SetConfig",
      "type": "event"
    },
    {
      "anonymous": false,
      "inputs": [
        {
          "indexed": false,
          "internalType": "address",
          "name": "governor",
          "type": "address"
        }
      ],
      "name": "SetGovernor",
      "type": "event"
    },
    {
      "anonymous": false,
      "inputs": [
        {
          "indexed": false,
          "internalType": "address",
          "name": "interestModel",
          "type": "address"
        }
      ],
      "name": "SetInterestModel",
      "type": "event"
    },
    {
      "anonymous": false,
      "inputs": [
        {
          "indexed": false,
          "internalType": "address",
          "name": "oracle",
          "type": "address"
        }
      ],
      "name": "SetOracle",
      "type": "event"
    },
    {
      "anonymous": false,
      "inputs": [
        {
          "indexed": true,
          "internalType": "address",
          "name": "owner",
          "type": "address"
        },
        {
          "indexed": false,
          "internalType": "bool",
          "name": "ok",
          "type": "bool"
        }
      ],
      "name": "SetOwnerWhitelist",
      "type": "event"
    },
    {
      "anonymous": false,
      "inputs": [
        {
          "indexed": false,
          "internalType": "address",
          "name": "pendingGovernor",
          "type": "address"
        }
      ],
      "name": "SetPendingGovernor",
      "type": "event"
    },
    {
      "anonymous": false,
      "inputs": [
        {
          "indexed": true,
          "internalType": "address",
          "name": "runner",
          "type": "address"
        },
        {
          "indexed": false,
          "internalType": "bool",
          "name": "ok",
          "type": "bool"
        }
      ],
      "name": "SetRunnerWhitelist",
      "type": "event"
    },
    {
      "anonymous": false,
      "inputs": [
        {
          "indexed": true,
          "internalType": "address",
          "name": "owner",
          "type": "address"
        },
        {
          "indexed": true,
          "internalType": "uint256",
          "name": "pid",
          "type": "uint256"
        },
        {
          "indexed": false,
          "internalType": "uint256",
          "name": "amount",
          "type": "uint256"
        },
        {
          "indexed": false,
          "internalType": "address",
          "name": "to",
          "type": "address"
        }
      ],
      "name": "Take",
      "type": "event"
    },
    {
      "anonymous": false,
      "inputs": [
        {
          "indexed": false,
          "internalType": "address",
          "name": "account",
          "type": "address"
        }
      ],
      "name": "Unpaused",
      "type": "event"
    },
    {
      "inputs": [],
      "name": "acceptGovernor",
      "outputs": [],
      "stateMutability": "nonpayable",
      "type": "function"
    },
    {
      "inputs": [],
      "name": "allowPublicCreate",
      "outputs": [
        {
          "internalType": "bool",
          "name": "",
          "type": "bool"
        }
      ],
      "stateMutability": "view",
      "type": "function"
    },
    {
      "inputs": [
        {
          "internalType": "address",
          "name": "_owner",
          "type": "address"
        },
        {
          "internalType": "uint256",
          "name": "_pid",
          "type": "uint256"
        },
        {
          "internalType": "uint256",
          "name": "_amount",
          "type": "uint256"
        }
      ],
      "name": "borrow",
      "outputs": [],
      "stateMutability": "nonpayable",
      "type": "function"
    },
    {
      "inputs": [],
      "name": "config",
      "outputs": [
        {
          "internalType": "address",
          "name": "",
          "type": "address"
        }
      ],
      "stateMutability": "view",
      "type": "function"
    },
    {
      "inputs": [
        {
          "internalType": "address",
          "name": "_underlying",
          "type": "address"
        }
      ],
      "name": "create",
      "outputs": [
        {
          "internalType": "address",
          "name": "pfToken",
          "type": "address"
        }
      ],
      "stateMutability": "nonpayable",
      "type": "function"
    },
    {
      "inputs": [],
      "name": "deployer",
      "outputs": [
        {
          "internalType": "address",
          "name": "",
          "type": "address"
        }
      ],
      "stateMutability": "view",
      "type": "function"
    },
    {
      "inputs": [
        {
          "internalType": "address",
          "name": "_owner",
          "type": "address"
        },
        {
          "internalType": "uint256",
          "name": "_pid",
          "type": "uint256"
        }
      ],
      "name": "fetchPositionDebt",
      "outputs": [
        {
          "internalType": "uint256",
          "name": "",
          "type": "uint256"
        }
      ],
      "stateMutability": "nonpayable",
      "type": "function"
    },
    {
      "inputs": [
        {
          "internalType": "address",
          "name": "_owner",
          "type": "address"
        },
        {
          "internalType": "uint256",
          "name": "_pid",
          "type": "uint256"
        }
      ],
      "name": "fetchPositionLTV",
      "outputs": [
        {
          "internalType": "uint256",
          "name": "",
          "type": "uint256"
        }
      ],
      "stateMutability": "nonpayable",
      "type": "function"
    },
    {
      "inputs": [
        {
          "internalType": "address",
          "name": "_owner",
          "type": "address"
        },
        {
          "internalType": "uint256",
          "name": "_pid",
          "type": "uint256"
        }
      ],
      "name": "getPositionTokens",
      "outputs": [
        {
          "internalType": "address",
          "name": "_collateral",
          "type": "address"
        },
        {
          "internalType": "address",
          "name": "_pfToken",
          "type": "address"
        }
      ],
      "stateMutability": "view",
      "type": "function"
    },
    {
      "inputs": [],
      "name": "governor",
      "outputs": [
        {
          "internalType": "address",
          "name": "",
          "type": "address"
        }
      ],
      "stateMutability": "view",
      "type": "function"
    },
    {
      "inputs": [
        {
          "internalType": "address",
          "name": "_governor",
          "type": "address"
        },
        {
          "internalType": "address",
          "name": "_deployer",
          "type": "address"
        },
        {
          "internalType": "address",
          "name": "_oracle",
          "type": "address"
        },
        {
          "internalType": "address",
          "name": "_config",
          "type": "address"
        },
        {
          "internalType": "address",
          "name": "_interestModel",
          "type": "address"
        }
      ],
      "name": "initialize",
      "outputs": [],
      "stateMutability": "nonpayable",
      "type": "function"
    },
    {
      "inputs": [],
      "name": "interestModel",
      "outputs": [
        {
          "internalType": "address",
          "name": "",
          "type": "address"
        }
      ],
      "stateMutability": "view",
      "type": "function"
    },
    {
      "inputs": [
        {
          "internalType": "address",
          "name": "_owner",
          "type": "address"
        },
        {
          "internalType": "address",
          "name": "_sender",
          "type": "address"
        }
      ],
      "name": "isPermittedCaller",
      "outputs": [
        {
          "internalType": "bool",
          "name": "",
          "type": "bool"
        }
      ],
      "stateMutability": "view",
      "type": "function"
    },
    {
      "inputs": [
        {
          "internalType": "address",
          "name": "_owner",
          "type": "address"
        },
        {
          "internalType": "uint256",
          "name": "_pid",
          "type": "uint256"
        },
        {
          "internalType": "uint256",
          "name": "_amount",
          "type": "uint256"
        }
      ],
      "name": "liquidate",
      "outputs": [],
      "stateMutability": "nonpayable",
      "type": "function"
    },
    {
      "inputs": [
        {
          "internalType": "address",
          "name": "",
          "type": "address"
        }
      ],
      "name": "nextPositionIds",
      "outputs": [
        {
          "internalType": "uint256",
          "name": "",
          "type": "uint256"
        }
      ],
      "stateMutability": "view",
      "type": "function"
    },
    {
      "inputs": [
        {
          "internalType": "address",
          "name": "_owner",
          "type": "address"
        },
        {
          "internalType": "address",
          "name": "_underlying",
          "type": "address"
        },
        {
          "internalType": "address",
          "name": "_collateral",
          "type": "address"
        }
      ],
      "name": "open",
      "outputs": [
        {
          "internalType": "uint256",
          "name": "pid",
          "type": "uint256"
        }
      ],
      "stateMutability": "nonpayable",
      "type": "function"
    },
    {
      "inputs": [],
      "name": "oracle",
      "outputs": [
        {
          "internalType": "address",
          "name": "",
          "type": "address"
        }
      ],
      "stateMutability": "view",
      "type": "function"
    },
    {
      "inputs": [
        {
          "internalType": "address",
          "name": "",
          "type": "address"
        }
      ],
      "name": "ownerWhitelists",
      "outputs": [
        {
          "internalType": "bool",
          "name": "",
          "type": "bool"
        }
      ],
      "stateMutability": "view",
      "type": "function"
    },
    {
      "inputs": [],
      "name": "pause",
      "outputs": [],
      "stateMutability": "nonpayable",
      "type": "function"
    },
    {
      "inputs": [],
      "name": "paused",
      "outputs": [
        {
          "internalType": "bool",
          "name": "",
          "type": "bool"
        }
      ],
      "stateMutability": "view",
      "type": "function"
    },
    {
      "inputs": [],
      "name": "pendingGovernor",
      "outputs": [
        {
          "internalType": "address",
          "name": "",
          "type": "address"
        }
      ],
      "stateMutability": "view",
      "type": "function"
    },
    {
      "inputs": [
        {
          "internalType": "address",
          "name": "",
          "type": "address"
        }
      ],
      "name": "pfTokens",
      "outputs": [
        {
          "internalType": "address",
          "name": "",
          "type": "address"
        }
      ],
      "stateMutability": "view",
      "type": "function"
    },
    {
      "inputs": [
        {
          "internalType": "address",
          "name": "",
          "type": "address"
        },
        {
          "internalType": "uint256",
          "name": "",
          "type": "uint256"
        }
      ],
      "name": "positions",
      "outputs": [
        {
          "internalType": "uint32",
          "name": "blockBorrowPut",
          "type": "uint32"
        },
        {
          "internalType": "uint32",
          "name": "blockRepayTake",
          "type": "uint32"
        },
        {
          "internalType": "address",
          "name": "pfToken",
          "type": "address"
        },
        {
          "internalType": "address",
          "name": "collateral",
          "type": "address"
        },
        {
          "internalType": "uint256",
          "name": "collateralSize",
          "type": "uint256"
        },
        {
          "internalType": "uint256",
          "name": "debtShare",
          "type": "uint256"
        }
      ],
      "stateMutability": "view",
      "type": "function"
    },
    {
      "inputs": [
        {
          "internalType": "address",
          "name": "_owner",
          "type": "address"
        },
        {
          "internalType": "uint256",
          "name": "_pid",
          "type": "uint256"
        },
        {
          "internalType": "uint256",
          "name": "_amount",
          "type": "uint256"
        }
      ],
      "name": "put",
      "outputs": [],
      "stateMutability": "nonpayable",
      "type": "function"
    },
    {
      "inputs": [
        {
          "internalType": "address",
          "name": "_pfToken",
          "type": "address"
        },
        {
          "internalType": "address",
          "name": "_token",
          "type": "address"
        },
        {
          "internalType": "uint256",
          "name": "_amount",
          "type": "uint256"
        }
      ],
      "name": "recover",
      "outputs": [],
      "stateMutability": "nonpayable",
      "type": "function"
    },
    {
      "inputs": [
        {
          "internalType": "address",
          "name": "_owner",
          "type": "address"
        },
        {
          "internalType": "uint256",
          "name": "_pid",
          "type": "uint256"
        },
        {
          "internalType": "uint256",
          "name": "_amount",
          "type": "uint256"
        }
      ],
      "name": "repay",
      "outputs": [],
      "stateMutability": "nonpayable",
      "type": "function"
    },
    {
      "inputs": [
        {
          "internalType": "address",
          "name": "",
          "type": "address"
        }
      ],
      "name": "runnerWhitelists",
      "outputs": [
        {
          "internalType": "bool",
          "name": "",
          "type": "bool"
        }
      ],
      "stateMutability": "view",
      "type": "function"
    },
    {
      "inputs": [
        {
          "internalType": "address",
          "name": "_owner",
          "type": "address"
        },
        {
          "internalType": "uint256",
          "name": "_pid",
          "type": "uint256"
        },
        {
          "internalType": "uint256",
          "name": "_amount",
          "type": "uint256"
        }
      ],
      "name": "selflessLiquidate",
      "outputs": [],
      "stateMutability": "nonpayable",
      "type": "function"
    },
    {
      "inputs": [
        {
          "internalType": "bool",
          "name": "_ok",
          "type": "bool"
        }
      ],
      "name": "setAllowPublicCreate",
      "outputs": [],
      "stateMutability": "nonpayable",
      "type": "function"
    },
    {
      "inputs": [
        {
          "internalType": "address",
          "name": "_config",
          "type": "address"
        }
      ],
      "name": "setConfig",
      "outputs": [],
      "stateMutability": "nonpayable",
      "type": "function"
    },
    {
      "inputs": [
        {
          "internalType": "address",
          "name": "_interestModel",
          "type": "address"
        }
      ],
      "name": "setInterestModel",
      "outputs": [],
      "stateMutability": "nonpayable",
      "type": "function"
    },
    {
      "inputs": [
        {
          "internalType": "address",
          "name": "_oracle",
          "type": "address"
        }
      ],
      "name": "setOracle",
      "outputs": [],
      "stateMutability": "nonpayable",
      "type": "function"
    },
    {
      "inputs": [
        {
          "internalType": "address[]",
          "name": "_owners",
          "type": "address[]"
        },
        {
          "internalType": "bool",
          "name": "ok",
          "type": "bool"
        }
      ],
      "name": "setOwnerWhitelists",
      "outputs": [],
      "stateMutability": "nonpayable",
      "type": "function"
    },
    {
      "inputs": [
        {
          "internalType": "address",
          "name": "_pendingGovernor",
          "type": "address"
        }
      ],
      "name": "setPendingGovernor",
      "outputs": [],
      "stateMutability": "nonpayable",
      "type": "function"
    },
    {
      "inputs": [
        {
          "internalType": "address[]",
          "name": "_runners",
          "type": "address[]"
        },
        {
          "internalType": "bool",
          "name": "ok",
          "type": "bool"
        }
      ],
      "name": "setRunnerWhitelists",
      "outputs": [],
      "stateMutability": "nonpayable",
      "type": "function"
    },
    {
      "inputs": [
        {
          "internalType": "address",
          "name": "_owner",
          "type": "address"
        },
        {
          "internalType": "uint256",
          "name": "_pid",
          "type": "uint256"
        },
        {
          "internalType": "uint256",
          "name": "_amount",
          "type": "uint256"
        }
      ],
      "name": "take",
      "outputs": [],
      "stateMutability": "nonpayable",
      "type": "function"
    },
    {
      "inputs": [
        {
          "internalType": "address",
          "name": "",
          "type": "address"
        }
      ],
      "name": "totalCollaterals",
      "outputs": [
        {
          "internalType": "uint256",
          "name": "",
          "type": "uint256"
        }
      ],
      "stateMutability": "view",
      "type": "function"
    },
    {
      "inputs": [
        {
          "internalType": "address",
          "name": "",
          "type": "address"
        }
      ],
      "name": "underlyings",
      "outputs": [
        {
          "internalType": "address",
          "name": "",
          "type": "address"
        }
      ],
      "stateMutability": "view",
      "type": "function"
    },
    {
      "inputs": [],
      "name": "unpause",
      "outputs": [],
      "stateMutability": "nonpayable",
      "type": "function"
    }
  ],
  "bytecode": {
    "object": "0x608060405234801561001057600080fd5b506000805462ff000019169055613c728061002c6000396000f3fe608060405234801561001057600080fd5b506004361061023c5760003560e01c80638cd2e0c71161013b578063c1be6677116100b8578063e3056a341161007c578063e3056a34146105e7578063e5074709146105fa578063e58bb6391461062d578063f235757f14610635578063f71fd5961461064857600080fd5b8063c1be6677146104de578063c640e9bf14610585578063c833b7b814610598578063c9c8eb6c146105c1578063d5f39488146105d457600080fd5b8063ac165d7a116100ff578063ac165d7a14610471578063b0886fe414610484578063b5beb20b14610498578063bf1f53b6146104ab578063c1bce0b7146104cb57600080fd5b80638cd2e0c7146103e557806390427116146103f85780639413126a1461041b5780639ed933181461043e578063ab01040e1461045157600080fd5b80634e16cf42116101c957806379502c551161018d57806379502c55146103915780637adbf973146103a45780637dc0d1d0146103b757806382762062146103ca5780638456cb59146103dd57600080fd5b80634e16cf421461030e57806351a491ad146103215780635c975abb14610344578063679a8da8146103555780636e3f5d521461037e57600080fd5b80631ec82cb8116102105780631ec82cb8146102ba57806320e3dbd4146102cd5780632ba4391a146102e057806333e1cf5d146102f35780633f4ba83a1461030657600080fd5b8062187482146102415780630710285c146102675780630c340a241461027c5780631459457a146102a7575b600080fd5b61025461024f3660046137af565b61065b565b6040519081526020015b60405180910390f35b61027a6102753660046137db565b610742565b005b60065461028f906001600160a01b031681565b6040516001600160a01b03909116815260200161025e565b61027a6102b5366004613810565b610ce2565b61027a6102c8366004613881565b6110ed565b61027a6102db3660046138c2565b61120c565b61027a6102ee3660046137db565b6112da565b61027a6103013660046138f4565b6116e8565b61027a61175f565b61027a61031c366004613911565b61179b565b61033461032f366004613997565b6118a7565b604051901515815260200161025e565b60005462010000900460ff16610334565b61028f6103633660046138c2565b6009602052600090815260409020546001600160a01b031681565b61027a61038c3660046138c2565b611921565b60045461028f906001600160a01b031681565b61027a6103b23660046138c2565b6119ef565b60035461028f906001600160a01b031681565b6102546103d83660046137af565b611ab6565b61027a611b7c565b61027a6103f33660046137db565b611bb6565b6103346104063660046138c2565b600b6020526000908152604090205460ff1681565b6103346104293660046138c2565b600a6020526000908152604090205460ff1681565b61028f61044c3660046138c2565b611e20565b61025461045f3660046138c2565b600d6020526000908152604090205481565b60055461028f906001600160a01b031681565b60075461033490600160a01b900460ff1681565b61027a6104a6366004613911565b612167565b6102546104b93660046138c2565b600e6020526000908152604090205481565b61027a6104d93660046137db565b61226d565b6105436104ec3660046137af565b600c602090815260009283526040808420909152908252902080546001820154600283015460039093015463ffffffff80841694600160201b8504909116936001600160a01b03600160401b909104811693169186565b6040805163ffffffff97881681529690951660208701526001600160a01b039384169486019490945291166060840152608083015260a082015260c00161025e565b61027a6105933660046137db565b6125bc565b61028f6105a63660046138c2565b6008602052600090815260409020546001600160a01b031681565b61027a6105cf3660046137db565b6128ca565b60025461028f906001600160a01b031681565b60075461028f906001600160a01b031681565b61060d6106083660046137af565b612bb5565b604080516001600160a01b0393841681529290911660208301520161025e565b61027a612c32565b61027a6106433660046138c2565b612cec565b6102546106563660046139d0565b612d64565b6001600160a01b0382166000908152600d602052604081205483908390811061069f5760405162461bcd60e51b815260040161069690613a10565b60405180910390fd5b6001600160a01b038581166000908152600c6020908152604080832088845290915290819020805460038201549251635dd9258560e01b815260048101939093529092600160401b9091041690635dd92585906024016020604051808303816000875af1158015610714573d6000803e3d6000fd5b505050506040513d601f19601f820116820180604052508101906107389190613a40565b9695505050505050565b6001546001146107645760405162461bcd60e51b815260040161069690613a59565b6002600155610771613082565b6001600160a01b0383166000908152600d60205260409020548390839081106107ac5760405162461bcd60e51b815260040161069690613a10565b6001600160a01b038086166000908152600c602090815260408083208884528252808320815160c081018352815463ffffffff8082168352600160201b82041682860152600160401b900486168184018190526001830154871660608301526002830154608083015260039092015460a0820152908452600990925282205490921690610838836130ce565b60048054604051630eb94ee160e41b81526001600160a01b0386811693820193909352929350169063eb94ee1090602401602060405180830381865afa158015610886573d6000803e3d6000fd5b505050506040513d601f19601f820116820180604052508101906108aa9190613a40565b8110156108f95760405162461bcd60e51b815260206004820152601a60248201527f6c69717569646174652f6e6f742d6c6971756964617461626c650000000000006044820152606401610696565b6040808401519051630450cfaf60e31b8152336004820152602481018890526000916001600160a01b0316906322867d78906044016020604051808303816000875af115801561094d573d6000803e3d6000fd5b505050506040513d601f19601f820116820180604052508101906109719190613a40565b905060028460a0015160016109869190613a9d565b6109909190613ab0565b8111156109df5760405162461bcd60e51b815260206004820152601e60248201527f6c69717569646174652f746f6f2d6d7563682d6c69717569646174696f6e00006044820152606401610696565b6040808501519051635dd9258560e01b8152600481018390526000916001600160a01b031690635dd92585906024016020604051808303816000875af1158015610a2d573d6000803e3d6000fd5b505050506040513d601f19601f82011682018060405250810190610a519190613a40565b600354606087015160405163248391ff60e01b81526001600160a01b03888116600483015291821660248201526044810184905292935060009291169063248391ff906064016020604051808303816000875af1158015610ab6573d6000803e3d6000fd5b505050506040513d601f19601f82011682018060405250810190610ada9190613a40565b600480546040516339f041ad60e11b81526001600160a01b0389811693820193909352929350600092610b8592670de0b6b3a76400009216906373e0835a90602401602060405180830381865afa158015610b39573d6000803e3d6000fd5b505050506040513d601f19601f82011682018060405250810190610b5d9190613a40565b610b679085613ad2565b610b719190613ab0565b610b7b9084613a9d565b88608001516133a0565b9050838760a001818151610b999190613ae9565b90525060a08701516001600160a01b038d166000908152600c602090815260408083208f8452909152902060030155608087018051829190610bdc908390613ae9565b915081815250508660800151600c60008e6001600160a01b03166001600160a01b0316815260200190815260200160002060008d81526020019081526020016000206002018190555080600e600089606001516001600160a01b03166001600160a01b031681526020019081526020016000206000828254610c5e9190613ae9565b90915550506060870151610c7c906001600160a01b031633836133b6565b604080518b8152602081018690529081018290523360608201528b906001600160a01b038e16907fdde0adb27be857d0db946bcab48f6a9f4b90b721fa0672622d5ec3de019bee3e9060800160405180910390a350506001805550505050505050505050565b600054610100900460ff1615808015610d025750600054600160ff909116105b80610d1c5750303b158015610d1c575060005460ff166001145b610d7f5760405162461bcd60e51b815260206004820152602e60248201527f496e697469616c697a61626c653a20636f6e747261637420697320616c72656160448201526d191e481a5b9a5d1a585b1a5e995960921b6064820152608401610696565b6000805460ff191660011790558015610da2576000805461ff0019166101001790555b6001600160a01b038616610df85760405162461bcd60e51b815260206004820181905260248201527f696e697469616c697a652f676f7665726e6f722d7a65726f2d616464726573736044820152606401610696565b6001600160a01b038516610e4e5760405162461bcd60e51b815260206004820181905260248201527f696e697469616c697a652f6465706c6f7965722d7a65726f2d616464726573736044820152606401610696565b6001600160a01b038416610ea45760405162461bcd60e51b815260206004820152601e60248201527f696e697469616c697a652f6f7261636c652d7a65726f2d6164647265737300006044820152606401610696565b6001600160a01b038316610efa5760405162461bcd60e51b815260206004820152601e60248201527f696e697469616c697a652f636f6e6669672d7a65726f2d6164647265737300006044820152606401610696565b6001600160a01b038216610f5f5760405162461bcd60e51b815260206004820152602660248201527f696e697469616c697a652f696e7465726573742d6d6f64656c2d7a65726f2d6160448201526564647265737360d01b6064820152608401610696565b600680546001600160a01b03199081166001600160a01b0389811691821790935560028054831689851617905560038054831688851617905560048054831687851617905560058054909216928516929092179055600180556040519081527fbce074c8369e26e70e1ae2f14fc944da352cfe6f52e2de9572f0c9942a24b7fc9060200160405180910390a16040516001600160a01b03851681527fd3b5d1e0ffaeff528910f3663f0adace7694ab8241d58e17a91351ced2e080319060200160405180910390a16040516001600160a01b03841681527fc5618716db99966ac0bedb011a55472827d54343d73b50c3118c0b03cdf1c75f9060200160405180910390a16040516001600160a01b03831681527f2f39052eae53bd818667d1ebcc2423988c8ef77de1477853c399e84c774d6b0e9060200160405180910390a180156110e5576000805461ff0019169055604051600181527f7f26b83ff96e1f2b6a682f133852f6798a09c465da95921460cefb38474024989060200160405180910390a15b505050505050565b6006546001600160a01b031633146111175760405162461bcd60e51b815260040161069690613afc565b6001546001146111395760405162461bcd60e51b815260040161069690613a59565b60026001556001600160a01b038381166000908152600960205260409020541661119b5760405162461bcd60e51b81526020600482015260136024820152723932b1b7bb32b917b737ba16b8332a37b5b2b760691b6044820152606401610696565b6040516303d9059760e31b81526001600160a01b03838116600483015233602483015260448201839052841690631ec82cb890606401600060405180830381600087803b1580156111eb57600080fd5b505af11580156111ff573d6000803e3d6000fd5b5050600180555050505050565b6006546001600160a01b031633146112365760405162461bcd60e51b815260040161069690613afc565b6001600160a01b0381166112855760405162461bcd60e51b8152602060048201526016602482015275736574436f6e6669672f7a65726f2d6164647265737360501b6044820152606401610696565b600480546001600160a01b0319166001600160a01b0383169081179091556040519081527fc5618716db99966ac0bedb011a55472827d54343d73b50c3118c0b03cdf1c75f906020015b60405180910390a150565b6001546001146112fc5760405162461bcd60e51b815260040161069690613a59565b6002600155611309613082565b8261131481336118a7565b6113305760405162461bcd60e51b815260040161069690613b2b565b6001600160a01b0384166000908152600d602052604090205484908490811061136b5760405162461bcd60e51b815260040161069690613a10565b6001600160a01b038087166000908152600c60209081526040808320898452825291829020825160c081018452815463ffffffff8082168352600160201b82048116948301859052600160401b90910486169482019490945260018201549094166060850152600281015460808501526003015460a08401524390911690036114265760405162461bcd60e51b815260206004820152600d60248201526c7075742f6261642d626c6f636b60981b6044820152606401610696565b60608101516040516370a0823160e01b815230600482015260009182916001600160a01b03909116906370a0823190602401602060405180830381865afa158015611475573d6000803e3d6000fd5b505050506040513d601f19601f820116820180604052508101906114999190613a40565b60608401519091506114b6906001600160a01b031633308a61341e565b60608301516040516370a0823160e01b81523060048201526000916001600160a01b0316906370a0823190602401602060405180830381865afa158015611501573d6000803e3d6000fd5b505050506040513d601f19601f820116820180604052508101906115259190613a40565b90506115318282613ae9565b9250505080826080018181516115479190613a9d565b90525060608201516001600160a01b03166000908152600e602052604081208054839290611576908490613a9d565b909155505060048054606084015160405163665e2e5360e01b81526001600160a01b0391821693810193909352169063665e2e5390602401602060405180830381865afa1580156115cb573d6000803e3d6000fd5b505050506040513d601f19601f820116820180604052508101906115ef9190613a40565b60608301516001600160a01b03166000908152600e6020526040902054111561165a5760405162461bcd60e51b815260206004820152601760248201527f7075742f746f6f2d6d7563682d636f6c6c61746572616c0000000000000000006044820152606401610696565b60808201516001600160a01b0389166000818152600c602090815260408083208c84528252918290206002810194909455835463ffffffff19164363ffffffff16179093558051898152339381019390935289927fa484f5dd35662c7e9a639bb18fd7c87293c82c2ba06dd2ff77536edf523d99f591015b60405180910390a3505060018055505050505050565b6006546001600160a01b031633146117125760405162461bcd60e51b815260040161069690613afc565b60078054821515600160a01b0260ff60a01b199091161790556040517f1a993cb3baaaeecd4cf09f369bae7bb6a23acba7fdf4c37432a91bbdb4e3963a906112cf90831515815260200190565b611767613456565b6006546001600160a01b031633146117915760405162461bcd60e51b815260040161069690613afc565b6117996134a5565b565b6006546001600160a01b031633146117c55760405162461bcd60e51b815260040161069690613afc565b60005b828110156118a15781600a60008686858181106117e7576117e7613b60565b90506020020160208101906117fc91906138c2565b6001600160a01b031681526020810191909152604001600020805460ff191691151591909117905583838281811061183657611836613b60565b905060200201602081019061184b91906138c2565b6001600160a01b03167f3e3f3513ca57dd2a4694ffe4ff73f0d13635c4793c347f048725832f7974303883604051611887911515815260200190565b60405180910390a28061189981613b76565b9150506117c8565b50505050565b6000816001600160a01b0316836001600160a01b03161480156118e257506001600160a01b0383166000908152600b602052604090205460ff165b8061191857506001600160a01b0383163214801561191857506001600160a01b0382166000908152600a602052604090205460ff165b90505b92915050565b6006546001600160a01b0316331461194b5760405162461bcd60e51b815260040161069690613afc565b6001600160a01b0381166119a15760405162461bcd60e51b815260206004820152601d60248201527f736574496e7465726573744d6f64656c2f7a65726f2d616464726573730000006044820152606401610696565b600580546001600160a01b0319166001600160a01b0383169081179091556040519081527f2f39052eae53bd818667d1ebcc2423988c8ef77de1477853c399e84c774d6b0e906020016112cf565b6006546001600160a01b03163314611a195760405162461bcd60e51b815260040161069690613afc565b6001600160a01b038116611a685760405162461bcd60e51b81526020600482015260166024820152757365744f7261636c652f7a65726f2d6164647265737360501b6044820152606401610696565b600380546001600160a01b0319166001600160a01b0383169081179091556040519081527fd3b5d1e0ffaeff528910f3663f0adace7694ab8241d58e17a91351ced2e08031906020016112cf565b6001600160a01b0382166000908152600d6020526040812054839083908110611af15760405162461bcd60e51b815260040161069690613a10565b6001600160a01b038086166000908152600c60209081526040808320888452825291829020825160c081018452815463ffffffff8082168352600160201b82041693820193909352600160401b90920484169282019290925260018201549092166060830152600281015460808301526003015460a0820152611b73906130ce565b95945050505050565b611b84613082565b6006546001600160a01b03163314611bae5760405162461bcd60e51b815260040161069690613afc565b6117996134f4565b600154600114611bd85760405162461bcd60e51b815260040161069690613a59565b6002600155611be5613082565b82611bf081336118a7565b611c0c5760405162461bcd60e51b815260040161069690613b2b565b6001600160a01b0384166000908152600d6020526040902054849084908110611c475760405162461bcd60e51b815260040161069690613a10565b6001600160a01b038087166000908152600c60209081526040808320898452825291829020825160c081018452815463ffffffff808216808452600160201b8304821695840195909552600160401b90910486169482019490945260018201549094166060850152600281015460808501526003015460a0840152439091169003611d065760405162461bcd60e51b815260206004820152600f60248201526e72657061792f6261642d626c6f636b60881b6044820152606401610696565b6040808201519051630450cfaf60e31b8152336004820152602481018790526000916001600160a01b0316906322867d78906044016020604051808303816000875af1158015611d5a573d6000803e3d6000fd5b505050506040513d601f19601f82011682018060405250810190611d7e9190613a40565b9050808260a001818151611d929190613ae9565b90525060a08201516001600160a01b0389166000818152600c602090815260408083208c84528252918290206003810194909455835467ffffffff000000001916600160201b4363ffffffff1602179093558051898152928301849052339083015288917f09e02f7977f4cd69fd737ff7ee1a723f810d24bac179c0eaa8e5815a795d3ea4906060016116d2565b6000600154600114611e445760405162461bcd60e51b815260040161069690613a59565b6002600155611e51613082565b600754600160a01b900460ff1680611e7357506006546001600160a01b031633145b611eb55760405162461bcd60e51b815260206004820152601360248201527218dc99585d194bdd5b985d5d1a1bdc9a5e9959606a1b6044820152606401610696565b306001600160a01b03831603611f045760405162461bcd60e51b81526020600482015260146024820152736372656174652f6e6f742d6c696b652d7468697360601b6044820152606401610696565b6001600160a01b0382163b611f5b5760405162461bcd60e51b815260206004820152601e60248201527f6372656174652f756e6465726c79696e672d6e6f742d636f6e747261637400006044820152606401610696565b6001600160a01b038281166000908152600860205260409020541615611fc35760405162461bcd60e51b815260206004820181905260248201527f6372656174652f756e6465726c79696e672d616c72656164792d6578697374736044820152606401610696565b60035460405163353d37f960e21b81526001600160a01b038481166004830152600092169063d4f4dfe4906024016020604051808303816000875af1158015612010573d6000803e3d6000fd5b505050506040513d601f19601f820116820180604052508101906120349190613a40565b116120735760405162461bcd60e51b815260206004820152600f60248201526e6372656174652f6e6f2d707269636560881b6044820152606401610696565b600254604051634c96a38960e01b81526001600160a01b03848116600483015290911690634c96a389906024016020604051808303816000875af11580156120bf573d6000803e3d6000fd5b505050506040513d601f19601f820116820180604052508101906120e39190613b8f565b6001600160a01b03838116600081815260086020908152604080832080549587166001600160a01b031996871681179091558084526009835292819020805490951684179094559251908152929350917f96b5b9b8a7193304150caccf9b80d150675fa3d6af57761d8d8ef1d6f9a1a909910160405180910390a260018055919050565b6006546001600160a01b031633146121915760405162461bcd60e51b815260040161069690613afc565b60005b828110156118a15781600b60008686858181106121b3576121b3613b60565b90506020020160208101906121c891906138c2565b6001600160a01b031681526020810191909152604001600020805460ff191691151591909117905583838281811061220257612202613b60565b905060200201602081019061221791906138c2565b6001600160a01b03167f31713abf7651a5d93dd9702d3bbfdc9bf477ed7a7d4123d818499e7df9f62cc083604051612253911515815260200190565b60405180910390a28061226581613b76565b915050612194565b60015460011461228f5760405162461bcd60e51b815260040161069690613a59565b600260015561229c613082565b826122a781336118a7565b6122c35760405162461bcd60e51b815260040161069690613b2b565b6001600160a01b0384166000908152600d60205260409020548490849081106122fe5760405162461bcd60e51b815260040161069690613a10565b6001600160a01b038087166000908152600c60209081526040808320898452825291829020825160c081018452815463ffffffff8082168352600160201b82048116948301859052600160401b90910486169482019490945260018201549094166060850152600281015460808501526003015460a08401524390911690036123bc5760405162461bcd60e51b815260206004820152601060248201526f626f72726f772f6261642d626c6f636b60801b6044820152606401610696565b6040808201519051634b8a352960e01b8152336004820152602481018790526000916001600160a01b031690634b8a3529906044016020604051808303816000875af1158015612410573d6000803e3d6000fd5b505050506040513d601f19601f820116820180604052508101906124349190613a40565b9050808260a0018181516124489190613a9d565b90525060a08201516001600160a01b0389166000908152600c602090815260408083208b845290915281206003810192909255815463ffffffff19164363ffffffff1617909155612498836130ce565b600480546040868101516001600160a01b03908116600090815260096020528290205491516337ea609360e01b81529181169382019390935292935016906337ea609390602401602060405180830381865afa1580156124fc573d6000803e3d6000fd5b505050506040513d601f19601f820116820180604052508101906125209190613a40565b8111156125615760405162461bcd60e51b815260206004820152600f60248201526e626f72726f772f6e6f742d7361666560881b6044820152606401610696565b60408051888152602081018490523381830152905189916001600160a01b038c16917f66213fb9f1fa2b7f0877f6506f7ce239ede54b92e550c29d9937d2808aeaa7229181900360600190a350506001805550505050505050565b6001546001146125de5760405162461bcd60e51b815260040161069690613a59565b60026001556125eb613082565b826125f681336118a7565b6126125760405162461bcd60e51b815260040161069690613b2b565b6001600160a01b0384166000908152600d602052604090205484908490811061264d5760405162461bcd60e51b815260040161069690613a10565b6001600160a01b038087166000908152600c60209081526040808320898452825291829020825160c081018452815463ffffffff808216808452600160201b8304821695840195909552600160401b90910486169482019490945260018201549094166060850152600281015460808501526003015460a084015243909116900361270b5760405162461bcd60e51b815260206004820152600e60248201526d74616b652f6261642d626c6f636b60901b6044820152606401610696565b848160800181815161271d9190613ae9565b90525060608101516001600160a01b03166000908152600e60205260408120805487929061274c908490613ae9565b909155505060808101516001600160a01b0388166000908152600c602090815260408083208a845290915281206002810192909255815467ffffffff000000001916600160201b4363ffffffff1602179091556127a8826130ce565b600480546040858101516001600160a01b03908116600090815260096020528290205491516337ea609360e01b81529181169382019390935292935016906337ea609390602401602060405180830381865afa15801561280c573d6000803e3d6000fd5b505050506040513d601f19601f820116820180604052508101906128309190613a40565b81111561286f5760405162461bcd60e51b815260206004820152600d60248201526c74616b652f6e6f742d7361666560981b6044820152606401610696565b6060820151612888906001600160a01b031633886133b6565b6040805187815233602082015288916001600160a01b038b16917f3c494f8e78d173658bbb4fc963723899c35ba01c1c467cfa4123ebec192b8aff91016116d2565b6006546001600160a01b031633146128f45760405162461bcd60e51b815260040161069690613afc565b6001546001146129165760405162461bcd60e51b815260040161069690613a59565b60026001556001600160a01b0383166000908152600d60205260409020548390839081106129565760405162461bcd60e51b815260040161069690613a10565b6001600160a01b038086166000908152600c60209081526040808320888452825291829020825160c081018452815463ffffffff8082168352600160201b82041693820193909352600160401b9092048416928201929092526001820154909216606083015260028101546080830181905260039091015460a083015215612a2e5760405162461bcd60e51b815260206004820152602560248201527f73656c666c6573734c69717569646174652f706f7369746976652d636f6c6c616044820152641d195c985b60da1b6064820152608401610696565b600081604001516001600160a01b0316635dd925858360a001516040518263ffffffff1660e01b8152600401612a6691815260200190565b6020604051808303816000875af1158015612a85573d6000803e3d6000fd5b505050506040513d601f19601f82011682018060405250810190612aa99190613a40565b9050612ab585826133a0565b6040808401519051630450cfaf60e31b8152336004820152602481018390529196506000916001600160a01b03909116906322867d78906044016020604051808303816000875af1158015612b0e573d6000803e3d6000fd5b505050506040513d601f19601f82011682018060405250810190612b329190613a40565b9050808360a001818151612b469190613ae9565b90525060a08301516001600160a01b0389166000818152600c602090815260408083208c8452825291829020600301939093558051898152928301849052339083015288917fb14890f5eebf05b014f5e9e75f121a47fa260063eb0532e1a38439066bd0c4a1906060016116d2565b6001600160a01b0382166000908152600d60205260408120548190849084908110612bf25760405162461bcd60e51b815260040161069690613a10565b505050506001600160a01b039182166000908152600c60209081526040808320938352929052206001810154905490821692600160401b90910490911690565b6007546001600160a01b03163314612c985760405162461bcd60e51b815260206004820152602360248201527f616363657074476f7665726e6f722f6e6f742d70656e64696e672d676f7665726044820152623737b960e91b6064820152608401610696565b600780546001600160a01b031990811690915560068054339216821790556040519081527fbce074c8369e26e70e1ae2f14fc944da352cfe6f52e2de9572f0c9942a24b7fc906020015b60405180910390a1565b6006546001600160a01b03163314612d165760405162461bcd60e51b815260040161069690613afc565b600780546001600160a01b0319166001600160a01b0383169081179091556040519081527f964dea888b00b2ab53f13dfe7ca334b46e99338c222ae232d98547a1da019f60906020016112cf565b6000612d6e613082565b83612d7981336118a7565b612d955760405162461bcd60e51b815260040161069690613b2b565b6001600160a01b038085166000908152600860205260409020541680612df35760405162461bcd60e51b81526020600482015260136024820152726f70656e2f6261642d756e6465726c79696e6760681b6044820152606401610696565b836001600160a01b0316856001600160a01b031603612e4b5760405162461bcd60e51b81526020600482015260146024820152731bdc195b8bdcd95b198b58dbdb1b185d195c985b60621b6044820152606401610696565b6004805460405163486ef95960e11b81526001600160a01b0387811693820193909352600092909116906390ddf2b290602401602060405180830381865afa158015612e9b573d6000803e3d6000fd5b505050506040513d601f19601f82011682018060405250810190612ebf9190613a40565b11612f025760405162461bcd60e51b81526020600482015260136024820152721bdc195b8bd898590b58dbdb1b185d195c985b606a1b6044820152606401610696565b60035460405163353d37f960e21b81526001600160a01b038681166004830152600092169063d4f4dfe4906024016020604051808303816000875af1158015612f4f573d6000803e3d6000fd5b505050506040513d601f19601f82011682018060405250810190612f739190613a40565b11612fb05760405162461bcd60e51b815260206004820152600d60248201526c6f70656e2f6e6f2d707269636560981b6044820152606401610696565b6001600160a01b0386166000908152600d60205260408120805491612fd483613b76565b909155506001600160a01b038781166000818152600c60209081526040808320868452825291829020805468010000000000000000600160e01b031916600160401b8887169081029190911782556001820180546001600160a01b031916968c169687179055835190815291820194909452939650919286927fe7ae4268aa398bfe26749e22bfd7a7d50648062474a0422790079e61868a58f8910160405180910390a35050509392505050565b60005462010000900460ff16156117995760405162461bcd60e51b815260206004820152601060248201526f14185d5cd8589b194e881c185d5cd95960821b6044820152606401610696565b60008160a001516000036130e457506000919050565b60035460048054606085015160405163486ef95960e11b81526001600160a01b0391821693810193909352928316926000929116906390ddf2b290602401602060405180830381865afa15801561313f573d6000803e3d6000fd5b505050506040513d601f19601f820116820180604052508101906131639190613a40565b9050600081116131ac5760405162461bcd60e51b815260206004820152601460248201527319995d18da0bd898590b58dbdb1b185d195c985b60621b6044820152606401610696565b600084604001516001600160a01b0316635dd925858660a001516040518263ffffffff1660e01b81526004016131e491815260200190565b6020604051808303816000875af1158015613203573d6000803e3d6000fd5b505050506040513d601f19601f820116820180604052508101906132279190613a40565b6040868101516001600160a01b0390811660009081526009602052828120549251632f5091a160e21b815292821660048401526024830184905292935085169063bd424684906044016020604051808303816000875af115801561328f573d6000803e3d6000fd5b505050506040513d601f19601f820116820180604052508101906132b39190613a40565b90506000670de0b6b3a76400008488608001516132d09190613ad2565b6132da9190613ab0565b6060880151604051632f5091a160e21b81526001600160a01b039182166004820152602481018390529192506000919087169063bd424684906044016020604051808303816000875af1158015613335573d6000803e3d6000fd5b505050506040513d601f19601f820116820180604052508101906133599190613a40565b90508083106133775750670de0b6b3a7640000979650505050505050565b8061338a84670de0b6b3a7640000613ad2565b6133949190613ab0565b98975050505050505050565b60008183106133af5781611918565b5090919050565b6040516001600160a01b03831660248201526044810182905261341990849063a9059cbb60e01b906064015b60408051601f198184030181529190526020810180516001600160e01b03166001600160e01b031990931692909217909152613535565b505050565b6040516001600160a01b03808516602483015283166044820152606481018290526118a19085906323b872dd60e01b906084016133e2565b60005462010000900460ff166117995760405162461bcd60e51b815260206004820152601460248201527314185d5cd8589b194e881b9bdd081c185d5cd95960621b6044820152606401610696565b6134ad613456565b6000805462ff0000191690557f5db9ee0a495bf2e6ff9c91a7834c1ba4fdd244a5e8aa4e537bd38aeae4b073aa335b6040516001600160a01b039091168152602001612ce2565b6134fc613082565b6000805462ff00001916620100001790557f62e78cea01bee320cd4e420270b5ea74000d11b0c9f74754ebdbfc544b05a2586134dc3390565b600061358a826040518060400160405280602081526020017f5361666545524332303a206c6f772d6c6576656c2063616c6c206661696c6564815250856001600160a01b03166136079092919063ffffffff16565b80519091501561341957808060200190518101906135a89190613bac565b6134195760405162461bcd60e51b815260206004820152602a60248201527f5361666545524332303a204552433230206f7065726174696f6e20646964206e6044820152691bdd081cdd58d8d9595960b21b6064820152608401610696565b6060613616848460008561361e565b949350505050565b60608247101561367f5760405162461bcd60e51b815260206004820152602660248201527f416464726573733a20696e73756666696369656e742062616c616e636520666f6044820152651c8818d85b1b60d21b6064820152608401610696565b600080866001600160a01b0316858760405161369b9190613bed565b60006040518083038185875af1925050503d80600081146136d8576040519150601f19603f3d011682016040523d82523d6000602084013e6136dd565b606091505b50915091506136ee878383876136f9565b979650505050505050565b60608315613768578251600003613761576001600160a01b0385163b6137615760405162461bcd60e51b815260206004820152601d60248201527f416464726573733a2063616c6c20746f206e6f6e2d636f6e74726163740000006044820152606401610696565b5081613616565b613616838381511561377d5781518083602001fd5b8060405162461bcd60e51b81526004016106969190613c09565b6001600160a01b03811681146137ac57600080fd5b50565b600080604083850312156137c257600080fd5b82356137cd81613797565b946020939093013593505050565b6000806000606084860312156137f057600080fd5b83356137fb81613797565b95602085013595506040909401359392505050565b600080600080600060a0868803121561382857600080fd5b853561383381613797565b9450602086013561384381613797565b9350604086013561385381613797565b9250606086013561386381613797565b9150608086013561387381613797565b809150509295509295909350565b60008060006060848603121561389657600080fd5b83356138a181613797565b925060208401356138b181613797565b929592945050506040919091013590565b6000602082840312156138d457600080fd5b81356138df81613797565b9392505050565b80151581146137ac57600080fd5b60006020828403121561390657600080fd5b81356138df816138e6565b60008060006040848603121561392657600080fd5b833567ffffffffffffffff8082111561393e57600080fd5b818601915086601f83011261395257600080fd5b81358181111561396157600080fd5b8760208260051b850101111561397657600080fd5b6020928301955093505084013561398c816138e6565b809150509250925092565b600080604083850312156139aa57600080fd5b82356139b581613797565b915060208301356139c581613797565b809150509250929050565b6000806000606084860312156139e557600080fd5b83356139f081613797565b92506020840135613a0081613797565b9150604084013561398c81613797565b602080825260169082015275141c9bd99d5cda5bdb90985b9acbd8da1958dad4125160521b604082015260600190565b600060208284031215613a5257600080fd5b5051919050565b602080825260149082015273141c9bd99d5cda5bdb90985b9acbdb1bd8dad95960621b604082015260600190565b634e487b7160e01b600052601160045260246000fd5b8082018082111561191b5761191b613a87565b600082613acd57634e487b7160e01b600052601260045260246000fd5b500490565b808202811582820484141761191b5761191b613a87565b8181038181111561191b5761191b613a87565b602080825260159082015274283937b33ab9b4b7b72130b73597b7b7363ca3b7bb60591b604082015260600190565b6020808252818101527f50726f667573696f6e42616e6b2f69735065726d697474656442794f776e6572604082015260600190565b634e487b7160e01b600052603260045260246000fd5b600060018201613b8857613b88613a87565b5060010190565b600060208284031215613ba157600080fd5b81516138df81613797565b600060208284031215613bbe57600080fd5b81516138df816138e6565b60005b83811015613be4578181015183820152602001613bcc565b50506000910152565b60008251613bff818460208701613bc9565b9190910192915050565b6020815260008251806020840152613c28816040850160208701613bc9565b601f01601f1916919091016040019291505056fea2646970667358221220c18a43abf9d1676372b0a443d971cb5147c426d1d8d551f7357fb1db4607baea64736f6c63430008130033",
    "linkReferences": {}
  },
  "methodIdentifiers": {
    "acceptGovernor()": "e58bb639",
    "allowPublicCreate()": "b0886fe4",
    "borrow(address,uint256,uint256)": "c1bce0b7",
    "config()": "79502c55",
    "create(address)": "9ed93318",
    "deployer()": "d5f39488",
    "fetchPositionDebt(address,uint256)": "00187482",
    "fetchPositionLTV(address,uint256)": "82762062",
    "getPositionTokens(address,uint256)": "e5074709",
    "governor()": "0c340a24",
    "initialize(address,address,address,address,address)": "1459457a",
    "interestModel()": "ac165d7a",
    "isPermittedCaller(address,address)": "51a491ad",
    "liquidate(address,uint256,uint256)": "0710285c",
    "nextPositionIds(address)": "ab01040e",
    "open(address,address,address)": "f71fd596",
    "oracle()": "7dc0d1d0",
    "ownerWhitelists(address)": "90427116",
    "pause()": "8456cb59",
    "paused()": "5c975abb",
    "pendingGovernor()": "e3056a34",
    "pfTokens(address)": "c833b7b8",
    "positions(address,uint256)": "c1be6677",
    "put(address,uint256,uint256)": "2ba4391a",
    "recover(address,address,uint256)": "1ec82cb8",
    "repay(address,uint256,uint256)": "8cd2e0c7",
    "runnerWhitelists(address)": "9413126a",
    "selflessLiquidate(address,uint256,uint256)": "c9c8eb6c",
    "setAllowPublicCreate(bool)": "33e1cf5d",
    "setConfig(address)": "20e3dbd4",
    "setInterestModel(address)": "6e3f5d52",
    "setOracle(address)": "7adbf973",
    "setOwnerWhitelists(address[],bool)": "b5beb20b",
    "setPendingGovernor(address)": "f235757f",
    "setRunnerWhitelists(address[],bool)": "4e16cf42",
    "take(address,uint256,uint256)": "c640e9bf",
    "totalCollaterals(address)": "bf1f53b6",
    "underlyings(address)": "679a8da8",
    "unpause()": "3f4ba83a"
  },
  "id": 37
}