{
  "abi": [
    {
      "anonymous": false,
      "inputs": [
        {
          "indexed": true,
          "internalType": "address",
          "name": "owner",
          "type": "address"
        },
        {
          "indexed": true,
          "internalType": "address",
          "name": "spender",
          "type": "address"
        },
        {
          "indexed": false,
          "internalType": "uint256",
          "name": "value",
          "type": "uint256"
        }
      ],
      "name": "Approval",
      "type": "event"
    },
    {
      "anonymous": false,
      "inputs": [
        {
          "indexed": false,
          "internalType": "address",
          "name": "account",
          "type": "address"
        }
      ],
      "name": "Paused",
      "type": "event"
    },
    {
      "anonymous": false,
      "inputs": [
        {
          "indexed": true,
          "internalType": "bytes32",
          "name": "role",
          "type": "bytes32"
        },
        {
          "indexed": true,
          "internalType": "bytes32",
          "name": "previousAdminRole",
          "type": "bytes32"
        },
        {
          "indexed": true,
          "internalType": "bytes32",
          "name": "newAdminRole",
          "type": "bytes32"
        }
      ],
      "name": "RoleAdminChanged",
      "type": "event"
    },
    {
      "anonymous": false,
      "inputs": [
        {
          "indexed": true,
          "internalType": "bytes32",
          "name": "role",
          "type": "bytes32"
        },
        {
          "indexed": true,
          "internalType": "address",
          "name": "account",
          "type": "address"
        },
        {
          "indexed": true,
          "internalType": "address",
          "name": "sender",
          "type": "address"
        }
      ],
      "name": "RoleGranted",
      "type": "event"
    },
    {
      "anonymous": false,
      "inputs": [
        {
          "indexed": true,
          "internalType": "bytes32",
          "name": "role",
          "type": "bytes32"
        },
        {
          "indexed": true,
          "internalType": "address",
          "name": "account",
          "type": "address"
        },
        {
          "indexed": true,
          "internalType": "address",
          "name": "sender",
          "type": "address"
        }
      ],
      "name": "RoleRevoked",
      "type": "event"
    },
    {
      "anonymous": false,
      "inputs": [
        {
          "indexed": true,
          "internalType": "address",
          "name": "from",
          "type": "address"
        },
        {
          "indexed": true,
          "internalType": "address",
          "name": "to",
          "type": "address"
        },
        {
          "indexed": false,
          "internalType": "uint256",
          "name": "value",
          "type": "uint256"
        }
      ],
      "name": "Transfer",
      "type": "event"
    },
    {
      "anonymous": false,
      "inputs": [
        {
          "indexed": false,
          "internalType": "address",
          "name": "account",
          "type": "address"
        }
      ],
      "name": "Unpaused",
      "type": "event"
    },
    {
      "inputs": [],
      "name": "DEFAULT_ADMIN_ROLE",
      "outputs": [
        {
          "internalType": "bytes32",
          "name": "",
          "type": "bytes32"
        }
      ],
      "stateMutability": "view",
      "type": "function"
    },
    {
      "inputs": [],
      "name": "DOMAIN_SEPARATOR",
      "outputs": [
        {
          "internalType": "bytes32",
          "name": "",
          "type": "bytes32"
        }
      ],
      "stateMutability": "view",
      "type": "function"
    },
    {
      "inputs": [],
      "name": "MINTER_ROLE",
      "outputs": [
        {
          "internalType": "bytes32",
          "name": "",
          "type": "bytes32"
        }
      ],
      "stateMutability": "view",
      "type": "function"
    },
    {
      "inputs": [],
      "name": "PAUSER_ROLE",
      "outputs": [
        {
          "internalType": "bytes32",
          "name": "",
          "type": "bytes32"
        }
      ],
      "stateMutability": "view",
      "type": "function"
    },
    {
      "inputs": [
        {
          "internalType": "address",
          "name": "owner",
          "type": "address"
        },
        {
          "internalType": "address",
          "name": "spender",
          "type": "address"
        }
      ],
      "name": "allowance",
      "outputs": [
        {
          "internalType": "uint256",
          "name": "",
          "type": "uint256"
        }
      ],
      "stateMutability": "view",
      "type": "function"
    },
    {
      "inputs": [
        {
          "internalType": "address",
          "name": "spender",
          "type": "address"
        },
        {
          "internalType": "uint256",
          "name": "amount",
          "type": "uint256"
        }
      ],
      "name": "approve",
      "outputs": [
        {
          "internalType": "bool",
          "name": "",
          "type": "bool"
        }
      ],
      "stateMutability": "nonpayable",
      "type": "function"
    },
    {
      "inputs": [
        {
          "internalType": "address",
          "name": "account",
          "type": "address"
        }
      ],
      "name": "balanceOf",
      "outputs": [
        {
          "internalType": "uint256",
          "name": "",
          "type": "uint256"
        }
      ],
      "stateMutability": "view",
      "type": "function"
    },
    {
      "inputs": [
        {
          "internalType": "uint256",
          "name": "amount",
          "type": "uint256"
        }
      ],
      "name": "burn",
      "outputs": [],
      "stateMutability": "nonpayable",
      "type": "function"
    },
    {
      "inputs": [
        {
          "internalType": "address",
          "name": "account",
          "type": "address"
        },
        {
          "internalType": "uint256",
          "name": "amount",
          "type": "uint256"
        }
      ],
      "name": "burnFrom",
      "outputs": [],
      "stateMutability": "nonpayable",
      "type": "function"
    },
    {
      "inputs": [],
      "name": "decimals",
      "outputs": [
        {
          "internalType": "uint8",
          "name": "",
          "type": "uint8"
        }
      ],
      "stateMutability": "view",
      "type": "function"
    },
    {
      "inputs": [
        {
          "internalType": "address",
          "name": "spender",
          "type": "address"
        },
        {
          "internalType": "uint256",
          "name": "subtractedValue",
          "type": "uint256"
        }
      ],
      "name": "decreaseAllowance",
      "outputs": [
        {
          "internalType": "bool",
          "name": "",
          "type": "bool"
        }
      ],
      "stateMutability": "nonpayable",
      "type": "function"
    },
    {
      "inputs": [
        {
          "internalType": "bytes32",
          "name": "role",
          "type": "bytes32"
        }
      ],
      "name": "getRoleAdmin",
      "outputs": [
        {
          "internalType": "bytes32",
          "name": "",
          "type": "bytes32"
        }
      ],
      "stateMutability": "view",
      "type": "function"
    },
    {
      "inputs": [
        {
          "internalType": "bytes32",
          "name": "role",
          "type": "bytes32"
        },
        {
          "internalType": "uint256",
          "name": "index",
          "type": "uint256"
        }
      ],
      "name": "getRoleMember",
      "outputs": [
        {
          "internalType": "address",
          "name": "",
          "type": "address"
        }
      ],
      "stateMutability": "view",
      "type": "function"
    },
    {
      "inputs": [
        {
          "internalType": "bytes32",
          "name": "role",
          "type": "bytes32"
        }
      ],
      "name": "getRoleMemberCount",
      "outputs": [
        {
          "internalType": "uint256",
          "name": "",
          "type": "uint256"
        }
      ],
      "stateMutability": "view",
      "type": "function"
    },
    {
      "inputs": [
        {
          "internalType": "bytes32",
          "name": "role",
          "type": "bytes32"
        },
        {
          "internalType": "address",
          "name": "account",
          "type": "address"
        }
      ],
      "name": "grantRole",
      "outputs": [],
      "stateMutability": "nonpayable",
      "type": "function"
    },
    {
      "inputs": [
        {
          "internalType": "bytes32",
          "name": "role",
          "type": "bytes32"
        },
        {
          "internalType": "address",
          "name": "account",
          "type": "address"
        }
      ],
      "name": "hasRole",
      "outputs": [
        {
          "internalType": "bool",
          "name": "",
          "type": "bool"
        }
      ],
      "stateMutability": "view",
      "type": "function"
    },
    {
      "inputs": [
        {
          "internalType": "address",
          "name": "spender",
          "type": "address"
        },
        {
          "internalType": "uint256",
          "name": "addedValue",
          "type": "uint256"
        }
      ],
      "name": "increaseAllowance",
      "outputs": [
        {
          "internalType": "bool",
          "name": "",
          "type": "bool"
        }
      ],
      "stateMutability": "nonpayable",
      "type": "function"
    },
    {
      "inputs": [
        {
          "internalType": "address",
          "name": "to",
          "type": "address"
        },
        {
          "internalType": "uint256",
          "name": "amount",
          "type": "uint256"
        }
      ],
      "name": "mint",
      "outputs": [],
      "stateMutability": "nonpayable",
      "type": "function"
    },
    {
      "inputs": [],
      "name": "name",
      "outputs": [
        {
          "internalType": "string",
          "name": "",
          "type": "string"
        }
      ],
      "stateMutability": "view",
      "type": "function"
    },
    {
      "inputs": [
        {
          "internalType": "address",
          "name": "owner",
          "type": "address"
        }
      ],
      "name": "nonces",
      "outputs": [
        {
          "internalType": "uint256",
          "name": "",
          "type": "uint256"
        }
      ],
      "stateMutability": "view",
      "type": "function"
    },
    {
      "inputs": [],
      "name": "pause",
      "outputs": [],
      "stateMutability": "nonpayable",
      "type": "function"
    },
    {
      "inputs": [],
      "name": "paused",
      "outputs": [
        {
          "internalType": "bool",
          "name": "",
          "type": "bool"
        }
      ],
      "stateMutability": "view",
      "type": "function"
    },
    {
      "inputs": [
        {
          "internalType": "address",
          "name": "owner",
          "type": "address"
        },
        {
          "internalType": "address",
          "name": "spender",
          "type": "address"
        },
        {
          "internalType": "uint256",
          "name": "value",
          "type": "uint256"
        },
        {
          "internalType": "uint256",
          "name": "deadline",
          "type": "uint256"
        },
        {
          "internalType": "uint8",
          "name": "v",
          "type": "uint8"
        },
        {
          "internalType": "bytes32",
          "name": "r",
          "type": "bytes32"
        },
        {
          "internalType": "bytes32",
          "name": "s",
          "type": "bytes32"
        }
      ],
      "name": "permit",
      "outputs": [],
      "stateMutability": "nonpayable",
      "type": "function"
    },
    {
      "inputs": [
        {
          "internalType": "bytes32",
          "name": "role",
          "type": "bytes32"
        },
        {
          "internalType": "address",
          "name": "account",
          "type": "address"
        }
      ],
      "name": "renounceRole",
      "outputs": [],
      "stateMutability": "nonpayable",
      "type": "function"
    },
    {
      "inputs": [
        {
          "internalType": "bytes32",
          "name": "role",
          "type": "bytes32"
        },
        {
          "internalType": "address",
          "name": "account",
          "type": "address"
        }
      ],
      "name": "revokeRole",
      "outputs": [],
      "stateMutability": "nonpayable",
      "type": "function"
    },
    {
      "inputs": [
        {
          "internalType": "bytes4",
          "name": "interfaceId",
          "type": "bytes4"
        }
      ],
      "name": "supportsInterface",
      "outputs": [
        {
          "internalType": "bool",
          "name": "",
          "type": "bool"
        }
      ],
      "stateMutability": "view",
      "type": "function"
    },
    {
      "inputs": [],
      "name": "symbol",
      "outputs": [
        {
          "internalType": "string",
          "name": "",
          "type": "string"
        }
      ],
      "stateMutability": "view",
      "type": "function"
    },
    {
      "inputs": [],
      "name": "totalSupply",
      "outputs": [
        {
          "internalType": "uint256",
          "name": "",
          "type": "uint256"
        }
      ],
      "stateMutability": "view",
      "type": "function"
    },
    {
      "inputs": [
        {
          "internalType": "address",
          "name": "to",
          "type": "address"
        },
        {
          "internalType": "uint256",
          "name": "amount",
          "type": "uint256"
        }
      ],
      "name": "transfer",
      "outputs": [
        {
          "internalType": "bool",
          "name": "",
          "type": "bool"
        }
      ],
      "stateMutability": "nonpayable",
      "type": "function"
    },
    {
      "inputs": [
        {
          "internalType": "address",
          "name": "from",
          "type": "address"
        },
        {
          "internalType": "address",
          "name": "to",
          "type": "address"
        },
        {
          "internalType": "uint256",
          "name": "amount",
          "type": "uint256"
        }
      ],
      "name": "transferFrom",
      "outputs": [
        {
          "internalType": "bool",
          "name": "",
          "type": "bool"
        }
      ],
      "stateMutability": "nonpayable",
      "type": "function"
    },
    {
      "inputs": [],
      "name": "unpause",
      "outputs": [],
      "stateMutability": "nonpayable",
      "type": "function"
    }
  ],
  "bytecode": {
    "object": "0x6101406040523480156200001257600080fd5b50604051806040016040528060038152602001620a08cb60eb1b81525080604051806040016040528060018152602001603160f81b8152506040518060400160405280600f81526020016e283937b33ab9b4b7b7102a37b5b2b760891b815250604051806040016040528060038152602001620a08cb60eb1b81525081818160059081620000a19190620003ab565b506006620000b08282620003ab565b50506007805460ff1916905550620000ca600033620001ba565b620000f67f9f2df0fed2c77648de5860a4cc508cd0818c85b8b8a1ab4ceeef8d981c8956a633620001ba565b620001227f65d7a28e3265b37a6474929f336521b332c1681b933f6cb9f3376673440d862a33620001ba565b5050815160209283012081519183019190912060e08290526101008190524660a0818152604080517f8b73c3c69bb8fe3d512ecc4cf759cc79239f7b179b0ffacaa9a75d522b39400f818801819052818301969096526060810194909452608080850193909352308483018190528151808603909301835260c094850190915281519190950120905291909152610120525062000477565b620001c68282620001ca565b5050565b620001d68282620001f5565b6000828152600160205260409020620001f0908262000295565b505050565b6000828152602081815260408083206001600160a01b038516845290915290205460ff16620001c6576000828152602081815260408083206001600160a01b03851684529091529020805460ff19166001179055620002513390565b6001600160a01b0316816001600160a01b0316837f2f8788117e7eff1d82e926ec794901d17c78024a50270940304540a733656f0d60405160405180910390a45050565b6000620002ac836001600160a01b038416620002b5565b90505b92915050565b6000818152600183016020526040812054620002fe57508154600181810184556000848152602080822090930184905584548482528286019093526040902091909155620002af565b506000620002af565b634e487b7160e01b600052604160045260246000fd5b600181811c908216806200033257607f821691505b6020821081036200035357634e487b7160e01b600052602260045260246000fd5b50919050565b601f821115620001f057600081815260208120601f850160051c81016020861015620003825750805b601f850160051c820191505b81811015620003a3578281556001016200038e565b505050505050565b81516001600160401b03811115620003c757620003c762000307565b620003df81620003d884546200031d565b8462000359565b602080601f831160018114620004175760008415620003fe5750858301515b600019600386901b1c1916600185901b178555620003a3565b600085815260208120601f198616915b82811015620004485788860151825594840194600190910190840162000427565b5085821015620004675787850151600019600388901b60f8161c191681555b5050505050600190811b01905550565b60805160a05160c05160e0516101005161012051611ecd620004c76000396000610f5c01526000610fab01526000610f8601526000610edf01526000610f0901526000610f330152611ecd6000f3fe608060405234801561001057600080fd5b50600436106101e55760003560e01c806370a082311161010f578063a457c2d7116100a2578063d539139311610071578063d5391393146103fe578063d547741f14610425578063dd62ed3e14610438578063e63ab1e91461044b57600080fd5b8063a457c2d7146103b2578063a9059cbb146103c5578063ca15c873146103d8578063d505accf146103eb57600080fd5b80639010d07c116100de5780639010d07c1461036457806391d148541461038f57806395d89b41146103a2578063a217fddf146103aa57600080fd5b806370a082311461030d57806379cc6790146103365780637ecebe00146103495780638456cb591461035c57600080fd5b8063313ce567116101875780633f4ba83a116101565780633f4ba83a146102d457806340c10f19146102dc57806342966c68146102ef5780635c975abb1461030257600080fd5b8063313ce567146102975780633644e515146102a657806336568abe146102ae57806339509351146102c157600080fd5b806318160ddd116101c357806318160ddd1461023a57806323b872dd1461024c578063248a9ca31461025f5780632f2ff15d1461028257600080fd5b806301ffc9a7146101ea57806306fdde0314610212578063095ea7b314610227575b600080fd5b6101fd6101f8366004611b0a565b610472565b60405190151581526020015b60405180910390f35b61021a61049d565b6040516102099190611b58565b6101fd610235366004611ba7565b61052f565b6004545b604051908152602001610209565b6101fd61025a366004611bd1565b610547565b61023e61026d366004611c0d565b60009081526020819052604090206001015490565b610295610290366004611c26565b61056b565b005b60405160128152602001610209565b61023e610595565b6102956102bc366004611c26565b6105a4565b6101fd6102cf366004611ba7565b610627565b610295610649565b6102956102ea366004611ba7565b6106ef565b6102956102fd366004611c0d565b61078e565b60075460ff166101fd565b61023e61031b366004611c52565b6001600160a01b031660009081526002602052604090205490565b610295610344366004611ba7565b61079b565b61023e610357366004611c52565b6107b0565b6102956107ce565b610377610372366004611c6d565b610872565b6040516001600160a01b039091168152602001610209565b6101fd61039d366004611c26565b610891565b61021a6108ba565b61023e600081565b6101fd6103c0366004611ba7565b6108c9565b6101fd6103d3366004611ba7565b610944565b61023e6103e6366004611c0d565b610952565b6102956103f9366004611c8f565b610969565b61023e7f9f2df0fed2c77648de5860a4cc508cd0818c85b8b8a1ab4ceeef8d981c8956a681565b610295610433366004611c26565b610acd565b61023e610446366004611d02565b610af2565b61023e7f65d7a28e3265b37a6474929f336521b332c1681b933f6cb9f3376673440d862a81565b60006001600160e01b03198216635a05180f60e01b1480610497575061049782610b1d565b92915050565b6060600580546104ac90611d2c565b80601f01602080910402602001604051908101604052809291908181526020018280546104d890611d2c565b80156105255780601f106104fa57610100808354040283529160200191610525565b820191906000526020600020905b81548152906001019060200180831161050857829003601f168201915b5050505050905090565b60003361053d818585610b52565b5060019392505050565b600033610555858285610c76565b610560858585610cf0565b506001949350505050565b60008281526020819052604090206001015461058681610ea6565b6105908383610eb0565b505050565b600061059f610ed2565b905090565b6001600160a01b03811633146106195760405162461bcd60e51b815260206004820152602f60248201527f416363657373436f6e74726f6c3a2063616e206f6e6c792072656e6f756e636560448201526e103937b632b9903337b91039b2b63360891b60648201526084015b60405180910390fd5b6106238282610ff9565b5050565b60003361053d81858561063a8383610af2565b6106449190611d76565b610b52565b6106737f65d7a28e3265b37a6474929f336521b332c1681b933f6cb9f3376673440d862a33610891565b6106e55760405162461bcd60e51b815260206004820152603960248201527f45524332305072657365744d696e7465725061757365723a206d75737420686160448201527f76652070617573657220726f6c6520746f20756e7061757365000000000000006064820152608401610610565b6106ed61101b565b565b6107197f9f2df0fed2c77648de5860a4cc508cd0818c85b8b8a1ab4ceeef8d981c8956a633610891565b6107845760405162461bcd60e51b815260206004820152603660248201527f45524332305072657365744d696e7465725061757365723a206d7573742068616044820152751d99481b5a5b9d195c881c9bdb19481d1bc81b5a5b9d60521b6064820152608401610610565b610623828261106d565b610798338261113a565b50565b6107a6823383610c76565b610623828261113a565b6001600160a01b038116600090815260086020526040812054610497565b6107f87f65d7a28e3265b37a6474929f336521b332c1681b933f6cb9f3376673440d862a33610891565b61086a5760405162461bcd60e51b815260206004820152603760248201527f45524332305072657365744d696e7465725061757365723a206d75737420686160448201527f76652070617573657220726f6c6520746f2070617573650000000000000000006064820152608401610610565b6106ed61127a565b600082815260016020526040812061088a90836112b7565b9392505050565b6000918252602082815260408084206001600160a01b0393909316845291905290205460ff1690565b6060600680546104ac90611d2c565b600033816108d78286610af2565b9050838110156109375760405162461bcd60e51b815260206004820152602560248201527f45524332303a2064656372656173656420616c6c6f77616e63652062656c6f77604482015264207a65726f60d81b6064820152608401610610565b6105608286868403610b52565b60003361053d818585610cf0565b6000818152600160205260408120610497906112c3565b834211156109b95760405162461bcd60e51b815260206004820152601d60248201527f45524332305065726d69743a206578706972656420646561646c696e650000006044820152606401610610565b60007f6e71edae12b1b97f4d1f60370fef10105fa2faae0126114a169c64845d6126c98888886109e88c6112cd565b6040805160208101969096526001600160a01b0394851690860152929091166060840152608083015260a082015260c0810186905260e0016040516020818303038152906040528051906020012090506000610a43826112f5565b90506000610a5382878787611343565b9050896001600160a01b0316816001600160a01b031614610ab65760405162461bcd60e51b815260206004820152601e60248201527f45524332305065726d69743a20696e76616c6964207369676e617475726500006044820152606401610610565b610ac18a8a8a610b52565b50505050505050505050565b600082815260208190526040902060010154610ae881610ea6565b6105908383610ff9565b6001600160a01b03918216600090815260036020908152604080832093909416825291909152205490565b60006001600160e01b03198216637965db0b60e01b148061049757506301ffc9a760e01b6001600160e01b0319831614610497565b6001600160a01b038316610bb45760405162461bcd60e51b8152602060048201526024808201527f45524332303a20617070726f76652066726f6d20746865207a65726f206164646044820152637265737360e01b6064820152608401610610565b6001600160a01b038216610c155760405162461bcd60e51b815260206004820152602260248201527f45524332303a20617070726f766520746f20746865207a65726f206164647265604482015261737360f01b6064820152608401610610565b6001600160a01b0383811660008181526003602090815260408083209487168084529482529182902085905590518481527f8c5be1e5ebec7d5bd14f71427d1e84f3dd0314c0f7b2291e5b200ac8c7c3b925910160405180910390a3505050565b6000610c828484610af2565b90506000198114610cea5781811015610cdd5760405162461bcd60e51b815260206004820152601d60248201527f45524332303a20696e73756666696369656e7420616c6c6f77616e63650000006044820152606401610610565b610cea8484848403610b52565b50505050565b6001600160a01b038316610d545760405162461bcd60e51b815260206004820152602560248201527f45524332303a207472616e736665722066726f6d20746865207a65726f206164604482015264647265737360d81b6064820152608401610610565b6001600160a01b038216610db65760405162461bcd60e51b815260206004820152602360248201527f45524332303a207472616e7366657220746f20746865207a65726f206164647260448201526265737360e81b6064820152608401610610565b610dc183838361136b565b6001600160a01b03831660009081526002602052604090205481811015610e395760405162461bcd60e51b815260206004820152602660248201527f45524332303a207472616e7366657220616d6f756e7420657863656564732062604482015265616c616e636560d01b6064820152608401610610565b6001600160a01b0380851660008181526002602052604080822086860390559286168082529083902080548601905591517fddf252ad1be2c89b69c2b068fc378daa952ba7f163c4a11628f55a4df523b3ef90610e999086815260200190565b60405180910390a3610cea565b6107988133611376565b610eba82826113cf565b60008281526001602052604090206105909082611453565b6000306001600160a01b037f000000000000000000000000000000000000000000000000000000000000000016148015610f2b57507f000000000000000000000000000000000000000000000000000000000000000046145b15610f5557507f000000000000000000000000000000000000000000000000000000000000000090565b50604080517f00000000000000000000000000000000000000000000000000000000000000006020808301919091527f0000000000000000000000000000000000000000000000000000000000000000828401527f000000000000000000000000000000000000000000000000000000000000000060608301524660808301523060a0808401919091528351808403909101815260c0909201909252805191012090565b6110038282611468565b600082815260016020526040902061059090826114cd565b6110236114e2565b6007805460ff191690557f5db9ee0a495bf2e6ff9c91a7834c1ba4fdd244a5e8aa4e537bd38aeae4b073aa335b6040516001600160a01b03909116815260200160405180910390a1565b6001600160a01b0382166110c35760405162461bcd60e51b815260206004820152601f60248201527f45524332303a206d696e7420746f20746865207a65726f2061646472657373006044820152606401610610565b6110cf6000838361136b565b80600460008282546110e19190611d76565b90915550506001600160a01b0382166000818152600260209081526040808320805486019055518481527fddf252ad1be2c89b69c2b068fc378daa952ba7f163c4a11628f55a4df523b3ef910160405180910390a35050565b6001600160a01b03821661119a5760405162461bcd60e51b815260206004820152602160248201527f45524332303a206275726e2066726f6d20746865207a65726f206164647265736044820152607360f81b6064820152608401610610565b6111a68260008361136b565b6001600160a01b0382166000908152600260205260409020548181101561121a5760405162461bcd60e51b815260206004820152602260248201527f45524332303a206275726e20616d6f756e7420657863656564732062616c616e604482015261636560f01b6064820152608401610610565b6001600160a01b03831660008181526002602090815260408083208686039055600480548790039055518581529192917fddf252ad1be2c89b69c2b068fc378daa952ba7f163c4a11628f55a4df523b3ef910160405180910390a3505050565b61128261152b565b6007805460ff191660011790557f62e78cea01bee320cd4e420270b5ea74000d11b0c9f74754ebdbfc544b05a2586110503390565b600061088a8383611571565b6000610497825490565b6001600160a01b03811660009081526008602052604090208054600181018255905b50919050565b6000610497611302610ed2565b8360405161190160f01b6020820152602281018390526042810182905260009060620160405160208183030381529060405280519060200120905092915050565b60008060006113548787878761159b565b915091506113618161165f565b5095945050505050565b6105908383836117a9565b6113808282610891565b6106235761138d816117b4565b6113988360206117c6565b6040516020016113a9929190611d89565b60408051601f198184030181529082905262461bcd60e51b825261061091600401611b58565b6113d98282610891565b610623576000828152602081815260408083206001600160a01b03851684529091529020805460ff1916600117905561140f3390565b6001600160a01b0316816001600160a01b0316837f2f8788117e7eff1d82e926ec794901d17c78024a50270940304540a733656f0d60405160405180910390a45050565b600061088a836001600160a01b038416611962565b6114728282610891565b15610623576000828152602081815260408083206001600160a01b0385168085529252808320805460ff1916905551339285917ff6391f5c32d9c69d2a47ea670b442974b53935d1edc7fd64eb21e047a839171b9190a45050565b600061088a836001600160a01b0384166119b1565b60075460ff166106ed5760405162461bcd60e51b815260206004820152601460248201527314185d5cd8589b194e881b9bdd081c185d5cd95960621b6044820152606401610610565b60075460ff16156106ed5760405162461bcd60e51b815260206004820152601060248201526f14185d5cd8589b194e881c185d5cd95960821b6044820152606401610610565b600082600001828154811061158857611588611dfe565b9060005260206000200154905092915050565b6000807f7fffffffffffffffffffffffffffffff5d576e7357a4501ddfe92f46681b20a08311156115d25750600090506003611656565b6040805160008082526020820180845289905260ff881692820192909252606081018690526080810185905260019060a0016020604051602081039080840390855afa158015611626573d6000803e3d6000fd5b5050604051601f1901519150506001600160a01b03811661164f57600060019250925050611656565b9150600090505b94509492505050565b600081600481111561167357611673611e14565b0361167b5750565b600181600481111561168f5761168f611e14565b036116dc5760405162461bcd60e51b815260206004820152601860248201527f45434453413a20696e76616c6964207369676e617475726500000000000000006044820152606401610610565b60028160048111156116f0576116f0611e14565b0361173d5760405162461bcd60e51b815260206004820152601f60248201527f45434453413a20696e76616c6964207369676e6174757265206c656e677468006044820152606401610610565b600381600481111561175157611751611e14565b036107985760405162461bcd60e51b815260206004820152602260248201527f45434453413a20696e76616c6964207369676e6174757265202773272076616c604482015261756560f01b6064820152608401610610565b610590838383611aa4565b60606104976001600160a01b03831660145b606060006117d5836002611e2a565b6117e0906002611d76565b67ffffffffffffffff8111156117f8576117f8611e41565b6040519080825280601f01601f191660200182016040528015611822576020820181803683370190505b509050600360fc1b8160008151811061183d5761183d611dfe565b60200101906001600160f81b031916908160001a905350600f60fb1b8160018151811061186c5761186c611dfe565b60200101906001600160f81b031916908160001a9053506000611890846002611e2a565b61189b906001611d76565b90505b6001811115611913576f181899199a1a9b1b9c1cb0b131b232b360811b85600f16601081106118cf576118cf611dfe565b1a60f81b8282815181106118e5576118e5611dfe565b60200101906001600160f81b031916908160001a90535060049490941c9361190c81611e57565b905061189e565b50831561088a5760405162461bcd60e51b815260206004820181905260248201527f537472696e67733a20686578206c656e67746820696e73756666696369656e746044820152606401610610565b60008181526001830160205260408120546119a957508154600181810184556000848152602080822090930184905584548482528286019093526040902091909155610497565b506000610497565b60008181526001830160205260408120548015611a9a5760006119d5600183611e6e565b85549091506000906119e990600190611e6e565b9050818114611a4e576000866000018281548110611a0957611a09611dfe565b9060005260206000200154905080876000018481548110611a2c57611a2c611dfe565b6000918252602080832090910192909255918252600188019052604090208390555b8554869080611a5f57611a5f611e81565b600190038181906000526020600020016000905590558560010160008681526020019081526020016000206000905560019350505050610497565b6000915050610497565b60075460ff16156105905760405162461bcd60e51b815260206004820152602a60248201527f45524332305061757361626c653a20746f6b656e207472616e736665722077686044820152691a5b19481c185d5cd95960b21b6064820152608401610610565b600060208284031215611b1c57600080fd5b81356001600160e01b03198116811461088a57600080fd5b60005b83811015611b4f578181015183820152602001611b37565b50506000910152565b6020815260008251806020840152611b77816040850160208701611b34565b601f01601f19169190910160400192915050565b80356001600160a01b0381168114611ba257600080fd5b919050565b60008060408385031215611bba57600080fd5b611bc383611b8b565b946020939093013593505050565b600080600060608486031215611be657600080fd5b611bef84611b8b565b9250611bfd60208501611b8b565b9150604084013590509250925092565b600060208284031215611c1f57600080fd5b5035919050565b60008060408385031215611c3957600080fd5b82359150611c4960208401611b8b565b90509250929050565b600060208284031215611c6457600080fd5b61088a82611b8b565b60008060408385031215611c8057600080fd5b50508035926020909101359150565b600080600080600080600060e0888a031215611caa57600080fd5b611cb388611b8b565b9650611cc160208901611b8b565b95506040880135945060608801359350608088013560ff81168114611ce557600080fd5b9699959850939692959460a0840135945060c09093013592915050565b60008060408385031215611d1557600080fd5b611d1e83611b8b565b9150611c4960208401611b8b565b600181811c90821680611d4057607f821691505b6020821081036112ef57634e487b7160e01b600052602260045260246000fd5b634e487b7160e01b600052601160045260246000fd5b8082018082111561049757610497611d60565b7f416363657373436f6e74726f6c3a206163636f756e7420000000000000000000815260008351611dc1816017850160208801611b34565b7001034b99036b4b9b9b4b733903937b6329607d1b6017918401918201528351611df2816028840160208801611b34565b01602801949350505050565b634e487b7160e01b600052603260045260246000fd5b634e487b7160e01b600052602160045260246000fd5b808202811582820484141761049757610497611d60565b634e487b7160e01b600052604160045260246000fd5b600081611e6657611e66611d60565b506000190190565b8181038181111561049757610497611d60565b634e487b7160e01b600052603160045260246000fdfea2646970667358221220c05d23d82851b3ede253341a688b410038e5a66e9f3bc574d9ed6cc7224f23d064736f6c63430008130033",
    "linkReferences": {}
  },
  "methodIdentifiers": {
    "DEFAULT_ADMIN_ROLE()": "a217fddf",
    "DOMAIN_SEPARATOR()": "3644e515",
    "MINTER_ROLE()": "d5391393",
    "PAUSER_ROLE()": "e63ab1e9",
    "allowance(address,address)": "dd62ed3e",
    "approve(address,uint256)": "095ea7b3",
    "balanceOf(address)": "70a08231",
    "burn(uint256)": "42966c68",
    "burnFrom(address,uint256)": "79cc6790",
    "decimals()": "313ce567",
    "decreaseAllowance(address,uint256)": "a457c2d7",
    "getRoleAdmin(bytes32)": "248a9ca3",
    "getRoleMember(bytes32,uint256)": "9010d07c",
    "getRoleMemberCount(bytes32)": "ca15c873",
    "grantRole(bytes32,address)": "2f2ff15d",
    "hasRole(bytes32,address)": "91d14854",
    "increaseAllowance(address,uint256)": "39509351",
    "mint(address,uint256)": "40c10f19",
    "name()": "06fdde03",
    "nonces(address)": "7ecebe00",
    "pause()": "8456cb59",
    "paused()": "5c975abb",
    "permit(address,address,uint256,uint256,uint8,bytes32,bytes32)": "d505accf",
    "renounceRole(bytes32,address)": "36568abe",
    "revokeRole(bytes32,address)": "d547741f",
    "supportsInterface(bytes4)": "01ffc9a7",
    "symbol()": "95d89b41",
    "totalSupply()": "18160ddd",
    "transfer(address,uint256)": "a9059cbb",
    "transferFrom(address,address,uint256)": "23b872dd",
    "unpause()": "3f4ba83a"
  },
  "id": 46
}